{
    "contractName": "Bobtail",
    "abi": [
        {
            "inputs": [
                {
                    "internalType": "address",
                    "name": "_router",
                    "type": "address"
                },
                {
                    "internalType": "address",
                    "name": "_bbone",
                    "type": "address"
                }
            ],
            "stateMutability": "nonpayable",
            "type": "constructor"
        },
        {
            "anonymous": false,
            "inputs": [
                {
                    "indexed": true,
                    "internalType": "address",
                    "name": "owner",
                    "type": "address"
                },
                {
                    "indexed": true,
                    "internalType": "address",
                    "name": "spender",
                    "type": "address"
                },
                {
                    "indexed": false,
                    "internalType": "uint256",
                    "name": "value",
                    "type": "uint256"
                }
            ],
            "name": "Approval",
            "type": "event"
        },
        {
            "anonymous": false,
            "inputs": [
                {
                    "indexed": false,
                    "internalType": "uint32",
                    "name": "feePercentage",
                    "type": "uint32"
                }
            ],
            "name": "FeePercentageUpdated",
            "type": "event"
        },
        {
            "anonymous": false,
            "inputs": [
                {
                    "indexed": false,
                    "internalType": "address",
                    "name": "pair",
                    "type": "address"
                },
                {
                    "indexed": false,
                    "internalType": "bool",
                    "name": "enabled",
                    "type": "bool"
                }
            ],
            "name": "LpPairsUpdated",
            "type": "event"
        },
        {
            "anonymous": false,
            "inputs": [
                {
                    "indexed": false,
                    "internalType": "uint128",
                    "name": "minTokensBeforeSwap",
                    "type": "uint128"
                }
            ],
            "name": "MinTokensBeforeSwapUpdated",
            "type": "event"
        },
        {
            "anonymous": false,
            "inputs": [
                {
                    "indexed": true,
                    "internalType": "address",
                    "name": "previousOwner",
                    "type": "address"
                },
                {
                    "indexed": true,
                    "internalType": "address",
                    "name": "newOwner",
                    "type": "address"
                }
            ],
            "name": "OwnershipTransferred",
            "type": "event"
        },
        {
            "anonymous": false,
            "inputs": [
                {
                    "indexed": false,
                    "internalType": "uint256",
                    "name": "tokensSwapped",
                    "type": "uint256"
                },
                {
                    "indexed": false,
                    "internalType": "uint256",
                    "name": "ethReceived",
                    "type": "uint256"
                },
                {
                    "indexed": false,
                    "internalType": "uint256",
                    "name": "tokensIntoLiqudity",
                    "type": "uint256"
                }
            ],
            "name": "SwapAndLiquify",
            "type": "event"
        },
        {
            "anonymous": false,
            "inputs": [
                {
                    "indexed": false,
                    "internalType": "bool",
                    "name": "enabled",
                    "type": "bool"
                }
            ],
            "name": "SwapAndLiquifyEnabledUpdated",
            "type": "event"
        },
        {
            "anonymous": false,
            "inputs": [
                {
                    "indexed": true,
                    "internalType": "address",
                    "name": "from",
                    "type": "address"
                },
                {
                    "indexed": true,
                    "internalType": "address",
                    "name": "to",
                    "type": "address"
                },
                {
                    "indexed": false,
                    "internalType": "uint256",
                    "name": "value",
                    "type": "uint256"
                }
            ],
            "name": "Transfer",
            "type": "event"
        },
        {
            "anonymous": false,
            "inputs": [
                {
                    "indexed": true,
                    "internalType": "address",
                    "name": "owner",
                    "type": "address"
                },
                {
                    "indexed": false,
                    "internalType": "uint256",
                    "name": "balance",
                    "type": "uint256"
                }
            ],
            "name": "UpdateTimeShare",
            "type": "event"
        },
        {
            "inputs": [
                {
                    "internalType": "address",
                    "name": "owner",
                    "type": "address"
                },
                {
                    "internalType": "address",
                    "name": "spender",
                    "type": "address"
                }
            ],
            "name": "allowance",
            "outputs": [
                {
                    "internalType": "uint256",
                    "name": "",
                    "type": "uint256"
                }
            ],
            "stateMutability": "view",
            "type": "function"
        },
        {
            "inputs": [
                {
                    "internalType": "address",
                    "name": "spender",
                    "type": "address"
                },
                {
                    "internalType": "uint256",
                    "name": "amount",
                    "type": "uint256"
                }
            ],
            "name": "approve",
            "outputs": [
                {
                    "internalType": "bool",
                    "name": "",
                    "type": "bool"
                }
            ],
            "stateMutability": "nonpayable",
            "type": "function"
        },
        {
            "inputs": [
                {
                    "internalType": "address",
                    "name": "account",
                    "type": "address"
                }
            ],
            "name": "balanceOf",
            "outputs": [
                {
                    "internalType": "uint256",
                    "name": "",
                    "type": "uint256"
                }
            ],
            "stateMutability": "view",
            "type": "function"
        },
        {
            "inputs": [],
            "name": "decimals",
            "outputs": [
                {
                    "internalType": "uint8",
                    "name": "",
                    "type": "uint8"
                }
            ],
            "stateMutability": "view",
            "type": "function"
        },
        {
            "inputs": [
                {
                    "internalType": "address",
                    "name": "spender",
                    "type": "address"
                },
                {
                    "internalType": "uint256",
                    "name": "subtractedValue",
                    "type": "uint256"
                }
            ],
            "name": "decreaseAllowance",
            "outputs": [
                {
                    "internalType": "bool",
                    "name": "",
                    "type": "bool"
                }
            ],
            "stateMutability": "nonpayable",
            "type": "function"
        },
        {
            "inputs": [],
            "name": "feePercentage",
            "outputs": [
                {
                    "internalType": "uint32",
                    "name": "",
                    "type": "uint32"
                }
            ],
            "stateMutability": "view",
            "type": "function"
        },
        {
            "inputs": [
                {
                    "internalType": "address",
                    "name": "spender",
                    "type": "address"
                },
                {
                    "internalType": "uint256",
                    "name": "addedValue",
                    "type": "uint256"
                }
            ],
            "name": "increaseAllowance",
            "outputs": [
                {
                    "internalType": "bool",
                    "name": "",
                    "type": "bool"
                }
            ],
            "stateMutability": "nonpayable",
            "type": "function"
        },
        {
            "inputs": [],
            "name": "joePair",
            "outputs": [
                {
                    "internalType": "address",
                    "name": "",
                    "type": "address"
                }
            ],
            "stateMutability": "view",
            "type": "function"
        },
        {
            "inputs": [],
            "name": "minTokensBeforeSwap",
            "outputs": [
                {
                    "internalType": "uint128",
                    "name": "",
                    "type": "uint128"
                }
            ],
            "stateMutability": "view",
            "type": "function"
        },
        {
            "inputs": [],
            "name": "name",
            "outputs": [
                {
                    "internalType": "string",
                    "name": "",
                    "type": "string"
                }
            ],
            "stateMutability": "view",
            "type": "function"
        },
        {
            "inputs": [],
            "name": "owner",
            "outputs": [
                {
                    "internalType": "address",
                    "name": "",
                    "type": "address"
                }
            ],
            "stateMutability": "view",
            "type": "function"
        },
        {
            "inputs": [],
            "name": "renounceOwnership",
            "outputs": [],
            "stateMutability": "nonpayable",
            "type": "function"
        },
        {
            "inputs": [
                {
                    "internalType": "uint32",
                    "name": "_feePercentage",
                    "type": "uint32"
                }
            ],
            "name": "setFee",
            "outputs": [],
            "stateMutability": "nonpayable",
            "type": "function"
        },
        {
            "inputs": [
                {
                    "internalType": "address",
                    "name": "_pair",
                    "type": "address"
                },
                {
                    "internalType": "bool",
                    "name": "_enabled",
                    "type": "bool"
                }
            ],
            "name": "setLPPair",
            "outputs": [],
            "stateMutability": "nonpayable",
            "type": "function"
        },
        {
            "inputs": [
                {
                    "internalType": "uint32",
                    "name": "_minTokensBeforeSwap",
                    "type": "uint32"
                }
            ],
            "name": "setMinTokensBeforeSwap",
            "outputs": [],
            "stateMutability": "nonpayable",
            "type": "function"
        },
        {
            "inputs": [
                {
                    "internalType": "bool",
                    "name": "_enabled",
                    "type": "bool"
                }
            ],
            "name": "setSwapAndLiquifyEnabled",
            "outputs": [],
            "stateMutability": "nonpayable",
            "type": "function"
        },
        {
            "inputs": [],
            "name": "swapAndLiquifyEnabled",
            "outputs": [
                {
                    "internalType": "bool",
                    "name": "",
                    "type": "bool"
                }
            ],
            "stateMutability": "view",
            "type": "function"
        },
        {
            "inputs": [],
            "name": "symbol",
            "outputs": [
                {
                    "internalType": "string",
                    "name": "",
                    "type": "string"
                }
            ],
            "stateMutability": "view",
            "type": "function"
        },
        {
            "inputs": [
                {
                    "internalType": "address",
                    "name": "_address",
                    "type": "address"
                }
            ],
            "name": "timeShareBalanceOf",
            "outputs": [
                {
                    "internalType": "uint256",
                    "name": "experience",
                    "type": "uint256"
                },
                {
                    "internalType": "uint256",
                    "name": "experience2",
                    "type": "uint256"
                },
                {
                    "internalType": "uint256",
                    "name": "level",
                    "type": "uint256"
                },
                {
                    "internalType": "uint256",
                    "name": "holdPercent",
                    "type": "uint256"
                },
                {
                    "internalType": "uint256",
                    "name": "holdingDuration",
                    "type": "uint256"
                }
            ],
            "stateMutability": "view",
            "type": "function"
        },
        {
            "inputs": [
                {
                    "internalType": "address",
                    "name": "",
                    "type": "address"
                }
            ],
            "name": "timeShares",
            "outputs": [
                {
                    "internalType": "uint256",
                    "name": "lastBlockTimestamp",
                    "type": "uint256"
                },
                {
                    "internalType": "uint256",
                    "name": "lastBalance",
                    "type": "uint256"
                }
            ],
            "stateMutability": "view",
            "type": "function"
        },
        {
            "inputs": [],
            "name": "totalSupply",
            "outputs": [
                {
                    "internalType": "uint256",
                    "name": "",
                    "type": "uint256"
                }
            ],
            "stateMutability": "view",
            "type": "function"
        },
        {
            "inputs": [
                {
                    "internalType": "address",
                    "name": "to",
                    "type": "address"
                },
                {
                    "internalType": "uint256",
                    "name": "amount",
                    "type": "uint256"
                }
            ],
            "name": "transfer",
            "outputs": [
                {
                    "internalType": "bool",
                    "name": "",
                    "type": "bool"
                }
            ],
            "stateMutability": "nonpayable",
            "type": "function"
        },
        {
            "inputs": [
                {
                    "internalType": "address",
                    "name": "from",
                    "type": "address"
                },
                {
                    "internalType": "address",
                    "name": "to",
                    "type": "address"
                },
                {
                    "internalType": "uint256",
                    "name": "amount",
                    "type": "uint256"
                }
            ],
            "name": "transferFrom",
            "outputs": [
                {
                    "internalType": "bool",
                    "name": "",
                    "type": "bool"
                }
            ],
            "stateMutability": "nonpayable",
            "type": "function"
        },
        {
            "inputs": [
                {
                    "internalType": "address",
                    "name": "newOwner",
                    "type": "address"
                }
            ],
            "name": "transferOwnership",
            "outputs": [],
            "stateMutability": "nonpayable",
            "type": "function"
        },
        {
            "stateMutability": "payable",
            "type": "receive"
        }
    ],
    "bytecode": "60e060405260058054600160a11b63ffffffff60a01b19909116179055600680546001600160801b031916600a1790553480156200003c57600080fd5b5060405162001e2f38038062001e2f8339810160408190526200005f916200049c565b604080518082018252600d81526c426f627461696c2e67616d657360981b6020808301918252835180850190945260078452661093d09510525360ca1b908401528151919291620000b391600391620003d9565b508051620000c9906004906020840190620003d9565b505050620000e6620000e06200029b60201b60201c565b6200029f565b6200010f33620000f96012600a620005e9565b6200010990633b9aca0062000601565b620002f1565b6000829050806001600160a01b031663c45a01556040518163ffffffff1660e01b8152600401602060405180830381865afa15801562000153573d6000803e3d6000fd5b505050506040513d601f19601f8201168201806040525081019062000179919062000623565b6001600160a01b031663c9c6539630836001600160a01b03166373b295c26040518163ffffffff1660e01b8152600401602060405180830381865afa158015620001c7573d6000803e3d6000fd5b505050506040513d601f19601f82011682018060405250810190620001ed919062000623565b6040516001600160e01b031960e085901b1681526001600160a01b039283166004820152911660248201526044016020604051808303816000875af11580156200023b573d6000803e3d6000fd5b505050506040513d601f19601f8201168201806040525081019062000261919062000623565b6001600160a01b0390811660c08190526000908152600760205260409020805460ff191660011790559081166080521660a0525062000699565b3390565b600580546001600160a01b038381166001600160a01b0319831681179093556040519116919082907f8be0079c531659141344cd1fd0a4f28419497f9722a3daafe3b4186f6b6457e090600090a35050565b6001600160a01b0382166200034c5760405162461bcd60e51b815260206004820152601f60248201527f45524332303a206d696e7420746f20746865207a65726f206164647265737300604482015260640160405180910390fd5b806002600082825462000360919062000641565b90915550506001600160a01b038216600090815260208190526040812080548392906200038f90849062000641565b90915550506040518181526001600160a01b038316906000907fddf252ad1be2c89b69c2b068fc378daa952ba7f163c4a11628f55a4df523b3ef9060200160405180910390a35050565b828054620003e7906200065c565b90600052602060002090601f0160209004810192826200040b576000855562000456565b82601f106200042657805160ff191683800117855562000456565b8280016001018555821562000456579182015b828111156200045657825182559160200191906001019062000439565b506200046492915062000468565b5090565b5b8082111562000464576000815560010162000469565b80516001600160a01b03811681146200049757600080fd5b919050565b60008060408385031215620004b057600080fd5b620004bb836200047f565b9150620004cb602084016200047f565b90509250929050565b634e487b7160e01b600052601160045260246000fd5b600181815b808511156200052b5781600019048211156200050f576200050f620004d4565b808516156200051d57918102915b93841c9390800290620004ef565b509250929050565b6000826200054457506001620005e3565b816200055357506000620005e3565b81600181146200056c5760028114620005775762000597565b6001915050620005e3565b60ff8411156200058b576200058b620004d4565b50506001821b620005e3565b5060208310610133831016604e8410600b8410161715620005bc575081810a620005e3565b620005c88383620004ea565b8060001904821115620005df57620005df620004d4565b0290505b92915050565b6000620005fa60ff84168362000533565b9392505050565b60008160001904831182151516156200061e576200061e620004d4565b500290565b6000602082840312156200063657600080fd5b620005fa826200047f565b60008219821115620006575762000657620004d4565b500190565b600181811c908216806200067157607f821691505b602082108114156200069357634e487b7160e01b600052602260045260246000fd5b50919050565b60805160a05160c051611743620006ec6000396000610337015260008181610e5d01528181610e9701528181610ed701526113060152600081816111dd0152818161129601526112d201526117436000f3fe60806040526004361061014f5760003560e01c806370a08231116100b6578063a9059cbb1161006f578063a9059cbb14610448578063c49b9a8014610468578063cc56146014610488578063dd62ed3e146104a8578063e5d41c6b146104ee578063f2fde38b1461052657600080fd5b806370a0823114610371578063715018a6146103a75780638da5cb5b146103bc57806395d89b41146103da578063a001ecdd146103ef578063a457c2d71461042857600080fd5b8063313ce56711610108578063313ce5671461025f57806335dd03a21461027b578063395093511461029b5780634a74bb02146102bb5780636b10462e146102dc5780636bca89cb1461032557600080fd5b806306fdde031461015b578063095ea7b3146101865780630f1eb29f146101b657806318160ddd146101fe5780631ab971ab1461021d57806323b872dd1461023f57600080fd5b3661015657005b600080fd5b34801561016757600080fd5b50610170610546565b60405161017d9190611366565b60405180910390f35b34801561019257600080fd5b506101a66101a13660046113d0565b6105d8565b604051901515815260200161017d565b3480156101c257600080fd5b506101d66101d13660046113fc565b6105f0565b604080519586526020860194909452928401919091526060830152608082015260a00161017d565b34801561020a57600080fd5b506002545b60405190815260200161017d565b34801561022957600080fd5b5061023d610238366004611420565b6106bd565b005b34801561024b57600080fd5b506101a661025a366004611446565b6107b3565b34801561026b57600080fd5b506040516012815260200161017d565b34801561028757600080fd5b5061023d610296366004611420565b6107d7565b3480156102a757600080fd5b506101a66102b63660046113d0565b610855565b3480156102c757600080fd5b506006546101a690600160801b900460ff1681565b3480156102e857600080fd5b506103106102f73660046113fc565b600a602052600090815260409020805460019091015482565b6040805192835260208301919091520161017d565b34801561033157600080fd5b506103597f000000000000000000000000000000000000000000000000000000000000000081565b6040516001600160a01b03909116815260200161017d565b34801561037d57600080fd5b5061020f61038c3660046113fc565b6001600160a01b031660009081526020819052604090205490565b3480156103b357600080fd5b5061023d610894565b3480156103c857600080fd5b506005546001600160a01b0316610359565b3480156103e657600080fd5b506101706108ca565b3480156103fb57600080fd5b5060055461041390600160a01b900463ffffffff1681565b60405163ffffffff909116815260200161017d565b34801561043457600080fd5b506101a66104433660046113d0565b6108d9565b34801561045457600080fd5b506101a66104633660046113d0565b61096b565b34801561047457600080fd5b5061023d61048336600461149c565b610979565b34801561049457600080fd5b5061023d6104a33660046114b7565b6109f0565b3480156104b457600080fd5b5061020f6104c33660046114ec565b6001600160a01b03918216600090815260016020908152604080832093909416825291909152205490565b3480156104fa57600080fd5b5060065461050e906001600160801b031681565b6040516001600160801b03909116815260200161017d565b34801561053257600080fd5b5061023d6105413660046113fc565b610a7d565b60606003805461055590611525565b80601f016020809104026020016040519081016040528092919081815260200182805461058190611525565b80156105ce5780601f106105a3576101008083540402835291602001916105ce565b820191906000526020600020905b8154815290600101906020018083116105b157829003601f168201915b5050505050905090565b6000336105e6818585610b18565b5060019392505050565b6001600160a01b0381166000908152600a602090815260408083208151808301909252805480835260019091015492820192909252829182918291829190610e109061063c9042611576565b61064691906115a3565b61065890678ac7230489e800006115b7565b915061066360025490565b6001600160a01b03881660009081526020819052604090205461068f9068056bc75e2d631000006115b7565b61069991906115a3565b925060646106a784846115d6565b6106b191906115d6565b95505091939590929450565b6005546001600160a01b031633146106f05760405162461bcd60e51b81526004016106e7906115ea565b60405180910390fd5b60008163ffffffff1611801561070c5750600a8163ffffffff16105b6107585760405162461bcd60e51b815260206004820152601a60248201527f496e76616c6964206665653a206d696e203125206d617820392500000000000060448201526064016106e7565b6005805463ffffffff60a01b1916600160a01b63ffffffff8416908102919091179091556040519081527f290b00353812a22fc8b872010f1ea4d5332e9d942e31243ba7d1f8d40eb22e53906020015b60405180910390a150565b6000336107c1858285610c3c565b6107cc858585610cce565b506001949350505050565b6005546001600160a01b031633146108015760405162461bcd60e51b81526004016106e7906115ea565b600680546fffffffffffffffffffffffffffffffff191663ffffffff83169081179091556040519081527fb20e0f86438dbd4812cee7b24a6696d4dbaa9d3db89c677e731ab7dd738c8bbe906020016107a8565b3360008181526001602090815260408083206001600160a01b03871684529091528120549091906105e6908290869061088f90879061161f565b610b18565b6005546001600160a01b031633146108be5760405162461bcd60e51b81526004016106e7906115ea565b6108c86000610df4565b565b60606004805461055590611525565b3360008181526001602090815260408083206001600160a01b03871684529091528120549091908381101561095e5760405162461bcd60e51b815260206004820152602560248201527f45524332303a2064656372656173656420616c6c6f77616e63652062656c6f77604482015264207a65726f60d81b60648201526084016106e7565b6107cc8286868403610b18565b6000336105e6818585610cce565b6005546001600160a01b031633146109a35760405162461bcd60e51b81526004016106e7906115ea565b60068054821515600160801b0260ff60801b199091161790556040517f53726dfcaf90650aa7eb35524f4d3220f07413c8d6cb404cc8c18bf5591bc159906107a890831515815260200190565b6005546001600160a01b03163314610a1a5760405162461bcd60e51b81526004016106e7906115ea565b6001600160a01b038216600081815260076020908152604091829020805460ff19168515159081179091558251938452908301527f9275848620775c1d80b27df21b269b20e3040d2fd33ebf6a514850b17fc94958910160405180910390a15050565b6005546001600160a01b03163314610aa75760405162461bcd60e51b81526004016106e7906115ea565b6001600160a01b038116610b0c5760405162461bcd60e51b815260206004820152602660248201527f4f776e61626c653a206e6577206f776e657220697320746865207a65726f206160448201526564647265737360d01b60648201526084016106e7565b610b1581610df4565b50565b6001600160a01b038316610b7a5760405162461bcd60e51b8152602060048201526024808201527f45524332303a20617070726f76652066726f6d20746865207a65726f206164646044820152637265737360e01b60648201526084016106e7565b6001600160a01b038216610bdb5760405162461bcd60e51b815260206004820152602260248201527f45524332303a20617070726f766520746f20746865207a65726f206164647265604482015261737360f01b60648201526084016106e7565b6001600160a01b0383811660008181526001602090815260408083209487168084529482529182902085905590518481527f8c5be1e5ebec7d5bd14f71427d1e84f3dd0314c0f7b2291e5b200ac8c7c3b925910160405180910390a3505050565b6001600160a01b038381166000908152600160209081526040808320938616835292905220546000198114610cc85781811015610cbb5760405162461bcd60e51b815260206004820152601d60248201527f45524332303a20696e73756666696369656e7420616c6c6f77616e636500000060448201526064016106e7565b610cc88484848403610b18565b50505050565b306000908152602081905260409020546006546001600160801b031681108015908190610cfe575060095460ff16155b8015610d1a57503360009081526007602052604090205460ff16155b8015610d2f5750600654600160801b900460ff165b15610d3d57610d3d82610e46565b3360009081526007602052604090205460ff168015610d655750600654600160801b900460ff165b8015610d74575060095460ff16155b15610dd057600554600090606490610d9990600160a01b900463ffffffff16866115b7565b610da391906115a3565b90506000610db18286611576565b9050610dbe873084610f50565b610dc9878783610f50565b5050610ddb565b610ddb858585610f50565b610de48561111e565b610ded8461111e565b5050505050565b600580546001600160a01b038381166001600160a01b0319831681179093556040519116919082907f8be0079c531659141344cd1fd0a4f28419497f9722a3daafe3b4186f6b6457e090600090a35050565b6009805460ff191660011790556001600160a01b037f00000000000000000000000000000000000000000000000000000000000000001631610e8782611186565b6000610ebd826001600160a01b037f00000000000000000000000000000000000000000000000000000000000000001631611576565b604051635a95479b60e11b81529091506001600160a01b037f0000000000000000000000000000000000000000000000000000000000000000169063b52a8f3690610f0f908490600090600401611637565b600060405180830381600087803b158015610f2957600080fd5b505af1158015610f3d573d6000803e3d6000fd5b50506009805460ff191690555050505050565b6001600160a01b038316610fb45760405162461bcd60e51b815260206004820152602560248201527f45524332303a207472616e736665722066726f6d20746865207a65726f206164604482015264647265737360d81b60648201526084016106e7565b6001600160a01b0382166110165760405162461bcd60e51b815260206004820152602360248201527f45524332303a207472616e7366657220746f20746865207a65726f206164647260448201526265737360e81b60648201526084016106e7565b6001600160a01b0383166000908152602081905260409020548181101561108e5760405162461bcd60e51b815260206004820152602660248201527f45524332303a207472616e7366657220616d6f756e7420657863656564732062604482015265616c616e636560d01b60648201526084016106e7565b6001600160a01b038085166000908152602081905260408082208585039055918516815290812080548492906110c590849061161f565b92505081905550826001600160a01b0316846001600160a01b03167fddf252ad1be2c89b69c2b068fc378daa952ba7f163c4a11628f55a4df523b3ef8460405161111191815260200190565b60405180910390a3610cc8565b6001600160a01b0381166000908152600a6020526040902042815560018101546040516001600160a01b038416917f88eaa1421f2568c78c4294b0c12b979329916010a9ddabac3e2df1f4f7409f449161117a91815260200190565b60405180910390a25050565b60408051600280825260608201835260009260208301908036833701905050905030816000815181106111bb576111bb611669565b60200260200101906001600160a01b031690816001600160a01b0316815250507f00000000000000000000000000000000000000000000000000000000000000006001600160a01b03166373b295c26040518163ffffffff1660e01b8152600401602060405180830381865afa158015611239573d6000803e3d6000fd5b505050506040513d601f19601f8201168201806040525081019061125d919061167f565b8160018151811061127057611270611669565b60200260200101906001600160a01b031690816001600160a01b0316815250506112bb307f000000000000000000000000000000000000000000000000000000000000000084610b18565b604051633b158ab160e11b81526001600160a01b037f0000000000000000000000000000000000000000000000000000000000000000169063762b15629061133090859060009086907f000000000000000000000000000000000000000000000000000000000000000090429060040161169c565b600060405180830381600087803b15801561134a57600080fd5b505af115801561135e573d6000803e3d6000fd5b505050505050565b600060208083528351808285015260005b8181101561139357858101830151858201604001528201611377565b818111156113a5576000604083870101525b50601f01601f1916929092016040019392505050565b6001600160a01b0381168114610b1557600080fd5b600080604083850312156113e357600080fd5b82356113ee816113bb565b946020939093013593505050565b60006020828403121561140e57600080fd5b8135611419816113bb565b9392505050565b60006020828403121561143257600080fd5b813563ffffffff8116811461141957600080fd5b60008060006060848603121561145b57600080fd5b8335611466816113bb565b92506020840135611476816113bb565b929592945050506040919091013590565b8035801515811461149757600080fd5b919050565b6000602082840312156114ae57600080fd5b61141982611487565b600080604083850312156114ca57600080fd5b82356114d5816113bb565b91506114e360208401611487565b90509250929050565b600080604083850312156114ff57600080fd5b823561150a816113bb565b9150602083013561151a816113bb565b809150509250929050565b600181811c9082168061153957607f821691505b6020821081141561155a57634e487b7160e01b600052602260045260246000fd5b50919050565b634e487b7160e01b600052601160045260246000fd5b60008282101561158857611588611560565b500390565b634e487b7160e01b600052601260045260246000fd5b6000826115b2576115b261158d565b500490565b60008160001904831182151516156115d1576115d1611560565b500290565b6000826115e5576115e561158d565b500690565b6020808252818101527f4f776e61626c653a2063616c6c6572206973206e6f7420746865206f776e6572604082015260600190565b6000821982111561163257611632611560565b500190565b828152604081016003831061165c57634e487b7160e01b600052602160045260246000fd5b8260208301529392505050565b634e487b7160e01b600052603260045260246000fd5b60006020828403121561169157600080fd5b8151611419816113bb565b600060a082018783526020878185015260a0604085015281875180845260c086019150828901935060005b818110156116ec5784516001600160a01b0316835293830193918301916001016116c7565b50506001600160a01b0396909616606085015250505060800152939250505056fea26469706673582212206b7f1cc0ff226bf0535230d4c8dde6c3ac52f15aceec7b85661e752828809edb64736f6c634300080c0033",
    "sourcePath": "d:/codigo/BobtailContracts3/contracts/Bobtail.sol",
    "compiler": {
        "name": "solc",
        "version": "0.8.12+commit.f00d7308"
    },
    "functionHashes": {
        "allowance(address,address)": "dd62ed3e",
        "approve(address,uint256)": "095ea7b3",
        "balanceOf(address)": "70a08231",
        "decimals()": "313ce567",
        "decreaseAllowance(address,uint256)": "a457c2d7",
        "feePercentage()": "a001ecdd",
        "increaseAllowance(address,uint256)": "39509351",
        "joePair()": "6bca89cb",
        "minTokensBeforeSwap()": "e5d41c6b",
        "name()": "06fdde03",
        "owner()": "8da5cb5b",
        "renounceOwnership()": "715018a6",
        "setFee(uint32)": "1ab971ab",
        "setLPPair(address,bool)": "cc561460",
        "setMinTokensBeforeSwap(uint32)": "35dd03a2",
        "setSwapAndLiquifyEnabled(bool)": "c49b9a80",
        "swapAndLiquifyEnabled()": "4a74bb02",
        "symbol()": "95d89b41",
        "timeShareBalanceOf(address)": "0f1eb29f",
        "timeShares(address)": "6b10462e",
        "totalSupply()": "18160ddd",
        "transfer(address,uint256)": "a9059cbb",
        "transferFrom(address,address,uint256)": "23b872dd",
        "transferOwnership(address)": "f2fde38b"
    },
    "gasEstimates": {
        "creation": {
            "codeDepositCost": "1191000",
            "executionCost": "infinite",
            "totalCost": "infinite"
        },
        "external": {
            "allowance(address,address)": "infinite",
            "approve(address,uint256)": "24641",
            "balanceOf(address)": "2557",
            "decimals()": "200",
            "decreaseAllowance(address,uint256)": "27027",
            "feePercentage()": "2441",
            "increaseAllowance(address,uint256)": "27006",
            "joePair()": "infinite",
            "minTokensBeforeSwap()": "2447",
            "name()": "infinite",
            "owner()": "2398",
            "renounceOwnership()": "28162",
            "setFee(uint32)": "27901",
            "setLPPair(address,bool)": "28259",
            "setMinTokensBeforeSwap(uint32)": "27750",
            "setSwapAndLiquifyEnabled(bool)": "27813",
            "swapAndLiquifyEnabled()": "2416",
            "symbol()": "infinite",
            "timeShareBalanceOf(address)": "infinite",
            "timeShares(address)": "4763",
            "totalSupply()": "2371",
            "transfer(address,uint256)": "infinite",
            "transferFrom(address,address,uint256)": "infinite",
            "transferOwnership(address)": "infinite"
        },
        "internal": {
            "_swapAndLiquify(uint256)": "infinite",
            "_transfer(address,address,uint256)": "infinite",
            "swapTokensForEth(uint256)": "infinite",
            "updateTimeShare(address)": "infinite"
        }
    }
}