{
  "_format": "hh-sol-artifact-1",
  "contractName": "Bobtail",
  "sourceName": "contracts/Bobtail.sol",
  "abi": [
    {
      "inputs": [
        {
          "internalType": "address",
          "name": "_router",
          "type": "address"
        },
        {
          "internalType": "address",
          "name": "_bbone",
          "type": "address"
        }
      ],
      "stateMutability": "nonpayable",
      "type": "constructor"
    },
    {
      "anonymous": false,
      "inputs": [
        {
          "indexed": true,
          "internalType": "address",
          "name": "owner",
          "type": "address"
        },
        {
          "indexed": true,
          "internalType": "address",
          "name": "spender",
          "type": "address"
        },
        {
          "indexed": false,
          "internalType": "uint256",
          "name": "value",
          "type": "uint256"
        }
      ],
      "name": "Approval",
      "type": "event"
    },
    {
      "anonymous": false,
      "inputs": [
        {
          "indexed": true,
          "internalType": "address",
          "name": "previousOwner",
          "type": "address"
        },
        {
          "indexed": true,
          "internalType": "address",
          "name": "newOwner",
          "type": "address"
        }
      ],
      "name": "OwnershipTransferred",
      "type": "event"
    },
    {
      "anonymous": false,
      "inputs": [
        {
          "indexed": true,
          "internalType": "bytes32",
          "name": "role",
          "type": "bytes32"
        },
        {
          "indexed": true,
          "internalType": "bytes32",
          "name": "previousAdminRole",
          "type": "bytes32"
        },
        {
          "indexed": true,
          "internalType": "bytes32",
          "name": "newAdminRole",
          "type": "bytes32"
        }
      ],
      "name": "RoleAdminChanged",
      "type": "event"
    },
    {
      "anonymous": false,
      "inputs": [
        {
          "indexed": true,
          "internalType": "bytes32",
          "name": "role",
          "type": "bytes32"
        },
        {
          "indexed": true,
          "internalType": "address",
          "name": "account",
          "type": "address"
        },
        {
          "indexed": true,
          "internalType": "address",
          "name": "sender",
          "type": "address"
        }
      ],
      "name": "RoleGranted",
      "type": "event"
    },
    {
      "anonymous": false,
      "inputs": [
        {
          "indexed": true,
          "internalType": "bytes32",
          "name": "role",
          "type": "bytes32"
        },
        {
          "indexed": true,
          "internalType": "address",
          "name": "account",
          "type": "address"
        },
        {
          "indexed": true,
          "internalType": "address",
          "name": "sender",
          "type": "address"
        }
      ],
      "name": "RoleRevoked",
      "type": "event"
    },
    {
      "anonymous": false,
      "inputs": [
        {
          "indexed": false,
          "internalType": "bool",
          "name": "enabled",
          "type": "bool"
        }
      ],
      "name": "SwapAndLiquifyEnabledUpdated",
      "type": "event"
    },
    {
      "anonymous": false,
      "inputs": [
        {
          "indexed": true,
          "internalType": "address",
          "name": "from",
          "type": "address"
        },
        {
          "indexed": true,
          "internalType": "address",
          "name": "to",
          "type": "address"
        },
        {
          "indexed": false,
          "internalType": "uint256",
          "name": "value",
          "type": "uint256"
        }
      ],
      "name": "Transfer",
      "type": "event"
    },
    {
      "inputs": [],
      "name": "DEFAULT_ADMIN_ROLE",
      "outputs": [
        {
          "internalType": "bytes32",
          "name": "",
          "type": "bytes32"
        }
      ],
      "stateMutability": "view",
      "type": "function"
    },
    {
      "inputs": [
        {
          "internalType": "address",
          "name": "owner",
          "type": "address"
        },
        {
          "internalType": "address",
          "name": "spender",
          "type": "address"
        }
      ],
      "name": "allowance",
      "outputs": [
        {
          "internalType": "uint256",
          "name": "",
          "type": "uint256"
        }
      ],
      "stateMutability": "view",
      "type": "function"
    },
    {
      "inputs": [
        {
          "internalType": "address",
          "name": "spender",
          "type": "address"
        },
        {
          "internalType": "uint256",
          "name": "amount",
          "type": "uint256"
        }
      ],
      "name": "approve",
      "outputs": [
        {
          "internalType": "bool",
          "name": "",
          "type": "bool"
        }
      ],
      "stateMutability": "nonpayable",
      "type": "function"
    },
    {
      "inputs": [
        {
          "internalType": "address",
          "name": "_account",
          "type": "address"
        }
      ],
      "name": "balanceOf",
      "outputs": [
        {
          "internalType": "uint256",
          "name": "",
          "type": "uint256"
        }
      ],
      "stateMutability": "view",
      "type": "function"
    },
    {
      "inputs": [],
      "name": "bboneToken",
      "outputs": [
        {
          "internalType": "contract IERC20",
          "name": "",
          "type": "address"
        }
      ],
      "stateMutability": "view",
      "type": "function"
    },
    {
      "inputs": [],
      "name": "decimals",
      "outputs": [
        {
          "internalType": "uint8",
          "name": "",
          "type": "uint8"
        }
      ],
      "stateMutability": "pure",
      "type": "function"
    },
    {
      "inputs": [
        {
          "internalType": "address",
          "name": "spender",
          "type": "address"
        },
        {
          "internalType": "uint256",
          "name": "subtractedValue",
          "type": "uint256"
        }
      ],
      "name": "decreaseAllowance",
      "outputs": [
        {
          "internalType": "bool",
          "name": "",
          "type": "bool"
        }
      ],
      "stateMutability": "nonpayable",
      "type": "function"
    },
    {
      "inputs": [],
      "name": "durationBetweenEachBuyback",
      "outputs": [
        {
          "internalType": "uint256",
          "name": "",
          "type": "uint256"
        }
      ],
      "stateMutability": "view",
      "type": "function"
    },
    {
      "inputs": [
        {
          "internalType": "bytes32",
          "name": "role",
          "type": "bytes32"
        }
      ],
      "name": "getRoleAdmin",
      "outputs": [
        {
          "internalType": "bytes32",
          "name": "",
          "type": "bytes32"
        }
      ],
      "stateMutability": "view",
      "type": "function"
    },
    {
      "inputs": [
        {
          "internalType": "bytes32",
          "name": "role",
          "type": "bytes32"
        },
        {
          "internalType": "address",
          "name": "account",
          "type": "address"
        }
      ],
      "name": "grantRole",
      "outputs": [],
      "stateMutability": "nonpayable",
      "type": "function"
    },
    {
      "inputs": [
        {
          "internalType": "bytes32",
          "name": "role",
          "type": "bytes32"
        },
        {
          "internalType": "address",
          "name": "account",
          "type": "address"
        }
      ],
      "name": "hasRole",
      "outputs": [
        {
          "internalType": "bool",
          "name": "",
          "type": "bool"
        }
      ],
      "stateMutability": "view",
      "type": "function"
    },
    {
      "inputs": [
        {
          "internalType": "address",
          "name": "spender",
          "type": "address"
        },
        {
          "internalType": "uint256",
          "name": "addedValue",
          "type": "uint256"
        }
      ],
      "name": "increaseAllowance",
      "outputs": [
        {
          "internalType": "bool",
          "name": "",
          "type": "bool"
        }
      ],
      "stateMutability": "nonpayable",
      "type": "function"
    },
    {
      "inputs": [],
      "name": "joePair",
      "outputs": [
        {
          "internalType": "address",
          "name": "",
          "type": "address"
        }
      ],
      "stateMutability": "view",
      "type": "function"
    },
    {
      "inputs": [],
      "name": "joeRouter",
      "outputs": [
        {
          "internalType": "contract IJoeRouter02",
          "name": "",
          "type": "address"
        }
      ],
      "stateMutability": "view",
      "type": "function"
    },
    {
      "inputs": [],
      "name": "name",
      "outputs": [
        {
          "internalType": "string",
          "name": "",
          "type": "string"
        }
      ],
      "stateMutability": "pure",
      "type": "function"
    },
    {
      "inputs": [],
      "name": "owner",
      "outputs": [
        {
          "internalType": "address",
          "name": "",
          "type": "address"
        }
      ],
      "stateMutability": "view",
      "type": "function"
    },
    {
      "inputs": [],
      "name": "previousBuyBackTime",
      "outputs": [
        {
          "internalType": "uint256",
          "name": "",
          "type": "uint256"
        }
      ],
      "stateMutability": "view",
      "type": "function"
    },
    {
      "inputs": [],
      "name": "renounceOwnership",
      "outputs": [],
      "stateMutability": "nonpayable",
      "type": "function"
    },
    {
      "inputs": [
        {
          "internalType": "bytes32",
          "name": "role",
          "type": "bytes32"
        },
        {
          "internalType": "address",
          "name": "account",
          "type": "address"
        }
      ],
      "name": "renounceRole",
      "outputs": [],
      "stateMutability": "nonpayable",
      "type": "function"
    },
    {
      "inputs": [
        {
          "internalType": "bytes32",
          "name": "role",
          "type": "bytes32"
        },
        {
          "internalType": "address",
          "name": "account",
          "type": "address"
        }
      ],
      "name": "revokeRole",
      "outputs": [],
      "stateMutability": "nonpayable",
      "type": "function"
    },
    {
      "inputs": [
        {
          "internalType": "bool",
          "name": "_enabled",
          "type": "bool"
        }
      ],
      "name": "setSwapAndLiquifyEnabled",
      "outputs": [],
      "stateMutability": "nonpayable",
      "type": "function"
    },
    {
      "inputs": [
        {
          "internalType": "bytes4",
          "name": "interfaceId",
          "type": "bytes4"
        }
      ],
      "name": "supportsInterface",
      "outputs": [
        {
          "internalType": "bool",
          "name": "",
          "type": "bool"
        }
      ],
      "stateMutability": "view",
      "type": "function"
    },
    {
      "inputs": [],
      "name": "swapAndLiquifyEnabled",
      "outputs": [
        {
          "internalType": "bool",
          "name": "",
          "type": "bool"
        }
      ],
      "stateMutability": "view",
      "type": "function"
    },
    {
      "inputs": [],
      "name": "symbol",
      "outputs": [
        {
          "internalType": "string",
          "name": "",
          "type": "string"
        }
      ],
      "stateMutability": "pure",
      "type": "function"
    },
    {
      "inputs": [],
      "name": "totalSupply",
      "outputs": [
        {
          "internalType": "uint256",
          "name": "",
          "type": "uint256"
        }
      ],
      "stateMutability": "view",
      "type": "function"
    },
    {
      "inputs": [
        {
          "internalType": "address",
          "name": "_recipient",
          "type": "address"
        },
        {
          "internalType": "uint256",
          "name": "_amount",
          "type": "uint256"
        }
      ],
      "name": "transfer",
      "outputs": [
        {
          "internalType": "bool",
          "name": "",
          "type": "bool"
        }
      ],
      "stateMutability": "nonpayable",
      "type": "function"
    },
    {
      "inputs": [
        {
          "internalType": "address",
          "name": "sender",
          "type": "address"
        },
        {
          "internalType": "address",
          "name": "recipient",
          "type": "address"
        },
        {
          "internalType": "uint256",
          "name": "amount",
          "type": "uint256"
        }
      ],
      "name": "transferFrom",
      "outputs": [
        {
          "internalType": "bool",
          "name": "",
          "type": "bool"
        }
      ],
      "stateMutability": "nonpayable",
      "type": "function"
    },
    {
      "inputs": [
        {
          "internalType": "address",
          "name": "newOwner",
          "type": "address"
        }
      ],
      "name": "transferOwnership",
      "outputs": [],
      "stateMutability": "nonpayable",
      "type": "function"
    },
    {
      "inputs": [],
      "name": "wavax",
      "outputs": [
        {
          "internalType": "contract IERC20",
          "name": "",
          "type": "address"
        }
      ],
      "stateMutability": "view",
      "type": "function"
    },
    {
      "stateMutability": "payable",
      "type": "receive"
    }
  ],
  "bytecode": "0x6101006040526a1dc74be914d16aa40000006006556000600755426008556005600955600a805460ff191690553480156200003957600080fd5b506040516200218e3803806200218e8339810160408190526200005c9162000317565b6200006733620002aa565b6001600160a01b03811660c05260065433600081815260026020908152604080832085905551938452919290917fddf252ad1be2c89b69c2b068fc378daa952ba7f163c4a11628f55a4df523b3ef910160405180910390a36000829050806001600160a01b031663c45a01556040518163ffffffff1660e01b8152600401602060405180830381865afa15801562000103573d6000803e3d6000fd5b505050506040513d601f19601f820116820180604052508101906200012991906200034f565b6001600160a01b031663c9c6539630836001600160a01b03166373b295c26040518163ffffffff1660e01b8152600401602060405180830381865afa15801562000177573d6000803e3d6000fd5b505050506040513d601f19601f820116820180604052508101906200019d91906200034f565b6040516001600160e01b031960e085901b1681526001600160a01b039283166004820152911660248201526044016020604051808303816000875af1158015620001eb573d6000803e3d6000fd5b505050506040513d601f19601f820116820180604052508101906200021191906200034f565b6001600160a01b031660a0816001600160a01b031681525050806001600160a01b03166373b295c26040518163ffffffff1660e01b8152600401602060405180830381865afa15801562000269573d6000803e3d6000fd5b505050506040513d601f19601f820116820180604052508101906200028f91906200034f565b6001600160a01b0390811660e0521660805250620003749050565b600080546001600160a01b038381166001600160a01b0319831681178455604051919092169283917f8be0079c531659141344cd1fd0a4f28419497f9722a3daafe3b4186f6b6457e09190a35050565b80516001600160a01b03811681146200031257600080fd5b919050565b600080604083850312156200032b57600080fd5b6200033683620002fa565b91506200034660208401620002fa565b90509250929050565b6000602082840312156200036257600080fd5b6200036d82620002fa565b9392505050565b60805160a05160c05160e051611d776200041760003960006102960152600081816102e20152818161108c01528181611130015281816116420152818161175a01526117df01526000818161044801528181610c960152610d06015260008181610414015281816113d30152818161148c015281816114c80152818161158d0152818161169a015281816116d60152818161172b01526118290152611d776000f3fe6080604052600436106101c65760003560e01c806359f571e8116100f7578063a217fddf11610095578063d547741f11610064578063d547741f14610595578063dd62ed3e146105b5578063e633f6f6146105fb578063f2fde38b1461061157600080fd5b8063a217fddf14610520578063a457c2d714610535578063a9059cbb14610555578063c49b9a801461057557600080fd5b8063715018a6116100d1578063715018a6146104a05780638da5cb5b146104b557806391d14854146104d357806395d89b41146104f357600080fd5b806359f571e8146104025780636bca89cb1461043657806370a082311461046a57600080fd5b806323b872dd11610164578063313ce5671161013e578063313ce5671461038c57806336568abe146103a857806339509351146103c85780634a74bb02146103e857600080fd5b806323b872dd14610319578063248a9ca3146103395780632f2ff15d1461036a57600080fd5b80630ab29a26116101a05780630ab29a2614610260578063117be4c2146102845780631217d9d0146102d057806318160ddd1461030457600080fd5b806301ffc9a7146101d257806306fdde0314610207578063095ea7b31461024057600080fd5b366101cd57005b600080fd5b3480156101de57600080fd5b506101f26101ed36600461189f565b610631565b60405190151581526020015b60405180910390f35b34801561021357600080fd5b50604080518082019091526007815266109bd89d185a5b60ca1b60208201525b6040516101fe91906118f5565b34801561024c57600080fd5b506101f261025b36600461193d565b610668565b34801561026c57600080fd5b5061027660085481565b6040519081526020016101fe565b34801561029057600080fd5b506102b87f000000000000000000000000000000000000000000000000000000000000000081565b6040516001600160a01b0390911681526020016101fe565b3480156102dc57600080fd5b506102b87f000000000000000000000000000000000000000000000000000000000000000081565b34801561031057600080fd5b50600654610276565b34801561032557600080fd5b506101f2610334366004611969565b61067e565b34801561034557600080fd5b506102766103543660046119aa565b6000908152600160208190526040909120015490565b34801561037657600080fd5b5061038a6103853660046119c3565b6106e7565b005b34801561039857600080fd5b50604051601281526020016101fe565b3480156103b457600080fd5b5061038a6103c33660046119c3565b610713565b3480156103d457600080fd5b506101f26103e336600461193d565b610796565b3480156103f457600080fd5b506005546101f29060ff1681565b34801561040e57600080fd5b506102b87f000000000000000000000000000000000000000000000000000000000000000081565b34801561044257600080fd5b506102b87f000000000000000000000000000000000000000000000000000000000000000081565b34801561047657600080fd5b506102766104853660046119f3565b6001600160a01b031660009081526002602052604090205490565b3480156104ac57600080fd5b5061038a6107cc565b3480156104c157600080fd5b506000546001600160a01b03166102b8565b3480156104df57600080fd5b506101f26104ee3660046119c3565b610802565b3480156104ff57600080fd5b506040805180820190915260048152631093d09560e21b6020820152610233565b34801561052c57600080fd5b50610276600081565b34801561054157600080fd5b506101f261055036600461193d565b61082d565b34801561056157600080fd5b506101f261057036600461193d565b61087c565b34801561058157600080fd5b5061038a610590366004611a1e565b610889565b3480156105a157600080fd5b5061038a6105b03660046119c3565b6108fa565b3480156105c157600080fd5b506102766105d0366004611a3b565b6001600160a01b03918216600090815260036020908152604080832093909416825291909152205490565b34801561060757600080fd5b5061027660095481565b34801561061d57600080fd5b5061038a61062c3660046119f3565b610921565b60006001600160e01b03198216637965db0b60e01b148061066257506301ffc9a760e01b6001600160e01b03198316145b92915050565b60006106753384846109bc565b50600192915050565b600061068b848484610ae0565b6106dd84336106d885604051806060016040528060288152602001611cf5602891396001600160a01b038a1660009081526003602090815260408083203384529091529020549190610e82565b6109bc565b5060019392505050565b600082815260016020819052604090912001546107048133610eae565b61070e8383610f12565b505050565b6001600160a01b03811633146107885760405162461bcd60e51b815260206004820152602f60248201527f416363657373436f6e74726f6c3a2063616e206f6e6c792072656e6f756e636560448201526e103937b632b9903337b91039b2b63360891b60648201526084015b60405180910390fd5b6107928282610f7d565b5050565b3360008181526003602090815260408083206001600160a01b038716845290915281205490916106759185906106d89086610fe4565b6000546001600160a01b031633146107f65760405162461bcd60e51b815260040161077f90611a69565b6108006000610ff7565b565b60009182526001602090815260408084206001600160a01b0393909316845291905290205460ff1690565b600061067533846106d885604051806060016040528060258152602001611d1d602591393360009081526003602090815260408083206001600160a01b038d1684529091529020549190610e82565b6000610675338484610ae0565b6000546001600160a01b031633146108b35760405162461bcd60e51b815260040161077f90611a69565b6005805460ff19168215159081179091556040519081527f53726dfcaf90650aa7eb35524f4d3220f07413c8d6cb404cc8c18bf5591bc1599060200160405180910390a150565b600082815260016020819052604090912001546109178133610eae565b61070e8383610f7d565b6000546001600160a01b0316331461094b5760405162461bcd60e51b815260040161077f90611a69565b6001600160a01b0381166109b05760405162461bcd60e51b815260206004820152602660248201527f4f776e61626c653a206e6577206f776e657220697320746865207a65726f206160448201526564647265737360d01b606482015260840161077f565b6109b981610ff7565b50565b6001600160a01b038316610a1e5760405162461bcd60e51b8152602060048201526024808201527f45524332303a20617070726f76652066726f6d20746865207a65726f206164646044820152637265737360e01b606482015260840161077f565b6001600160a01b038216610a7f5760405162461bcd60e51b815260206004820152602260248201527f45524332303a20617070726f766520746f20746865207a65726f206164647265604482015261737360f01b606482015260840161077f565b6001600160a01b0383811660008181526003602090815260408083209487168084529482529182902085905590518481527f8c5be1e5ebec7d5bd14f71427d1e84f3dd0314c0f7b2291e5b200ac8c7c3b925910160405180910390a3505050565b6001600160a01b038316610b445760405162461bcd60e51b815260206004820152602560248201527f45524332303a207472616e736665722066726f6d20746865207a65726f206164604482015264647265737360d81b606482015260840161077f565b6001600160a01b038216610ba65760405162461bcd60e51b815260206004820152602360248201527f45524332303a207472616e7366657220746f20746865207a65726f206164647260448201526265737360e81b606482015260840161077f565b60008111610c085760405162461bcd60e51b815260206004820152602960248201527f5472616e7366657220616d6f756e74206d7573742062652067726561746572206044820152687468616e207a65726f60b81b606482015260840161077f565b610c4581604051806060016040528060268152602001611ccf602691396001600160a01b0386166000908152600260205260409020549190610e82565b6001600160a01b03841660009081526002602081905260408083209390935530825291902054600754909111801590610c7e5750600081115b8015610c8d5750600a5460ff16155b8015610ccb57507f00000000000000000000000000000000000000000000000000000000000000006001600160a01b0316846001600160a01b031614155b15610cf657600a805460ff191660011790556000600755610ceb81611047565b600a805460ff191690555b600a5460ff1615828115610d84577f00000000000000000000000000000000000000000000000000000000000000006001600160a01b0316866001600160a01b03161491508115610d84576001600160a01b03861660009081526004602052604090205460ff1680610d8057506001600160a01b03851660009081526004602052604090205460ff165b1591505b8115610dfb576000915081610da56002610d9f8760646111bc565b906111c8565b9050610db185826111d4565b30600090815260026020526040902054909250610dce9082610fe4565b306000908152600260205260408120919091556007805460019290610df4908490611ab4565b9091555050505b6001600160a01b038516600090815260026020526040902054610e1e9082610fe4565b6001600160a01b0380871660008181526002602052604090819020939093559151908816907fddf252ad1be2c89b69c2b068fc378daa952ba7f163c4a11628f55a4df523b3ef90610e729085815260200190565b60405180910390a3505050505050565b60008184841115610ea65760405162461bcd60e51b815260040161077f91906118f5565b505050900390565b610eb88282610802565b61079257610ed0816001600160a01b031660146111e0565b610edb8360206111e0565b604051602001610eec929190611acc565b60408051601f198184030181529082905262461bcd60e51b825261077f916004016118f5565b610f1c8282610802565b6107925760008281526001602081815260408084206001600160a01b0386168086529252808420805460ff19169093179092559051339285917f2f8788117e7eff1d82e926ec794901d17c78024a50270940304540a733656f0d9190a45050565b610f878282610802565b156107925760008281526001602090815260408083206001600160a01b0385168085529252808320805460ff1916905551339285917ff6391f5c32d9c69d2a47ea670b442974b53935d1edc7fd64eb21e047a839171b9190a45050565b6000610ff08284611ab4565b9392505050565b600080546001600160a01b038381166001600160a01b0319831681178455604051919092169283917f8be0079c531659141344cd1fd0a4f28419497f9722a3daafe3b4186f6b6457e09190a35050565b60006110548260026111bc565b9050476110608261137c565b600061106c47836111d4565b905080156111b6576040516370a0823160e01b81523060048201526000907f00000000000000000000000000000000000000000000000000000000000000006001600160a01b0316906370a0823190602401602060405180830381865afa1580156110db573d6000803e3d6000fd5b505050506040513d601f19601f820116820180604052508101906110ff9190611b41565b905061110a84611534565b6040516370a0823160e01b81523060048201526000906111a19083906001600160a01b037f000000000000000000000000000000000000000000000000000000000000000016906370a0823190602401602060405180830381865afa158015611177573d6000803e3d6000fd5b505050506040513d601f19601f8201168201806040525081019061119b9190611b41565b906111d4565b905080156111b3576111b38184611714565b50505b50505050565b6000610ff08284611b5a565b6000610ff08284611b7c565b6000610ff08284611b9b565b606060006111ef836002611b7c565b6111fa906002611ab4565b67ffffffffffffffff81111561121257611212611bb2565b6040519080825280601f01601f19166020018201604052801561123c576020820181803683370190505b509050600360fc1b8160008151811061125757611257611bc8565b60200101906001600160f81b031916908160001a905350600f60fb1b8160018151811061128657611286611bc8565b60200101906001600160f81b031916908160001a90535060006112aa846002611b7c565b6112b5906001611ab4565b90505b600181111561132d576f181899199a1a9b1b9c1cb0b131b232b360811b85600f16601081106112e9576112e9611bc8565b1a60f81b8282815181106112ff576112ff611bc8565b60200101906001600160f81b031916908160001a90535060049490941c9361132681611bde565b90506112b8565b508315610ff05760405162461bcd60e51b815260206004820181905260248201527f537472696e67733a20686578206c656e67746820696e73756666696369656e74604482015260640161077f565b60408051600280825260608201835260009260208301908036833701905050905030816000815181106113b1576113b1611bc8565b60200260200101906001600160a01b031690816001600160a01b0316815250507f00000000000000000000000000000000000000000000000000000000000000006001600160a01b03166373b295c26040518163ffffffff1660e01b8152600401602060405180830381865afa15801561142f573d6000803e3d6000fd5b505050506040513d601f19601f820116820180604052508101906114539190611bf5565b8160018151811061146657611466611bc8565b60200260200101906001600160a01b031690816001600160a01b0316815250506114b1307f0000000000000000000000000000000000000000000000000000000000000000846109bc565b604051633b158ab160e11b81526001600160a01b037f0000000000000000000000000000000000000000000000000000000000000000169063762b156290611506908590600090869030904290600401611c12565b600060405180830381600087803b15801561152057600080fd5b505af11580156111b3573d6000803e3d6000fd5b6040805160038082526080820190925260009160208201606080368337019050509050308160008151811061156b5761156b611bc8565b60200260200101906001600160a01b031690816001600160a01b0316815250507f00000000000000000000000000000000000000000000000000000000000000006001600160a01b03166373b295c26040518163ffffffff1660e01b8152600401602060405180830381865afa1580156115e9573d6000803e3d6000fd5b505050506040513d601f19601f8201168201806040525081019061160d9190611bf5565b8160018151811061162057611620611bc8565b60200260200101906001600160a01b031690816001600160a01b0316815250507f00000000000000000000000000000000000000000000000000000000000000008160028151811061167457611674611bc8565b60200260200101906001600160a01b031690816001600160a01b0316815250506116bf307f0000000000000000000000000000000000000000000000000000000000000000846109bc565b604051635c11d79560e01b81526001600160a01b037f00000000000000000000000000000000000000000000000000000000000000001690635c11d79590611506908590600090869030904290600401611c12565b60405163095ea7b360e01b81526001600160a01b037f000000000000000000000000000000000000000000000000000000000000000081166004830152602482018490527f0000000000000000000000000000000000000000000000000000000000000000169063095ea7b3906044016020604051808303816000875af11580156117a3573d6000803e3d6000fd5b505050506040513d601f19601f820116820180604052508101906117c79190611c83565b50604051637c8d9fb960e11b81526001600160a01b037f000000000000000000000000000000000000000000000000000000000000000081166004830152602482018490526000604483018190526064830181905260848301524260a48301527f0000000000000000000000000000000000000000000000000000000000000000169063f91b3f7290839060c40160606040518083038185885af1158015611873573d6000803e3d6000fd5b50505050506040513d601f19601f820116820180604052508101906118989190611ca0565b5050505050565b6000602082840312156118b157600080fd5b81356001600160e01b031981168114610ff057600080fd5b60005b838110156118e45781810151838201526020016118cc565b838111156111b65750506000910152565b60208152600082518060208401526119148160408501602087016118c9565b601f01601f19169190910160400192915050565b6001600160a01b03811681146109b957600080fd5b6000806040838503121561195057600080fd5b823561195b81611928565b946020939093013593505050565b60008060006060848603121561197e57600080fd5b833561198981611928565b9250602084013561199981611928565b929592945050506040919091013590565b6000602082840312156119bc57600080fd5b5035919050565b600080604083850312156119d657600080fd5b8235915060208301356119e881611928565b809150509250929050565b600060208284031215611a0557600080fd5b8135610ff081611928565b80151581146109b957600080fd5b600060208284031215611a3057600080fd5b8135610ff081611a10565b60008060408385031215611a4e57600080fd5b8235611a5981611928565b915060208301356119e881611928565b6020808252818101527f4f776e61626c653a2063616c6c6572206973206e6f7420746865206f776e6572604082015260600190565b634e487b7160e01b600052601160045260246000fd5b60008219821115611ac757611ac7611a9e565b500190565b7f416363657373436f6e74726f6c3a206163636f756e7420000000000000000000815260008351611b048160178501602088016118c9565b7001034b99036b4b9b9b4b733903937b6329607d1b6017918401918201528351611b358160288401602088016118c9565b01602801949350505050565b600060208284031215611b5357600080fd5b5051919050565b600082611b7757634e487b7160e01b600052601260045260246000fd5b500490565b6000816000190483118215151615611b9657611b96611a9e565b500290565b600082821015611bad57611bad611a9e565b500390565b634e487b7160e01b600052604160045260246000fd5b634e487b7160e01b600052603260045260246000fd5b600081611bed57611bed611a9e565b506000190190565b600060208284031215611c0757600080fd5b8151610ff081611928565b600060a082018783526020878185015260a0604085015281875180845260c086019150828901935060005b81811015611c625784516001600160a01b031683529383019391830191600101611c3d565b50506001600160a01b03969096166060850152505050608001529392505050565b600060208284031215611c9557600080fd5b8151610ff081611a10565b600080600060608486031215611cb557600080fd5b835192506020840151915060408401519050925092509256fe45524332303a207472616e7366657220616d6f756e7420657863656564732062616c616e636545524332303a207472616e7366657220616d6f756e74206578636565647320616c6c6f77616e636545524332303a2064656372656173656420616c6c6f77616e63652062656c6f77207a65726fa2646970667358221220f7c045c6e38b93f13da55a84177666e2911b6e10bc34e787fd272e31357e325864736f6c634300080c0033",
  "linkReferences": {},
  "deployedLinkReferences": {}
}