{
  "_format": "hh-sol-artifact-1",
  "contractName": "Bobtail",
  "sourceName": "contracts/Bobtail.sol",
  "abi": [
    {
      "inputs": [
        {
          "internalType": "address",
          "name": "_router",
          "type": "address"
        },
        {
          "internalType": "address",
          "name": "_bbone",
          "type": "address"
        }
      ],
      "stateMutability": "nonpayable",
      "type": "constructor"
    },
    {
      "anonymous": false,
      "inputs": [
        {
          "indexed": true,
          "internalType": "address",
          "name": "owner",
          "type": "address"
        },
        {
          "indexed": true,
          "internalType": "address",
          "name": "spender",
          "type": "address"
        },
        {
          "indexed": false,
          "internalType": "uint256",
          "name": "value",
          "type": "uint256"
        }
      ],
      "name": "Approval",
      "type": "event"
    },
    {
      "anonymous": false,
      "inputs": [
        {
          "indexed": true,
          "internalType": "address",
          "name": "delegator",
          "type": "address"
        },
        {
          "indexed": true,
          "internalType": "address",
          "name": "fromDelegate",
          "type": "address"
        },
        {
          "indexed": true,
          "internalType": "address",
          "name": "toDelegate",
          "type": "address"
        }
      ],
      "name": "DelegateChanged",
      "type": "event"
    },
    {
      "anonymous": false,
      "inputs": [
        {
          "indexed": true,
          "internalType": "address",
          "name": "delegate",
          "type": "address"
        },
        {
          "indexed": false,
          "internalType": "uint256",
          "name": "previousBalance",
          "type": "uint256"
        },
        {
          "indexed": false,
          "internalType": "uint256",
          "name": "newBalance",
          "type": "uint256"
        }
      ],
      "name": "DelegateVotesChanged",
      "type": "event"
    },
    {
      "anonymous": false,
      "inputs": [
        {
          "indexed": false,
          "internalType": "uint32",
          "name": "feePercentage",
          "type": "uint32"
        }
      ],
      "name": "FeePercentageUpdated",
      "type": "event"
    },
    {
      "anonymous": false,
      "inputs": [
        {
          "indexed": false,
          "internalType": "address",
          "name": "pair",
          "type": "address"
        },
        {
          "indexed": false,
          "internalType": "bool",
          "name": "enabled",
          "type": "bool"
        }
      ],
      "name": "LpPairsUpdated",
      "type": "event"
    },
    {
      "anonymous": false,
      "inputs": [
        {
          "indexed": false,
          "internalType": "uint128",
          "name": "minTokensBeforeSwap",
          "type": "uint128"
        }
      ],
      "name": "MinTokensBeforeSwapUpdated",
      "type": "event"
    },
    {
      "anonymous": false,
      "inputs": [
        {
          "indexed": true,
          "internalType": "address",
          "name": "previousOwner",
          "type": "address"
        },
        {
          "indexed": true,
          "internalType": "address",
          "name": "newOwner",
          "type": "address"
        }
      ],
      "name": "OwnershipTransferred",
      "type": "event"
    },
    {
      "anonymous": false,
      "inputs": [
        {
          "indexed": false,
          "internalType": "uint256",
          "name": "tokensSwapped",
          "type": "uint256"
        },
        {
          "indexed": false,
          "internalType": "uint256",
          "name": "ethReceived",
          "type": "uint256"
        },
        {
          "indexed": false,
          "internalType": "uint256",
          "name": "tokensIntoLiqudity",
          "type": "uint256"
        }
      ],
      "name": "SwapAndLiquify",
      "type": "event"
    },
    {
      "anonymous": false,
      "inputs": [
        {
          "indexed": false,
          "internalType": "bool",
          "name": "enabled",
          "type": "bool"
        }
      ],
      "name": "SwapAndLiquifyEnabledUpdated",
      "type": "event"
    },
    {
      "anonymous": false,
      "inputs": [
        {
          "indexed": true,
          "internalType": "address",
          "name": "from",
          "type": "address"
        },
        {
          "indexed": true,
          "internalType": "address",
          "name": "to",
          "type": "address"
        },
        {
          "indexed": false,
          "internalType": "uint256",
          "name": "value",
          "type": "uint256"
        }
      ],
      "name": "Transfer",
      "type": "event"
    },
    {
      "anonymous": false,
      "inputs": [
        {
          "indexed": true,
          "internalType": "address",
          "name": "owner",
          "type": "address"
        },
        {
          "indexed": false,
          "internalType": "uint256",
          "name": "balance",
          "type": "uint256"
        }
      ],
      "name": "UpdateTimeShare",
      "type": "event"
    },
    {
      "inputs": [],
      "name": "DOMAIN_SEPARATOR",
      "outputs": [
        {
          "internalType": "bytes32",
          "name": "",
          "type": "bytes32"
        }
      ],
      "stateMutability": "view",
      "type": "function"
    },
    {
      "inputs": [
        {
          "internalType": "address",
          "name": "owner",
          "type": "address"
        },
        {
          "internalType": "address",
          "name": "spender",
          "type": "address"
        }
      ],
      "name": "allowance",
      "outputs": [
        {
          "internalType": "uint256",
          "name": "",
          "type": "uint256"
        }
      ],
      "stateMutability": "view",
      "type": "function"
    },
    {
      "inputs": [
        {
          "internalType": "address",
          "name": "spender",
          "type": "address"
        },
        {
          "internalType": "uint256",
          "name": "amount",
          "type": "uint256"
        }
      ],
      "name": "approve",
      "outputs": [
        {
          "internalType": "bool",
          "name": "",
          "type": "bool"
        }
      ],
      "stateMutability": "nonpayable",
      "type": "function"
    },
    {
      "inputs": [
        {
          "internalType": "address",
          "name": "account",
          "type": "address"
        }
      ],
      "name": "balanceOf",
      "outputs": [
        {
          "internalType": "uint256",
          "name": "",
          "type": "uint256"
        }
      ],
      "stateMutability": "view",
      "type": "function"
    },
    {
      "inputs": [
        {
          "internalType": "address",
          "name": "account",
          "type": "address"
        },
        {
          "internalType": "uint32",
          "name": "pos",
          "type": "uint32"
        }
      ],
      "name": "checkpoints",
      "outputs": [
        {
          "components": [
            {
              "internalType": "uint32",
              "name": "fromBlock",
              "type": "uint32"
            },
            {
              "internalType": "uint224",
              "name": "votes",
              "type": "uint224"
            }
          ],
          "internalType": "struct ERC20Votes.Checkpoint",
          "name": "",
          "type": "tuple"
        }
      ],
      "stateMutability": "view",
      "type": "function"
    },
    {
      "inputs": [],
      "name": "decimals",
      "outputs": [
        {
          "internalType": "uint8",
          "name": "",
          "type": "uint8"
        }
      ],
      "stateMutability": "view",
      "type": "function"
    },
    {
      "inputs": [
        {
          "internalType": "address",
          "name": "spender",
          "type": "address"
        },
        {
          "internalType": "uint256",
          "name": "subtractedValue",
          "type": "uint256"
        }
      ],
      "name": "decreaseAllowance",
      "outputs": [
        {
          "internalType": "bool",
          "name": "",
          "type": "bool"
        }
      ],
      "stateMutability": "nonpayable",
      "type": "function"
    },
    {
      "inputs": [
        {
          "internalType": "address",
          "name": "delegatee",
          "type": "address"
        }
      ],
      "name": "delegate",
      "outputs": [],
      "stateMutability": "nonpayable",
      "type": "function"
    },
    {
      "inputs": [
        {
          "internalType": "address",
          "name": "delegatee",
          "type": "address"
        },
        {
          "internalType": "uint256",
          "name": "nonce",
          "type": "uint256"
        },
        {
          "internalType": "uint256",
          "name": "expiry",
          "type": "uint256"
        },
        {
          "internalType": "uint8",
          "name": "v",
          "type": "uint8"
        },
        {
          "internalType": "bytes32",
          "name": "r",
          "type": "bytes32"
        },
        {
          "internalType": "bytes32",
          "name": "s",
          "type": "bytes32"
        }
      ],
      "name": "delegateBySig",
      "outputs": [],
      "stateMutability": "nonpayable",
      "type": "function"
    },
    {
      "inputs": [
        {
          "internalType": "address",
          "name": "account",
          "type": "address"
        }
      ],
      "name": "delegates",
      "outputs": [
        {
          "internalType": "address",
          "name": "",
          "type": "address"
        }
      ],
      "stateMutability": "view",
      "type": "function"
    },
    {
      "inputs": [],
      "name": "feePercentage",
      "outputs": [
        {
          "internalType": "uint32",
          "name": "",
          "type": "uint32"
        }
      ],
      "stateMutability": "view",
      "type": "function"
    },
    {
      "inputs": [
        {
          "internalType": "uint256",
          "name": "blockNumber",
          "type": "uint256"
        }
      ],
      "name": "getPastTotalSupply",
      "outputs": [
        {
          "internalType": "uint256",
          "name": "",
          "type": "uint256"
        }
      ],
      "stateMutability": "view",
      "type": "function"
    },
    {
      "inputs": [
        {
          "internalType": "address",
          "name": "account",
          "type": "address"
        },
        {
          "internalType": "uint256",
          "name": "blockNumber",
          "type": "uint256"
        }
      ],
      "name": "getPastVotes",
      "outputs": [
        {
          "internalType": "uint256",
          "name": "",
          "type": "uint256"
        }
      ],
      "stateMutability": "view",
      "type": "function"
    },
    {
      "inputs": [
        {
          "internalType": "address",
          "name": "account",
          "type": "address"
        }
      ],
      "name": "getVotes",
      "outputs": [
        {
          "internalType": "uint256",
          "name": "",
          "type": "uint256"
        }
      ],
      "stateMutability": "view",
      "type": "function"
    },
    {
      "inputs": [
        {
          "internalType": "address",
          "name": "spender",
          "type": "address"
        },
        {
          "internalType": "uint256",
          "name": "addedValue",
          "type": "uint256"
        }
      ],
      "name": "increaseAllowance",
      "outputs": [
        {
          "internalType": "bool",
          "name": "",
          "type": "bool"
        }
      ],
      "stateMutability": "nonpayable",
      "type": "function"
    },
    {
      "inputs": [],
      "name": "joePair",
      "outputs": [
        {
          "internalType": "address",
          "name": "",
          "type": "address"
        }
      ],
      "stateMutability": "view",
      "type": "function"
    },
    {
      "inputs": [],
      "name": "minTokensBeforeSwap",
      "outputs": [
        {
          "internalType": "uint128",
          "name": "",
          "type": "uint128"
        }
      ],
      "stateMutability": "view",
      "type": "function"
    },
    {
      "inputs": [],
      "name": "name",
      "outputs": [
        {
          "internalType": "string",
          "name": "",
          "type": "string"
        }
      ],
      "stateMutability": "view",
      "type": "function"
    },
    {
      "inputs": [
        {
          "internalType": "address",
          "name": "owner",
          "type": "address"
        }
      ],
      "name": "nonces",
      "outputs": [
        {
          "internalType": "uint256",
          "name": "",
          "type": "uint256"
        }
      ],
      "stateMutability": "view",
      "type": "function"
    },
    {
      "inputs": [
        {
          "internalType": "address",
          "name": "account",
          "type": "address"
        }
      ],
      "name": "numCheckpoints",
      "outputs": [
        {
          "internalType": "uint32",
          "name": "",
          "type": "uint32"
        }
      ],
      "stateMutability": "view",
      "type": "function"
    },
    {
      "inputs": [],
      "name": "owner",
      "outputs": [
        {
          "internalType": "address",
          "name": "",
          "type": "address"
        }
      ],
      "stateMutability": "view",
      "type": "function"
    },
    {
      "inputs": [
        {
          "internalType": "address",
          "name": "owner",
          "type": "address"
        },
        {
          "internalType": "address",
          "name": "spender",
          "type": "address"
        },
        {
          "internalType": "uint256",
          "name": "value",
          "type": "uint256"
        },
        {
          "internalType": "uint256",
          "name": "deadline",
          "type": "uint256"
        },
        {
          "internalType": "uint8",
          "name": "v",
          "type": "uint8"
        },
        {
          "internalType": "bytes32",
          "name": "r",
          "type": "bytes32"
        },
        {
          "internalType": "bytes32",
          "name": "s",
          "type": "bytes32"
        }
      ],
      "name": "permit",
      "outputs": [],
      "stateMutability": "nonpayable",
      "type": "function"
    },
    {
      "inputs": [],
      "name": "renounceOwnership",
      "outputs": [],
      "stateMutability": "nonpayable",
      "type": "function"
    },
    {
      "inputs": [
        {
          "internalType": "uint32",
          "name": "_feePercentage",
          "type": "uint32"
        }
      ],
      "name": "setFee",
      "outputs": [],
      "stateMutability": "nonpayable",
      "type": "function"
    },
    {
      "inputs": [
        {
          "internalType": "address",
          "name": "_pair",
          "type": "address"
        },
        {
          "internalType": "bool",
          "name": "_enabled",
          "type": "bool"
        }
      ],
      "name": "setLpPair",
      "outputs": [],
      "stateMutability": "nonpayable",
      "type": "function"
    },
    {
      "inputs": [
        {
          "internalType": "uint32",
          "name": "_minTokensBeforeSwap",
          "type": "uint32"
        }
      ],
      "name": "setMinTokensBeforeSwap",
      "outputs": [],
      "stateMutability": "nonpayable",
      "type": "function"
    },
    {
      "inputs": [
        {
          "internalType": "bool",
          "name": "_enabled",
          "type": "bool"
        }
      ],
      "name": "setSwapAndLiquifyEnabled",
      "outputs": [],
      "stateMutability": "nonpayable",
      "type": "function"
    },
    {
      "inputs": [],
      "name": "swapAndLiquifyEnabled",
      "outputs": [
        {
          "internalType": "bool",
          "name": "",
          "type": "bool"
        }
      ],
      "stateMutability": "view",
      "type": "function"
    },
    {
      "inputs": [],
      "name": "symbol",
      "outputs": [
        {
          "internalType": "string",
          "name": "",
          "type": "string"
        }
      ],
      "stateMutability": "view",
      "type": "function"
    },
    {
      "inputs": [
        {
          "internalType": "address",
          "name": "_address",
          "type": "address"
        }
      ],
      "name": "timeShareBalanceOf",
      "outputs": [
        {
          "internalType": "uint256",
          "name": "holdingDuration",
          "type": "uint256"
        }
      ],
      "stateMutability": "view",
      "type": "function"
    },
    {
      "inputs": [
        {
          "internalType": "address",
          "name": "",
          "type": "address"
        }
      ],
      "name": "timeShares",
      "outputs": [
        {
          "internalType": "uint256",
          "name": "lastBlockTimestamp",
          "type": "uint256"
        },
        {
          "internalType": "uint256",
          "name": "lastBalance",
          "type": "uint256"
        }
      ],
      "stateMutability": "view",
      "type": "function"
    },
    {
      "inputs": [],
      "name": "totalSupply",
      "outputs": [
        {
          "internalType": "uint256",
          "name": "",
          "type": "uint256"
        }
      ],
      "stateMutability": "view",
      "type": "function"
    },
    {
      "inputs": [
        {
          "internalType": "address",
          "name": "to",
          "type": "address"
        },
        {
          "internalType": "uint256",
          "name": "amount",
          "type": "uint256"
        }
      ],
      "name": "transfer",
      "outputs": [
        {
          "internalType": "bool",
          "name": "",
          "type": "bool"
        }
      ],
      "stateMutability": "nonpayable",
      "type": "function"
    },
    {
      "inputs": [
        {
          "internalType": "address",
          "name": "from",
          "type": "address"
        },
        {
          "internalType": "address",
          "name": "to",
          "type": "address"
        },
        {
          "internalType": "uint256",
          "name": "amount",
          "type": "uint256"
        }
      ],
      "name": "transferFrom",
      "outputs": [
        {
          "internalType": "bool",
          "name": "",
          "type": "bool"
        }
      ],
      "stateMutability": "nonpayable",
      "type": "function"
    },
    {
      "inputs": [
        {
          "internalType": "address",
          "name": "newOwner",
          "type": "address"
        }
      ],
      "name": "transferOwnership",
      "outputs": [],
      "stateMutability": "nonpayable",
      "type": "function"
    },
    {
      "stateMutability": "payable",
      "type": "receive"
    }
  ],
  "bytecode": "0x6101c06040527f6e71edae12b1b97f4d1f60370fef10105fa2faae0126114a169c64845d6126c9610140526009805463ffffffff60a01b1916600160a11b179055600a80546001600160801b031916811790553480156200005f57600080fd5b50604051620037fd380380620037fd833981016040819052620000829162000a99565b6040518060400160405280600d81526020016c426f627461696c2e67616d657360981b81525080604051806040016040528060018152602001603160f81b8152506040518060400160405280600d81526020016c426f627461696c2e67616d657360981b815250604051806040016040528060078152602001661093d09510525360ca1b815250816003908051906020019062000121929190620009e0565b50805162000137906004906020840190620009e0565b5050825160209384012082519284019290922060e08390526101008190524660a0818152604080517f8b73c3c69bb8fe3d512ecc4cf759cc79239f7b179b0ffacaa9a75d522b39400f818901819052818301979097526060810194909452608080850193909352308483018190528151808603909301835260c0948501909152815191909601209052929092526101205250620001d69050336200038e565b620001ff33620001e96012600a62000be4565b620001f990633b9aca0062000bf5565b620003e0565b6000829050806001600160a01b031663c45a01556040518163ffffffff1660e01b8152600401602060405180830381865afa15801562000243573d6000803e3d6000fd5b505050506040513d601f19601f8201168201806040525081019062000269919062000c17565b6001600160a01b031663c9c6539630836001600160a01b03166373b295c26040518163ffffffff1660e01b8152600401602060405180830381865afa158015620002b7573d6000803e3d6000fd5b505050506040513d601f19601f82011682018060405250810190620002dd919062000c17565b6040516001600160e01b031960e085901b1681526001600160a01b039283166004820152911660248201526044016020604051808303816000875af11580156200032b573d6000803e3d6000fd5b505050506040513d601f19601f8201168201806040525081019062000351919062000c17565b6001600160a01b039081166101a08190526000908152600b60205260409020805460ff191660011790559081166101605216610180525062000cbd565b600980546001600160a01b038381166001600160a01b0319831681179093556040519116919082907f8be0079c531659141344cd1fd0a4f28419497f9722a3daafe3b4186f6b6457e090600090a35050565b620003f78282620003fb60201b620012171760201c565b5050565b620004128282620004b260201b620012a71760201c565b6001600160e01b0362000426620005a18216565b1115620004935760405162461bcd60e51b815260206004820152603060248201527f4552433230566f7465733a20746f74616c20737570706c79207269736b73206f60448201526f766572666c6f77696e6720766f74657360801b60648201526084015b60405180910390fd5b620004ac600862001392620005a760201b1783620005be565b50505050565b6001600160a01b0382166200050a5760405162461bcd60e51b815260206004820152601f60248201527f45524332303a206d696e7420746f20746865207a65726f20616464726573730060448201526064016200048a565b80600260008282546200051e919062000c35565b90915550506001600160a01b038216600090815260208190526040812080548392906200054d90849062000c35565b90915550506040518181526001600160a01b038316906000907fddf252ad1be2c89b69c2b068fc378daa952ba7f163c4a11628f55a4df523b3ef9060200160405180910390a3620003f76000838362000775565b60025490565b6000620005b5828462000c35565b90505b92915050565b825460009081908015620006105785620005da60018362000c50565b81548110620005ed57620005ed62000c6a565b60009182526020909120015464010000000090046001600160e01b031662000613565b60005b6001600160e01b031692506200062a83858760201c565b91506000811180156200066e575043866200064760018462000c50565b815481106200065a576200065a62000c6a565b60009182526020909120015463ffffffff16145b15620006e2576200068a826200078d60201b6200139e1760201c565b866200069860018462000c50565b81548110620006ab57620006ab62000c6a565b9060005260206000200160000160046101000a8154816001600160e01b0302191690836001600160e01b0316021790555062000767565b8560405180604001604052806200070443620007fc60201b6200140b1760201c565b63ffffffff16815260200162000725856200078d60201b6200139e1760201c565b6001600160e01b0390811690915282546001810184556000938452602093849020835194909301519091166401000000000263ffffffff909316929092179101555b50935093915050565b505050565b620007708383836200086360201b620014701760201c565b60006001600160e01b03821115620007f85760405162461bcd60e51b815260206004820152602760248201527f53616665436173743a2076616c756520646f65736e27742066697420696e20326044820152663234206269747360c81b60648201526084016200048a565b5090565b600063ffffffff821115620007f85760405162461bcd60e51b815260206004820152602660248201527f53616665436173743a2076616c756520646f65736e27742066697420696e203360448201526532206269747360d01b60648201526084016200048a565b6200087b8383836200077060201b620014a21760201c565b6001600160a01b038381166000908152600660205260408082205485841683529120546200077092918216911683818314801590620008ba5750600081115b1562000770576001600160a01b0383161562000947576001600160a01b038316600090815260076020908152604082208291620009049190620009d2901b620014a71785620005be565b91509150846001600160a01b0316600080516020620037dd83398151915283836040516200093c929190918252602082015260400190565b60405180910390a250505b6001600160a01b0382161562000770576001600160a01b0382166000908152600760209081526040822082916200098b9190620005a7901b620013921785620005be565b91509150836001600160a01b0316600080516020620037dd8339815191528383604051620009c3929190918252602082015260400190565b60405180910390a25050505050565b6000620005b5828462000c50565b828054620009ee9062000c80565b90600052602060002090601f01602090048101928262000a12576000855562000a5d565b82601f1062000a2d57805160ff191683800117855562000a5d565b8280016001018555821562000a5d579182015b8281111562000a5d57825182559160200191906001019062000a40565b50620007f89291505b80821115620007f8576000815560010162000a66565b80516001600160a01b038116811462000a9457600080fd5b919050565b6000806040838503121562000aad57600080fd5b62000ab88362000a7c565b915062000ac86020840162000a7c565b90509250929050565b634e487b7160e01b600052601160045260246000fd5b600181815b8085111562000b2857816000190482111562000b0c5762000b0c62000ad1565b8085161562000b1a57918102915b93841c939080029062000aec565b509250929050565b60008262000b4157506001620005b8565b8162000b5057506000620005b8565b816001811462000b69576002811462000b745762000b94565b6001915050620005b8565b60ff84111562000b885762000b8862000ad1565b50506001821b620005b8565b5060208310610133831016604e8410600b841016171562000bb9575081810a620005b8565b62000bc5838362000ae7565b806000190482111562000bdc5762000bdc62000ad1565b029392505050565b6000620005b560ff84168362000b30565b600081600019048311821515161562000c125762000c1262000ad1565b500290565b60006020828403121562000c2a57600080fd5b620005b58262000a7c565b6000821982111562000c4b5762000c4b62000ad1565b500190565b60008282101562000c655762000c6562000ad1565b500390565b634e487b7160e01b600052603260045260246000fd5b600181811c9082168062000c9557607f821691505b6020821081141562000cb757634e487b7160e01b600052602260045260246000fd5b50919050565b60805160a05160c05160e05161010051610120516101405161016051610180516101a051612a8162000d5c6000396000610472015260008181611dae01528181611de801528181611e280152612530015260008181612407015281816124c001526124fc01526000610feb01526000611813015260006118620152600061183d01526000611796015260006117c0015260006117ea0152612a816000f3fe6080604052600436106102085760003560e01c806370a0823111610118578063a457c2d7116100a0578063d505accf1161006f578063d505accf1461066b578063dd62ed3e1461068b578063e5d41c6b146106d1578063f1127ed814610709578063f2fde38b1461075357600080fd5b8063a457c2d7146105eb578063a9059cbb1461060b578063c3cda5201461062b578063c49b9a801461064b57600080fd5b80638da5cb5b116100e75780638da5cb5b146105545780638e539e8c1461057257806395d89b41146105925780639ab24eb0146105a7578063a001ecdd146105c757600080fd5b806370a08231146104c9578063715018a6146104ff5780637ecebe001461051457806380c581d11461053457600080fd5b80633644e5151161019b578063587cde1e1161016a578063587cde1e146103a65780635c19a95c146103f75780636b10462e146104175780636bca89cb146104605780636fcfff451461049457600080fd5b80633644e5151461033057806339509351146103455780633a46b1a8146103655780634a74bb021461038557600080fd5b80631ab971ab116101d75780631ab971ab146102b257806323b872dd146102d4578063313ce567146102f457806335dd03a21461031057600080fd5b806306fdde0314610214578063095ea7b31461023f5780630f1eb29f1461026f57806318160ddd1461029d57600080fd5b3661020f57005b600080fd5b34801561022057600080fd5b50610229610773565b6040516102369190612590565b60405180910390f35b34801561024b57600080fd5b5061025f61025a3660046125fa565b610805565b6040519015158152602001610236565b34801561027b57600080fd5b5061028f61028a366004612626565b61081d565b604051908152602001610236565b3480156102a957600080fd5b5060025461028f565b3480156102be57600080fd5b506102d26102cd36600461265c565b6108e2565b005b3480156102e057600080fd5b5061025f6102ef366004612677565b6109d8565b34801561030057600080fd5b5060405160128152602001610236565b34801561031c57600080fd5b506102d261032b36600461265c565b6109fc565b34801561033c57600080fd5b5061028f610a7a565b34801561035157600080fd5b5061025f6103603660046125fa565b610a89565b34801561037157600080fd5b5061028f6103803660046125fa565b610ac8565b34801561039157600080fd5b50600a5461025f90600160801b900460ff1681565b3480156103b257600080fd5b506103df6103c1366004612626565b6001600160a01b039081166000908152600660205260409020541690565b6040516001600160a01b039091168152602001610236565b34801561040357600080fd5b506102d2610412366004612626565b610b42565b34801561042357600080fd5b5061044b610432366004612626565b600e602052600090815260409020805460019091015482565b60408051928352602083019190915201610236565b34801561046c57600080fd5b506103df7f000000000000000000000000000000000000000000000000000000000000000081565b3480156104a057600080fd5b506104b46104af366004612626565b610b4f565b60405163ffffffff9091168152602001610236565b3480156104d557600080fd5b5061028f6104e4366004612626565b6001600160a01b031660009081526020819052604090205490565b34801561050b57600080fd5b506102d2610b77565b34801561052057600080fd5b5061028f61052f366004612626565b610bad565b34801561054057600080fd5b506102d261054f3660046126c8565b610bcb565b34801561056057600080fd5b506009546001600160a01b03166103df565b34801561057e57600080fd5b5061028f61058d3660046126fd565b610c58565b34801561059e57600080fd5b50610229610cb4565b3480156105b357600080fd5b5061028f6105c2366004612626565b610cc3565b3480156105d357600080fd5b506009546104b490600160a01b900463ffffffff1681565b3480156105f757600080fd5b5061025f6106063660046125fa565b610d4a565b34801561061757600080fd5b5061025f6106263660046125fa565b610ddc565b34801561063757600080fd5b506102d2610646366004612727565b610dea565b34801561065757600080fd5b506102d2610666366004612781565b610f20565b34801561067757600080fd5b506102d261068636600461279c565b610f97565b34801561069757600080fd5b5061028f6106a636600461280a565b6001600160a01b03918216600090815260016020908152604080832093909416825291909152205490565b3480156106dd57600080fd5b50600a546106f1906001600160801b031681565b6040516001600160801b039091168152602001610236565b34801561071557600080fd5b50610729610724366004612843565b6110fb565b60408051825163ffffffff1681526020928301516001600160e01b03169281019290925201610236565b34801561075f57600080fd5b506102d261076e366004612626565b61117f565b6060600380546107829061286f565b80601f01602080910402602001604051908101604052809291908181526020018280546107ae9061286f565b80156107fb5780601f106107d0576101008083540402835291602001916107fb565b820191906000526020600020905b8154815290600101906020018083116107de57829003601f168201915b5050505050905090565b6000336108138185856114b3565b5060019392505050565b6001600160a01b0381166000908152600e6020908152604080832081518083019092528054808352600190910154928201929092529061085d90426128ba565b91506000610880846001600160a01b031660009081526020819052604090205490565b60025461088d91906128d1565b905060006108b0856001600160a01b031660009081526020819052604090205490565b6108ba90856128f3565b6108c69061016d6128f3565b6108d890670de0b6b3a76400006128f3565b9050505050919050565b6009546001600160a01b031633146109155760405162461bcd60e51b815260040161090c90612912565b60405180910390fd5b60008163ffffffff161180156109315750600a8163ffffffff16105b61097d5760405162461bcd60e51b815260206004820152601a60248201527f496e76616c6964206665653a206d696e203125206d6178203925000000000000604482015260640161090c565b6009805463ffffffff60a01b1916600160a01b63ffffffff8416908102919091179091556040519081527f290b00353812a22fc8b872010f1ea4d5332e9d942e31243ba7d1f8d40eb22e53906020015b60405180910390a150565b6000336109e68582856115d7565b6109f1858585611663565b506001949350505050565b6009546001600160a01b03163314610a265760405162461bcd60e51b815260040161090c90612912565b600a80546fffffffffffffffffffffffffffffffff191663ffffffff83169081179091556040519081527fb20e0f86438dbd4812cee7b24a6696d4dbaa9d3db89c677e731ab7dd738c8bbe906020016109cd565b6000610a84611789565b905090565b3360008181526001602090815260408083206001600160a01b03871684529091528120549091906108139082908690610ac3908790612947565b6114b3565b6000438210610b195760405162461bcd60e51b815260206004820152601f60248201527f4552433230566f7465733a20626c6f636b206e6f7420796574206d696e656400604482015260640161090c565b6001600160a01b0383166000908152600760205260409020610b3b90836118b0565b9392505050565b610b4c338261196d565b50565b6001600160a01b038116600090815260076020526040812054610b719061140b565b92915050565b6009546001600160a01b03163314610ba15760405162461bcd60e51b815260040161090c90612912565b610bab60006119e6565b565b6001600160a01b038116600090815260056020526040812054610b71565b6009546001600160a01b03163314610bf55760405162461bcd60e51b815260040161090c90612912565b6001600160a01b0382166000818152600b6020908152604091829020805460ff19168515159081179091558251938452908301527f9275848620775c1d80b27df21b269b20e3040d2fd33ebf6a514850b17fc94958910160405180910390a15050565b6000438210610ca95760405162461bcd60e51b815260206004820152601f60248201527f4552433230566f7465733a20626c6f636b206e6f7420796574206d696e656400604482015260640161090c565b610b716008836118b0565b6060600480546107829061286f565b6001600160a01b0381166000908152600760205260408120548015610d37576001600160a01b0383166000908152600760205260409020610d056001836128ba565b81548110610d1557610d1561295f565b60009182526020909120015464010000000090046001600160e01b0316610d3a565b60005b6001600160e01b03169392505050565b3360008181526001602090815260408083206001600160a01b038716845290915281205490919083811015610dcf5760405162461bcd60e51b815260206004820152602560248201527f45524332303a2064656372656173656420616c6c6f77616e63652062656c6f77604482015264207a65726f60d81b606482015260840161090c565b6109f182868684036114b3565b600033610813818585611663565b83421115610e3a5760405162461bcd60e51b815260206004820152601d60248201527f4552433230566f7465733a207369676e61747572652065787069726564000000604482015260640161090c565b604080517fe48329057bfd03d55e49b547132e39cffd9c1820ad7b9d4c5307691425d15adf60208201526001600160a01b038816918101919091526060810186905260808101859052600090610eb490610eac9060a00160405160208183030381529060405280519060200120611a38565b858585611a86565b9050610ebf81611aae565b8614610f0d5760405162461bcd60e51b815260206004820152601960248201527f4552433230566f7465733a20696e76616c6964206e6f6e636500000000000000604482015260640161090c565b610f17818861196d565b50505050505050565b6009546001600160a01b03163314610f4a5760405162461bcd60e51b815260040161090c90612912565b600a8054821515600160801b0260ff60801b199091161790556040517f53726dfcaf90650aa7eb35524f4d3220f07413c8d6cb404cc8c18bf5591bc159906109cd90831515815260200190565b83421115610fe75760405162461bcd60e51b815260206004820152601d60248201527f45524332305065726d69743a206578706972656420646561646c696e65000000604482015260640161090c565b60007f00000000000000000000000000000000000000000000000000000000000000008888886110168c611aae565b6040805160208101969096526001600160a01b0394851690860152929091166060840152608083015260a082015260c0810186905260e001604051602081830303815290604052805190602001209050600061107182611a38565b9050600061108182878787611a86565b9050896001600160a01b0316816001600160a01b0316146110e45760405162461bcd60e51b815260206004820152601e60248201527f45524332305065726d69743a20696e76616c6964207369676e61747572650000604482015260640161090c565b6110ef8a8a8a6114b3565b50505050505050505050565b60408051808201909152600080825260208201526001600160a01b0383166000908152600760205260409020805463ffffffff841690811061113f5761113f61295f565b60009182526020918290206040805180820190915291015463ffffffff8116825264010000000090046001600160e01b0316918101919091529392505050565b6009546001600160a01b031633146111a95760405162461bcd60e51b815260040161090c90612912565b6001600160a01b03811661120e5760405162461bcd60e51b815260206004820152602660248201527f4f776e61626c653a206e6577206f776e657220697320746865207a65726f206160448201526564647265737360d01b606482015260840161090c565b610b4c816119e6565b61122182826112a7565b6002546001600160e01b0310156112935760405162461bcd60e51b815260206004820152603060248201527f4552433230566f7465733a20746f74616c20737570706c79207269736b73206f60448201526f766572666c6f77696e6720766f74657360801b606482015260840161090c565b6112a1600861139283611ad6565b50505050565b6001600160a01b0382166112fd5760405162461bcd60e51b815260206004820152601f60248201527f45524332303a206d696e7420746f20746865207a65726f206164647265737300604482015260640161090c565b806002600082825461130f9190612947565b90915550506001600160a01b0382166000908152602081905260408120805483929061133c908490612947565b90915550506040518181526001600160a01b038316906000907fddf252ad1be2c89b69c2b068fc378daa952ba7f163c4a11628f55a4df523b3ef9060200160405180910390a361138e60008383611c4f565b5050565b6000610b3b8284612947565b60006001600160e01b038211156114075760405162461bcd60e51b815260206004820152602760248201527f53616665436173743a2076616c756520646f65736e27742066697420696e20326044820152663234206269747360c81b606482015260840161090c565b5090565b600063ffffffff8211156114075760405162461bcd60e51b815260206004820152602660248201527f53616665436173743a2076616c756520646f65736e27742066697420696e203360448201526532206269747360d01b606482015260840161090c565b6001600160a01b038381166000908152600660205260408082205485841683529120546114a292918216911683611c5a565b505050565b6000610b3b82846128ba565b6001600160a01b0383166115155760405162461bcd60e51b8152602060048201526024808201527f45524332303a20617070726f76652066726f6d20746865207a65726f206164646044820152637265737360e01b606482015260840161090c565b6001600160a01b0382166115765760405162461bcd60e51b815260206004820152602260248201527f45524332303a20617070726f766520746f20746865207a65726f206164647265604482015261737360f01b606482015260840161090c565b6001600160a01b0383811660008181526001602090815260408083209487168084529482529182902085905590518481527f8c5be1e5ebec7d5bd14f71427d1e84f3dd0314c0f7b2291e5b200ac8c7c3b925910160405180910390a3505050565b6001600160a01b0383811660009081526001602090815260408083209386168352929052205460001981146112a157818110156116565760405162461bcd60e51b815260206004820152601d60248201527f45524332303a20696e73756666696369656e7420616c6c6f77616e6365000000604482015260640161090c565b6112a184848484036114b3565b30600090815260208190526040902054600a546001600160801b0316811080159081906116935750600d5460ff16155b80156116af5750336000908152600b602052604090205460ff16155b80156116c45750600a54600160801b900460ff165b156116d2576116d282611d97565b336000908152600b602052604090205460ff1680156116fa5750600a54600160801b900460ff165b80156117095750600d5460ff16155b156117655760095460009060649061172e90600160a01b900463ffffffff16866128f3565b61173891906128d1565b9050600061174682866128ba565b9050611753873084611ea1565b61175e878783611ea1565b5050611770565b611770858585611ea1565b61177985612075565b61178284612075565b5050505050565b6000306001600160a01b037f0000000000000000000000000000000000000000000000000000000000000000161480156117e257507f000000000000000000000000000000000000000000000000000000000000000046145b1561180c57507f000000000000000000000000000000000000000000000000000000000000000090565b50604080517f00000000000000000000000000000000000000000000000000000000000000006020808301919091527f0000000000000000000000000000000000000000000000000000000000000000828401527f000000000000000000000000000000000000000000000000000000000000000060608301524660808301523060a0808401919091528351808403909101815260c0909201909252805191012090565b8154600090815b818110156119145760006118cb82846120ed565b9050848682815481106118e0576118e061295f565b60009182526020909120015463ffffffff1611156119005780925061190e565b61190b816001612947565b91505b506118b7565b811561195857846119266001846128ba565b815481106119365761193661295f565b60009182526020909120015464010000000090046001600160e01b031661195b565b60005b6001600160e01b031695945050505050565b6001600160a01b038281166000818152600660208181526040808420805485845282862054949093528787166001600160a01b03198416811790915590519190951694919391928592917f3134e8a2e6d97e929a7e54011ea5485d7d196dd5f0ba4d4ef95803e8e3fc257f9190a46112a1828483611c5a565b600980546001600160a01b038381166001600160a01b0319831681179093556040519116919082907f8be0079c531659141344cd1fd0a4f28419497f9722a3daafe3b4186f6b6457e090600090a35050565b6000610b71611a45611789565b8360405161190160f01b6020820152602281018390526042810182905260009060620160405160208183030381529060405280519060200120905092915050565b6000806000611a9787878787612108565b91509150611aa4816121f5565b5095945050505050565b6001600160a01b03811660009081526005602052604090208054600181018255905b50919050565b825460009081908015611b215785611aef6001836128ba565b81548110611aff57611aff61295f565b60009182526020909120015464010000000090046001600160e01b0316611b24565b60005b6001600160e01b03169250611b3d83858763ffffffff16565b9150600081118015611b7b57504386611b576001846128ba565b81548110611b6757611b6761295f565b60009182526020909120015463ffffffff16145b15611bdb57611b898261139e565b86611b956001846128ba565b81548110611ba557611ba561295f565b9060005260206000200160000160046101000a8154816001600160e01b0302191690836001600160e01b03160217905550611c46565b856040518060400160405280611bf04361140b565b63ffffffff168152602001611c048561139e565b6001600160e01b0390811690915282546001810184556000938452602093849020835194909301519091166401000000000263ffffffff909316929092179101555b50935093915050565b6114a2838383611470565b816001600160a01b0316836001600160a01b031614158015611c7c5750600081115b156114a2576001600160a01b03831615611d0a576001600160a01b03831660009081526007602052604081208190611cb7906114a785611ad6565b91509150846001600160a01b03167fdec2bacdd2f05b59de34da9b523dff8be42e5e38e818c82fdb0bae774387a7248383604051611cff929190918252602082015260400190565b60405180910390a250505b6001600160a01b038216156114a2576001600160a01b03821660009081526007602052604081208190611d409061139285611ad6565b91509150836001600160a01b03167fdec2bacdd2f05b59de34da9b523dff8be42e5e38e818c82fdb0bae774387a7248383604051611d88929190918252602082015260400190565b60405180910390a25050505050565b600d805460ff191660011790556001600160a01b037f00000000000000000000000000000000000000000000000000000000000000001631611dd8826123b0565b6000611e0e826001600160a01b037f000000000000000000000000000000000000000000000000000000000000000016316128ba565b604051635a95479b60e11b81529091506001600160a01b037f0000000000000000000000000000000000000000000000000000000000000000169063b52a8f3690611e6090849060009060040161298b565b600060405180830381600087803b158015611e7a57600080fd5b505af1158015611e8e573d6000803e3d6000fd5b5050600d805460ff191690555050505050565b6001600160a01b038316611f055760405162461bcd60e51b815260206004820152602560248201527f45524332303a207472616e736665722066726f6d20746865207a65726f206164604482015264647265737360d81b606482015260840161090c565b6001600160a01b038216611f675760405162461bcd60e51b815260206004820152602360248201527f45524332303a207472616e7366657220746f20746865207a65726f206164647260448201526265737360e81b606482015260840161090c565b6001600160a01b03831660009081526020819052604090205481811015611fdf5760405162461bcd60e51b815260206004820152602660248201527f45524332303a207472616e7366657220616d6f756e7420657863656564732062604482015265616c616e636560d01b606482015260840161090c565b6001600160a01b03808516600090815260208190526040808220858503905591851681529081208054849290612016908490612947565b92505081905550826001600160a01b0316846001600160a01b03167fddf252ad1be2c89b69c2b068fc378daa952ba7f163c4a11628f55a4df523b3ef8460405161206291815260200190565b60405180910390a36112a1848484611c4f565b6001600160a01b0381166000908152600e602052604090208054156120a35761209d8261081d565b60018201555b42815560018101546040519081526001600160a01b038316907f88eaa1421f2568c78c4294b0c12b979329916010a9ddabac3e2df1f4f7409f449060200160405180910390a25050565b60006120fc60028484186128d1565b610b3b90848416612947565b6000807f7fffffffffffffffffffffffffffffff5d576e7357a4501ddfe92f46681b20a083111561213f57506000905060036121ec565b8460ff16601b1415801561215757508460ff16601c14155b1561216857506000905060046121ec565b6040805160008082526020820180845289905260ff881692820192909252606081018690526080810185905260019060a0016020604051602081039080840390855afa1580156121bc573d6000803e3d6000fd5b5050604051601f1901519150506001600160a01b0381166121e5576000600192509250506121ec565b9150600090505b94509492505050565b600081600481111561220957612209612975565b14156122125750565b600181600481111561222657612226612975565b14156122745760405162461bcd60e51b815260206004820152601860248201527f45434453413a20696e76616c6964207369676e61747572650000000000000000604482015260640161090c565b600281600481111561228857612288612975565b14156122d65760405162461bcd60e51b815260206004820152601f60248201527f45434453413a20696e76616c6964207369676e6174757265206c656e67746800604482015260640161090c565b60038160048111156122ea576122ea612975565b14156123435760405162461bcd60e51b815260206004820152602260248201527f45434453413a20696e76616c6964207369676e6174757265202773272076616c604482015261756560f01b606482015260840161090c565b600481600481111561235757612357612975565b1415610b4c5760405162461bcd60e51b815260206004820152602260248201527f45434453413a20696e76616c6964207369676e6174757265202776272076616c604482015261756560f01b606482015260840161090c565b60408051600280825260608201835260009260208301908036833701905050905030816000815181106123e5576123e561295f565b60200260200101906001600160a01b031690816001600160a01b0316815250507f00000000000000000000000000000000000000000000000000000000000000006001600160a01b03166373b295c26040518163ffffffff1660e01b8152600401602060405180830381865afa158015612463573d6000803e3d6000fd5b505050506040513d601f19601f8201168201806040525081019061248791906129bd565b8160018151811061249a5761249a61295f565b60200260200101906001600160a01b031690816001600160a01b0316815250506124e5307f0000000000000000000000000000000000000000000000000000000000000000846114b3565b604051633b158ab160e11b81526001600160a01b037f0000000000000000000000000000000000000000000000000000000000000000169063762b15629061255a90859060009086907f00000000000000000000000000000000000000000000000000000000000000009042906004016129da565b600060405180830381600087803b15801561257457600080fd5b505af1158015612588573d6000803e3d6000fd5b505050505050565b600060208083528351808285015260005b818110156125bd578581018301518582016040015282016125a1565b818111156125cf576000604083870101525b50601f01601f1916929092016040019392505050565b6001600160a01b0381168114610b4c57600080fd5b6000806040838503121561260d57600080fd5b8235612618816125e5565b946020939093013593505050565b60006020828403121561263857600080fd5b8135610b3b816125e5565b803563ffffffff8116811461265757600080fd5b919050565b60006020828403121561266e57600080fd5b610b3b82612643565b60008060006060848603121561268c57600080fd5b8335612697816125e5565b925060208401356126a7816125e5565b929592945050506040919091013590565b8035801515811461265757600080fd5b600080604083850312156126db57600080fd5b82356126e6816125e5565b91506126f4602084016126b8565b90509250929050565b60006020828403121561270f57600080fd5b5035919050565b803560ff8116811461265757600080fd5b60008060008060008060c0878903121561274057600080fd5b863561274b816125e5565b9550602087013594506040870135935061276760608801612716565b92506080870135915060a087013590509295509295509295565b60006020828403121561279357600080fd5b610b3b826126b8565b600080600080600080600060e0888a0312156127b757600080fd5b87356127c2816125e5565b965060208801356127d2816125e5565b955060408801359450606088013593506127ee60808901612716565b925060a0880135915060c0880135905092959891949750929550565b6000806040838503121561281d57600080fd5b8235612828816125e5565b91506020830135612838816125e5565b809150509250929050565b6000806040838503121561285657600080fd5b8235612861816125e5565b91506126f460208401612643565b600181811c9082168061288357607f821691505b60208210811415611ad057634e487b7160e01b600052602260045260246000fd5b634e487b7160e01b600052601160045260246000fd5b6000828210156128cc576128cc6128a4565b500390565b6000826128ee57634e487b7160e01b600052601260045260246000fd5b500490565b600081600019048311821515161561290d5761290d6128a4565b500290565b6020808252818101527f4f776e61626c653a2063616c6c6572206973206e6f7420746865206f776e6572604082015260600190565b6000821982111561295a5761295a6128a4565b500190565b634e487b7160e01b600052603260045260246000fd5b634e487b7160e01b600052602160045260246000fd5b82815260408101600383106129b057634e487b7160e01b600052602160045260246000fd5b8260208301529392505050565b6000602082840312156129cf57600080fd5b8151610b3b816125e5565b600060a082018783526020878185015260a0604085015281875180845260c086019150828901935060005b81811015612a2a5784516001600160a01b031683529383019391830191600101612a05565b50506001600160a01b0396909616606085015250505060800152939250505056fea2646970667358221220e92f5fb6e413d74672b531ad18fffae3f5798fabf1da669ef8cf954c4a4d516364736f6c634300080c0033dec2bacdd2f05b59de34da9b523dff8be42e5e38e818c82fdb0bae774387a724",
  "linkReferences": {},
  "deployedLinkReferences": {}
}