{
  "_format": "hh-sol-artifact-1",
  "contractName": "FlappyAVAX",
  "sourceName": "contracts/FlappyAVAX.sol",
  "abi": [
    {
      "inputs": [
        {
          "internalType": "address",
          "name": "_bbone",
          "type": "address"
        }
      ],
      "stateMutability": "nonpayable",
      "type": "constructor"
    },
    {
      "anonymous": false,
      "inputs": [
        {
          "indexed": true,
          "internalType": "address",
          "name": "owner",
          "type": "address"
        },
        {
          "indexed": true,
          "internalType": "address",
          "name": "approved",
          "type": "address"
        },
        {
          "indexed": true,
          "internalType": "uint256",
          "name": "tokenId",
          "type": "uint256"
        }
      ],
      "name": "Approval",
      "type": "event"
    },
    {
      "anonymous": false,
      "inputs": [
        {
          "indexed": true,
          "internalType": "address",
          "name": "owner",
          "type": "address"
        },
        {
          "indexed": true,
          "internalType": "address",
          "name": "operator",
          "type": "address"
        },
        {
          "indexed": false,
          "internalType": "bool",
          "name": "approved",
          "type": "bool"
        }
      ],
      "name": "ApprovalForAll",
      "type": "event"
    },
    {
      "anonymous": false,
      "inputs": [
        {
          "indexed": false,
          "internalType": "uint256",
          "name": "tokenId",
          "type": "uint256"
        },
        {
          "indexed": false,
          "internalType": "uint8",
          "name": "lvl",
          "type": "uint8"
        },
        {
          "indexed": false,
          "internalType": "uint8",
          "name": "exp",
          "type": "uint8"
        }
      ],
      "name": "LevelAndExpUpdated",
      "type": "event"
    },
    {
      "anonymous": false,
      "inputs": [
        {
          "indexed": false,
          "internalType": "uint256",
          "name": "mintId",
          "type": "uint256"
        },
        {
          "indexed": false,
          "internalType": "uint256",
          "name": "timestamp",
          "type": "uint256"
        }
      ],
      "name": "NewMint",
      "type": "event"
    },
    {
      "anonymous": false,
      "inputs": [
        {
          "indexed": true,
          "internalType": "address",
          "name": "previousOwner",
          "type": "address"
        },
        {
          "indexed": true,
          "internalType": "address",
          "name": "newOwner",
          "type": "address"
        }
      ],
      "name": "OwnershipTransferred",
      "type": "event"
    },
    {
      "anonymous": false,
      "inputs": [
        {
          "indexed": false,
          "internalType": "address",
          "name": "stakingManager",
          "type": "address"
        }
      ],
      "name": "StakingManagerUpdated",
      "type": "event"
    },
    {
      "anonymous": false,
      "inputs": [
        {
          "indexed": false,
          "internalType": "uint256",
          "name": "tokenId",
          "type": "uint256"
        },
        {
          "indexed": false,
          "internalType": "uint256",
          "name": "skin",
          "type": "uint256"
        },
        {
          "indexed": false,
          "internalType": "uint256",
          "name": "face",
          "type": "uint256"
        },
        {
          "indexed": false,
          "internalType": "uint256",
          "name": "rarity",
          "type": "uint256"
        }
      ],
      "name": "TokenRevealed",
      "type": "event"
    },
    {
      "anonymous": false,
      "inputs": [
        {
          "indexed": true,
          "internalType": "address",
          "name": "from",
          "type": "address"
        },
        {
          "indexed": true,
          "internalType": "address",
          "name": "to",
          "type": "address"
        },
        {
          "indexed": true,
          "internalType": "uint256",
          "name": "tokenId",
          "type": "uint256"
        }
      ],
      "name": "Transfer",
      "type": "event"
    },
    {
      "inputs": [],
      "name": "MAX_LEVELXP",
      "outputs": [
        {
          "internalType": "uint8",
          "name": "",
          "type": "uint8"
        }
      ],
      "stateMutability": "view",
      "type": "function"
    },
    {
      "inputs": [],
      "name": "MAX_MINTSPERTX",
      "outputs": [
        {
          "internalType": "uint256",
          "name": "",
          "type": "uint256"
        }
      ],
      "stateMutability": "view",
      "type": "function"
    },
    {
      "inputs": [],
      "name": "MAX_SUPPLY",
      "outputs": [
        {
          "internalType": "uint256",
          "name": "",
          "type": "uint256"
        }
      ],
      "stateMutability": "view",
      "type": "function"
    },
    {
      "inputs": [],
      "name": "MINT_PRICE_AVAX",
      "outputs": [
        {
          "internalType": "uint256",
          "name": "",
          "type": "uint256"
        }
      ],
      "stateMutability": "view",
      "type": "function"
    },
    {
      "inputs": [],
      "name": "ONE_EXP_PER_TIME",
      "outputs": [
        {
          "internalType": "uint256",
          "name": "",
          "type": "uint256"
        }
      ],
      "stateMutability": "view",
      "type": "function"
    },
    {
      "inputs": [],
      "name": "REVEAL_TIME",
      "outputs": [
        {
          "internalType": "uint256",
          "name": "",
          "type": "uint256"
        }
      ],
      "stateMutability": "view",
      "type": "function"
    },
    {
      "inputs": [
        {
          "internalType": "address",
          "name": "to",
          "type": "address"
        },
        {
          "internalType": "uint256",
          "name": "tokenId",
          "type": "uint256"
        }
      ],
      "name": "approve",
      "outputs": [],
      "stateMutability": "nonpayable",
      "type": "function"
    },
    {
      "inputs": [
        {
          "internalType": "address",
          "name": "owner",
          "type": "address"
        }
      ],
      "name": "balanceOf",
      "outputs": [
        {
          "internalType": "uint256",
          "name": "",
          "type": "uint256"
        }
      ],
      "stateMutability": "view",
      "type": "function"
    },
    {
      "inputs": [],
      "name": "baseSupply",
      "outputs": [
        {
          "internalType": "uint256",
          "name": "",
          "type": "uint256"
        }
      ],
      "stateMutability": "view",
      "type": "function"
    },
    {
      "inputs": [],
      "name": "bbone",
      "outputs": [
        {
          "internalType": "contract IBBone",
          "name": "",
          "type": "address"
        }
      ],
      "stateMutability": "view",
      "type": "function"
    },
    {
      "inputs": [
        {
          "internalType": "uint256[]",
          "name": "_tokenIds",
          "type": "uint256[]"
        }
      ],
      "name": "doRevealFor",
      "outputs": [],
      "stateMutability": "nonpayable",
      "type": "function"
    },
    {
      "inputs": [
        {
          "internalType": "uint256",
          "name": "tokenId",
          "type": "uint256"
        }
      ],
      "name": "getApproved",
      "outputs": [
        {
          "internalType": "address",
          "name": "",
          "type": "address"
        }
      ],
      "stateMutability": "view",
      "type": "function"
    },
    {
      "inputs": [
        {
          "internalType": "uint256",
          "name": "_tokenId",
          "type": "uint256"
        }
      ],
      "name": "getLevelAndExp",
      "outputs": [
        {
          "internalType": "uint8",
          "name": "level",
          "type": "uint8"
        },
        {
          "internalType": "uint8",
          "name": "exp",
          "type": "uint8"
        }
      ],
      "stateMutability": "view",
      "type": "function"
    },
    {
      "inputs": [
        {
          "internalType": "uint256[]",
          "name": "_tokenIds",
          "type": "uint256[]"
        }
      ],
      "name": "getTokensInfo",
      "outputs": [
        {
          "components": [
            {
              "internalType": "uint8",
              "name": "lvl",
              "type": "uint8"
            },
            {
              "internalType": "uint8",
              "name": "exp",
              "type": "uint8"
            },
            {
              "internalType": "uint256",
              "name": "timestampMint",
              "type": "uint256"
            },
            {
              "internalType": "uint256",
              "name": "block",
              "type": "uint256"
            },
            {
              "internalType": "uint8",
              "name": "revealed",
              "type": "uint8"
            },
            {
              "internalType": "uint8",
              "name": "staked",
              "type": "uint8"
            },
            {
              "internalType": "uint8",
              "name": "skin",
              "type": "uint8"
            },
            {
              "internalType": "uint8",
              "name": "face",
              "type": "uint8"
            },
            {
              "internalType": "uint8",
              "name": "rarity",
              "type": "uint8"
            },
            {
              "internalType": "uint256",
              "name": "pendingReward",
              "type": "uint256"
            }
          ],
          "internalType": "struct IBobtailNFT.NftEntity[]",
          "name": "",
          "type": "tuple[]"
        }
      ],
      "stateMutability": "view",
      "type": "function"
    },
    {
      "inputs": [
        {
          "internalType": "address",
          "name": "owner",
          "type": "address"
        },
        {
          "internalType": "address",
          "name": "operator",
          "type": "address"
        }
      ],
      "name": "isApprovedForAll",
      "outputs": [
        {
          "internalType": "bool",
          "name": "",
          "type": "bool"
        }
      ],
      "stateMutability": "view",
      "type": "function"
    },
    {
      "inputs": [
        {
          "internalType": "uint256",
          "name": "_tokenId",
          "type": "uint256"
        }
      ],
      "name": "isRevealed",
      "outputs": [
        {
          "internalType": "bool",
          "name": "",
          "type": "bool"
        }
      ],
      "stateMutability": "view",
      "type": "function"
    },
    {
      "inputs": [
        {
          "internalType": "address",
          "name": "_for",
          "type": "address"
        },
        {
          "internalType": "uint256",
          "name": "_quantity",
          "type": "uint256"
        }
      ],
      "name": "mintWithAvax",
      "outputs": [],
      "stateMutability": "payable",
      "type": "function"
    },
    {
      "inputs": [],
      "name": "name",
      "outputs": [
        {
          "internalType": "string",
          "name": "",
          "type": "string"
        }
      ],
      "stateMutability": "view",
      "type": "function"
    },
    {
      "inputs": [],
      "name": "owner",
      "outputs": [
        {
          "internalType": "address",
          "name": "",
          "type": "address"
        }
      ],
      "stateMutability": "view",
      "type": "function"
    },
    {
      "inputs": [
        {
          "internalType": "uint256",
          "name": "tokenId",
          "type": "uint256"
        }
      ],
      "name": "ownerOf",
      "outputs": [
        {
          "internalType": "address",
          "name": "",
          "type": "address"
        }
      ],
      "stateMutability": "view",
      "type": "function"
    },
    {
      "inputs": [],
      "name": "renounceOwnership",
      "outputs": [],
      "stateMutability": "nonpayable",
      "type": "function"
    },
    {
      "inputs": [
        {
          "internalType": "address",
          "name": "from",
          "type": "address"
        },
        {
          "internalType": "address",
          "name": "to",
          "type": "address"
        },
        {
          "internalType": "uint256",
          "name": "tokenId",
          "type": "uint256"
        }
      ],
      "name": "safeTransferFrom",
      "outputs": [],
      "stateMutability": "nonpayable",
      "type": "function"
    },
    {
      "inputs": [
        {
          "internalType": "address",
          "name": "from",
          "type": "address"
        },
        {
          "internalType": "address",
          "name": "to",
          "type": "address"
        },
        {
          "internalType": "uint256",
          "name": "tokenId",
          "type": "uint256"
        },
        {
          "internalType": "bytes",
          "name": "_data",
          "type": "bytes"
        }
      ],
      "name": "safeTransferFrom",
      "outputs": [],
      "stateMutability": "nonpayable",
      "type": "function"
    },
    {
      "inputs": [
        {
          "internalType": "address",
          "name": "operator",
          "type": "address"
        },
        {
          "internalType": "bool",
          "name": "approved",
          "type": "bool"
        }
      ],
      "name": "setApprovalForAll",
      "outputs": [],
      "stateMutability": "nonpayable",
      "type": "function"
    },
    {
      "inputs": [
        {
          "internalType": "uint256",
          "name": "_tokenId",
          "type": "uint256"
        },
        {
          "internalType": "uint8",
          "name": "_lvl",
          "type": "uint8"
        },
        {
          "internalType": "uint8",
          "name": "_exp",
          "type": "uint8"
        }
      ],
      "name": "setLevelAndExp",
      "outputs": [],
      "stateMutability": "nonpayable",
      "type": "function"
    },
    {
      "inputs": [
        {
          "internalType": "address",
          "name": "_stakingManager",
          "type": "address"
        }
      ],
      "name": "setStakingManager",
      "outputs": [],
      "stateMutability": "nonpayable",
      "type": "function"
    },
    {
      "inputs": [],
      "name": "stakingManager",
      "outputs": [
        {
          "internalType": "contract IBobtailStaking",
          "name": "",
          "type": "address"
        }
      ],
      "stateMutability": "view",
      "type": "function"
    },
    {
      "inputs": [
        {
          "internalType": "bytes4",
          "name": "interfaceId",
          "type": "bytes4"
        }
      ],
      "name": "supportsInterface",
      "outputs": [
        {
          "internalType": "bool",
          "name": "",
          "type": "bool"
        }
      ],
      "stateMutability": "view",
      "type": "function"
    },
    {
      "inputs": [],
      "name": "symbol",
      "outputs": [
        {
          "internalType": "string",
          "name": "",
          "type": "string"
        }
      ],
      "stateMutability": "view",
      "type": "function"
    },
    {
      "inputs": [
        {
          "internalType": "uint256",
          "name": "_tokenId",
          "type": "uint256"
        }
      ],
      "name": "tokenInfo",
      "outputs": [
        {
          "components": [
            {
              "internalType": "uint8",
              "name": "lvl",
              "type": "uint8"
            },
            {
              "internalType": "uint8",
              "name": "exp",
              "type": "uint8"
            },
            {
              "internalType": "uint256",
              "name": "timestampMint",
              "type": "uint256"
            },
            {
              "internalType": "uint256",
              "name": "block",
              "type": "uint256"
            },
            {
              "internalType": "uint8",
              "name": "revealed",
              "type": "uint8"
            },
            {
              "internalType": "uint8",
              "name": "staked",
              "type": "uint8"
            },
            {
              "internalType": "uint8",
              "name": "skin",
              "type": "uint8"
            },
            {
              "internalType": "uint8",
              "name": "face",
              "type": "uint8"
            },
            {
              "internalType": "uint8",
              "name": "rarity",
              "type": "uint8"
            },
            {
              "internalType": "uint256",
              "name": "pendingReward",
              "type": "uint256"
            }
          ],
          "internalType": "struct IBobtailNFT.NftEntity",
          "name": "",
          "type": "tuple"
        }
      ],
      "stateMutability": "view",
      "type": "function"
    },
    {
      "inputs": [
        {
          "internalType": "uint256",
          "name": "_tokenId",
          "type": "uint256"
        }
      ],
      "name": "tokenInfoExtended",
      "outputs": [
        {
          "components": [
            {
              "internalType": "uint8",
              "name": "lvl",
              "type": "uint8"
            },
            {
              "internalType": "uint8",
              "name": "exp",
              "type": "uint8"
            },
            {
              "internalType": "uint256",
              "name": "timestampMint",
              "type": "uint256"
            },
            {
              "internalType": "uint256",
              "name": "block",
              "type": "uint256"
            },
            {
              "internalType": "uint8",
              "name": "revealed",
              "type": "uint8"
            },
            {
              "internalType": "uint8",
              "name": "staked",
              "type": "uint8"
            },
            {
              "internalType": "uint8",
              "name": "skin",
              "type": "uint8"
            },
            {
              "internalType": "uint8",
              "name": "face",
              "type": "uint8"
            },
            {
              "internalType": "uint8",
              "name": "rarity",
              "type": "uint8"
            },
            {
              "internalType": "uint256",
              "name": "pendingReward",
              "type": "uint256"
            }
          ],
          "internalType": "struct IBobtailNFT.NftEntity",
          "name": "",
          "type": "tuple"
        }
      ],
      "stateMutability": "view",
      "type": "function"
    },
    {
      "inputs": [
        {
          "internalType": "uint256",
          "name": "tokenId",
          "type": "uint256"
        }
      ],
      "name": "tokenURI",
      "outputs": [
        {
          "internalType": "string",
          "name": "",
          "type": "string"
        }
      ],
      "stateMutability": "view",
      "type": "function"
    },
    {
      "inputs": [
        {
          "internalType": "address",
          "name": "_account",
          "type": "address"
        }
      ],
      "name": "tokensOf",
      "outputs": [
        {
          "internalType": "uint256[]",
          "name": "tokenIds",
          "type": "uint256[]"
        }
      ],
      "stateMutability": "view",
      "type": "function"
    },
    {
      "inputs": [
        {
          "internalType": "address",
          "name": "_account",
          "type": "address"
        }
      ],
      "name": "tokensWithInfoOf",
      "outputs": [
        {
          "components": [
            {
              "internalType": "uint8",
              "name": "lvl",
              "type": "uint8"
            },
            {
              "internalType": "uint8",
              "name": "exp",
              "type": "uint8"
            },
            {
              "internalType": "uint256",
              "name": "timestampMint",
              "type": "uint256"
            },
            {
              "internalType": "uint256",
              "name": "block",
              "type": "uint256"
            },
            {
              "internalType": "uint8",
              "name": "revealed",
              "type": "uint8"
            },
            {
              "internalType": "uint8",
              "name": "staked",
              "type": "uint8"
            },
            {
              "internalType": "uint8",
              "name": "skin",
              "type": "uint8"
            },
            {
              "internalType": "uint8",
              "name": "face",
              "type": "uint8"
            },
            {
              "internalType": "uint8",
              "name": "rarity",
              "type": "uint8"
            },
            {
              "internalType": "uint256",
              "name": "pendingReward",
              "type": "uint256"
            }
          ],
          "internalType": "struct IBobtailNFT.NftEntity[]",
          "name": "",
          "type": "tuple[]"
        }
      ],
      "stateMutability": "view",
      "type": "function"
    },
    {
      "inputs": [
        {
          "internalType": "address",
          "name": "from",
          "type": "address"
        },
        {
          "internalType": "address",
          "name": "to",
          "type": "address"
        },
        {
          "internalType": "uint256",
          "name": "tokenId",
          "type": "uint256"
        }
      ],
      "name": "transferFrom",
      "outputs": [],
      "stateMutability": "nonpayable",
      "type": "function"
    },
    {
      "inputs": [
        {
          "internalType": "address",
          "name": "newOwner",
          "type": "address"
        }
      ],
      "name": "transferOwnership",
      "outputs": [],
      "stateMutability": "nonpayable",
      "type": "function"
    }
  ],
  "bytecode": "0x60a06040523480156200001157600080fd5b50604051620030b3380380620030b38339810160408190526200003491620001ba565b604080518082018252600a8082526908cd8c2e0e0f282ac82b60b31b602080840182815285518087019096529285528401528151919291620000799160009162000114565b5080516200008f90600190602084019062000114565b505050620000ac620000a6620000be60201b60201c565b620000c2565b6001600160a01b031660805262000229565b3390565b600680546001600160a01b038381166001600160a01b0319831681179093556040519116919082907f8be0079c531659141344cd1fd0a4f28419497f9722a3daafe3b4186f6b6457e090600090a35050565b8280546200012290620001ec565b90600052602060002090601f01602090048101928262000146576000855562000191565b82601f106200016157805160ff191683800117855562000191565b8280016001018555821562000191579182015b828111156200019157825182559160200191906001019062000174565b506200019f929150620001a3565b5090565b5b808211156200019f5760008155600101620001a4565b600060208284031215620001cd57600080fd5b81516001600160a01b0381168114620001e557600080fd5b9392505050565b600181811c908216806200020157607f821691505b602082108114156200022357634e487b7160e01b600052602260045260246000fd5b50919050565b608051612e6062000253600039600081816103e90152818161137b01526113db0152612e606000f3fe60806040526004361061020f5760003560e01c80637020106e11610118578063b00bba6a116100a0578063cc33c8751161006f578063cc33c87514610626578063e8412d6d14610653578063e985e9c514610673578063ed0d37f114610693578063f2fde38b146106b357600080fd5b8063b00bba6a146105b3578063b6847f2f146105d3578063b88d4fde146105e6578063c87b56dd1461060657600080fd5b8063860f5048116100e7578063860f5048146105105780638da5cb5b146105265780639133f3601461054457806395d89b411461057e578063a22cb4651461059357600080fd5b80637020106e1461048e57806370a08231146104ae578063715018a6146104ce57806380480503146104e357600080fd5b80632d913bfb1161019b57806342842e0e1161016a57806342842e0e146103b7578063476b6d92146103d75780635055fbc31461040b5780635a3f2672146104415780636352211e1461046e57600080fd5b80632d913bfb14610370578063314b295a1461038557806332cb6b0c146103a1578063385a7b9e146103a157600080fd5b80630de613c7116101e25780630de613c7146102c55780631da934c0146102e55780632067a3621461030957806322828cc21461033057806323b872dd1461035057600080fd5b806301ffc9a71461021457806306fdde0314610249578063081812fc1461026b578063095ea7b3146102a3575b600080fd5b34801561022057600080fd5b5061023461022f366004612639565b6106d3565b60405190151581526020015b60405180910390f35b34801561025557600080fd5b5061025e610725565b60405161024091906126ae565b34801561027757600080fd5b5061028b6102863660046126c1565b6107b7565b6040516001600160a01b039091168152602001610240565b3480156102af57600080fd5b506102c36102be3660046126f6565b610851565b005b3480156102d157600080fd5b506102c36102e0366004612731565b610967565b3480156102f157600080fd5b506102fb61036081565b604051908152602001610240565b34801561031557600080fd5b5061031e606481565b60405160ff9091168152602001610240565b34801561033c57600080fd5b5060075461028b906001600160a01b031681565b34801561035c57600080fd5b506102c361036b36600461276d565b610a32565b34801561037c57600080fd5b506102fb605a81565b34801561039157600080fd5b506102fb670de0b6b3a764000081565b3480156103ad57600080fd5b506102fb6103f081565b3480156103c357600080fd5b506102c36103d236600461276d565b610a63565b3480156103e357600080fd5b5061028b7f000000000000000000000000000000000000000000000000000000000000000081565b34801561041757600080fd5b506102346104263660046126c1565b6000908152600a602052604090206003015460ff1660011490565b34801561044d57600080fd5b5061046161045c3660046127a9565b610a7e565b60405161024091906127c4565b34801561047a57600080fd5b5061028b6104893660046126c1565b610a89565b34801561049a57600080fd5b506102c36104a936600461284f565b610b00565b3480156104ba57600080fd5b506102fb6104c93660046127a9565b610d94565b3480156104da57600080fd5b506102c3610e1b565b3480156104ef57600080fd5b506105036104fe36600461284f565b610e51565b6040516102409190612993565b34801561051c57600080fd5b506102fb60085481565b34801561053257600080fd5b506006546001600160a01b031661028b565b34801561055057600080fd5b5061056461055f3660046126c1565b610f10565b6040805160ff938416815292909116602083015201610240565b34801561058a57600080fd5b5061025e611021565b34801561059f57600080fd5b506102c36105ae3660046129e4565b611030565b3480156105bf57600080fd5b506102c36105ce3660046127a9565b61103b565b6102c36105e13660046126f6565b6110b9565b3480156105f257600080fd5b506102c3610601366004612a1b565b611449565b34801561061257600080fd5b5061025e6106213660046126c1565b611481565b34801561063257600080fd5b506106466106413660046126c1565b611569565b6040516102409190612adb565b34801561065f57600080fd5b5061064661066e3660046126c1565b61160f565b34801561067f57600080fd5b5061023461068e366004612aea565b611742565b34801561069f57600080fd5b506105036106ae3660046127a9565b611770565b3480156106bf57600080fd5b506102c36106ce3660046127a9565b611788565b60006001600160e01b031982166380ac58cd60e01b148061070457506001600160e01b03198216635b5e139f60e01b145b8061071f57506301ffc9a760e01b6001600160e01b03198316145b92915050565b60606000805461073490612b1d565b80601f016020809104026020016040519081016040528092919081815260200182805461076090612b1d565b80156107ad5780601f10610782576101008083540402835291602001916107ad565b820191906000526020600020905b81548152906001019060200180831161079057829003601f168201915b5050505050905090565b6000818152600260205260408120546001600160a01b03166108355760405162461bcd60e51b815260206004820152602c60248201527f4552433732313a20617070726f76656420717565727920666f72206e6f6e657860448201526b34b9ba32b73a103a37b5b2b760a11b60648201526084015b60405180910390fd5b506000908152600460205260409020546001600160a01b031690565b600061085c82610a89565b9050806001600160a01b0316836001600160a01b031614156108ca5760405162461bcd60e51b815260206004820152602160248201527f4552433732313a20617070726f76616c20746f2063757272656e74206f776e656044820152603960f91b606482015260840161082c565b336001600160a01b03821614806108e657506108e68133611742565b6109585760405162461bcd60e51b815260206004820152603860248201527f4552433732313a20617070726f76652063616c6c6572206973206e6f74206f7760448201527f6e6572206e6f7220617070726f76656420666f7220616c6c0000000000000000606482015260840161082c565b6109628383611823565b505050565b6007546001600160a01b031633146109c15760405162461bcd60e51b815260206004820152601f60248201527f53656e6465722073686f756c64206265207374616b696e674d616e6167657200604482015260640161082c565b6000838152600a6020908152604091829020805460ff86811661ffff19909216821761010091871691820217909255835187815292830152918101919091527f0f860734ce8cdc29222738cc67f2d4acd0abce6add683d95e9d4112fc34ebdfe9060600160405180910390a1505050565b610a3c3382611891565b610a585760405162461bcd60e51b815260040161082c90612b58565b610962838383611968565b61096283838360405180602001604052806000815250611449565b606061071f82611b0f565b6000818152600260205260408120546001600160a01b03168061071f5760405162461bcd60e51b815260206004820152602960248201527f4552433732313a206f776e657220717565727920666f72206e6f6e657869737460448201526832b73a103a37b5b2b760b91b606482015260840161082c565b60005b8151811015610d9057600a6000838381518110610b2257610b22612ba9565b602002602001015181526020019081526020016000206001015442118015610b845750605a600a6000848481518110610b5d57610b5d612ba9565b602002602001015181526020019081526020016000206001015442610b829190612bd5565b115b15610d7e576000806000610bb0858581518110610ba357610ba3612ba9565b6020026020010151611c01565b60ff80831660009081526009602090815260408083209385168352929052908120805460ff19166001179055885193965091945092508391600a9190889088908110610bfe57610bfe612ba9565b6020026020010151815260200190815260200160002060030160026101000a81548160ff021916908360ff16021790555080600a6000878781518110610c4657610c46612ba9565b6020026020010151815260200190815260200160002060030160036101000a81548160ff021916908360ff16021790555082600a6000878781518110610c8e57610c8e612ba9565b6020026020010151815260200190815260200160002060030160046101000a81548160ff021916908360ff1602179055506001600a6000878781518110610cd757610cd7612ba9565b6020026020010151815260200190815260200160002060030160006101000a81548160ff021916908360ff1602179055507fadbecee43f02a4d7f48ff8a1967b3ec9f7ef666c4c309aa6573f4f83ac295334858581518110610d3b57610d3b612ba9565b6020026020010151838386604051610d72949392919093845260ff9283166020850152908216604084015216606082015260800190565b60405180910390a15050505b80610d8881612bec565b915050610b03565b5050565b60006001600160a01b038216610dff5760405162461bcd60e51b815260206004820152602a60248201527f4552433732313a2062616c616e636520717565727920666f7220746865207a65604482015269726f206164647265737360b01b606482015260840161082c565b506001600160a01b031660009081526003602052604090205490565b6006546001600160a01b03163314610e455760405162461bcd60e51b815260040161082c90612c07565b610e4f6000611e55565b565b60606000825167ffffffffffffffff811115610e6f57610e6f612808565b604051908082528060200260200182016040528015610ea857816020015b610e956125cf565b815260200190600190039081610e8d5790505b50905060005b8351811015610f0957610ed9848281518110610ecc57610ecc612ba9565b602002602001015161160f565b828281518110610eeb57610eeb612ba9565b60200260200101819052508080610f0190612bec565b915050610eae565b5092915050565b6000818152600a6020526040808220546007549151635d528fc360e11b81526004810185905260ff80831694610100909304169282916001600160a01b039091169063baa51f86906024016040805180830381865afa158015610f77573d6000803e3d6000fd5b505050506040513d601f19601f82011682018060405250810190610f9b9190612c3c565b91509150811561101a57600060ff8416610360610fb88442612bd5565b610fc29190612c80565b610fcc9190612c94565b90506000610fdb606483612cac565b9050600060ff8716610fee606485612c80565b610ff89190612c94565b90506064811061100f576064965060649550611016565b8096508195505b5050505b5050915091565b60606001805461073490612b1d565b610d90338383611ea7565b6006546001600160a01b031633146110655760405162461bcd60e51b815260040161082c90612c07565b600780546001600160a01b0319166001600160a01b0383169081179091556040519081527f55acc64e4a72cc89f8652df08117adc5f4c96f616ea32414ce208b82e370a2db9060200160405180910390a150565b806110f95760405162461bcd60e51b815260206004820152601060248201526f496e76616c6964207175616e7469747960801b604482015260640161082c565b6103f081111561114b5760405162461bcd60e51b815260206004820152601f60248201527f496e76616c6964207175616e746974792c206d6178206d696e7420702f747800604482015260640161082c565b6103f08160085461115c9190612c94565b11156111a05760405162461bcd60e51b8152602060048201526013602482015272496e73756666696369656e7420737570706c7960681b604482015260640161082c565b6111b281670de0b6b3a7640000612cc0565b34146112005760405162461bcd60e51b815260206004820152601d60248201527f496e636f727265637420616d6f756e74206f6620415641582073656e74000000604482015260640161082c565b60005b8181101561136d576008805490600061121b83612bec565b909155505060085460408051610140810182526001808252602080830182815242848601908152436060860190815260006080870181815260a0880182815260c0890183815260e08a01848152610100808c018681526101208d018781528f8852600a909b529c9095209a518b54985160ff908116870261ffff199a8b1692821692909217919091178c559651998b0199909955935160028a015590516003890180549251945198519a5186166401000000000264ff00000000199b871663010000000263ff000000199a881662010000029a909a1663ffff0000199688169095029390971691909516171791909116179390931794909416939093179055905160049091015561132c8482611f76565b604080518281524260208201527ff9d43470bb9ff77b3dfc3ab28eeebc545ae9c37fc3187148201077df2aeca761910160405180910390a150600101611203565b506040516001600160a01b037f000000000000000000000000000000000000000000000000000000000000000016903480156108fc02916000818181858888f193505050501580156113c3573d6000803e3d6000fd5b50604051635a95479b60e11b81526001600160a01b037f0000000000000000000000000000000000000000000000000000000000000000169063b52a8f3690611413903490600190600401612cdf565b600060405180830381600087803b15801561142d57600080fd5b505af1158015611441573d6000803e3d6000fd5b505050505050565b6114533383611891565b61146f5760405162461bcd60e51b815260040161082c90612b58565b61147b84848484611f90565b50505050565b6000818152600260205260409020546060906001600160a01b03166115005760405162461bcd60e51b815260206004820152602f60248201527f4552433732314d657461646174613a2055524920717565727920666f72206e6f60448201526e3732bc34b9ba32b73a103a37b5b2b760891b606482015260840161082c565b600061151760408051602081019091526000815290565b905060008151116115375760405180602001604052806000815250611562565b8061154184611fc3565b604051602001611552929190612d11565b6040516020818303038152906040525b9392505050565b6115716125cf565b506000908152600a6020908152604091829020825161014081018452815460ff8082168352610100918290048116948301949094526001830154948201949094526002820154606082015260038201548084166080830152848104841660a0830152620100008104841660c083015263010000008104841660e083015264010000000090049092169282019290925260049091015461012082015290565b6116176125cf565b6000828152600a6020908152604091829020825161014081018452815460ff8082168352610100918290048116948301949094526001808401549583019590955260028301546060830152600383015480851660808401819052828204861660a0850152620100008204861660c085015263010000008204861660e08501526401000000009091049094169082015260049091015461012082015291141561071f578060a0015160ff166001141561071f5760075460405163af3a82cb60e01b8152600481018590526001600160a01b039091169063af3a82cb90602401602060405180830381865afa158015611712573d6000803e3d6000fd5b505050506040513d601f19601f820116820180604052508101906117369190612d40565b61012082015292915050565b6001600160a01b03918216600090815260056020908152604080832093909416825291909152205460ff1690565b6060600061177d83611b0f565b905061156281610e51565b6006546001600160a01b031633146117b25760405162461bcd60e51b815260040161082c90612c07565b6001600160a01b0381166118175760405162461bcd60e51b815260206004820152602660248201527f4f776e61626c653a206e6577206f776e657220697320746865207a65726f206160448201526564647265737360d01b606482015260840161082c565b61182081611e55565b50565b600081815260046020526040902080546001600160a01b0319166001600160a01b038416908117909155819061185882610a89565b6001600160a01b03167f8c5be1e5ebec7d5bd14f71427d1e84f3dd0314c0f7b2291e5b200ac8c7c3b92560405160405180910390a45050565b6000818152600260205260408120546001600160a01b031661190a5760405162461bcd60e51b815260206004820152602c60248201527f4552433732313a206f70657261746f7220717565727920666f72206e6f6e657860448201526b34b9ba32b73a103a37b5b2b760a11b606482015260840161082c565b600061191583610a89565b9050806001600160a01b0316846001600160a01b031614806119505750836001600160a01b0316611945846107b7565b6001600160a01b0316145b8061196057506119608185611742565b949350505050565b826001600160a01b031661197b82610a89565b6001600160a01b0316146119df5760405162461bcd60e51b815260206004820152602560248201527f4552433732313a207472616e736665722066726f6d20696e636f72726563742060448201526437bbb732b960d91b606482015260840161082c565b6001600160a01b038216611a415760405162461bcd60e51b8152602060048201526024808201527f4552433732313a207472616e7366657220746f20746865207a65726f206164646044820152637265737360e01b606482015260840161082c565b611a4c8383836120c1565b611a57600082611823565b6001600160a01b0383166000908152600360205260408120805460019290611a80908490612bd5565b90915550506001600160a01b0382166000908152600360205260408120805460019290611aae908490612c94565b909155505060008181526002602052604080822080546001600160a01b0319166001600160a01b0386811691821790925591518493918716917fddf252ad1be2c89b69c2b068fc378daa952ba7f163c4a11628f55a4df523b3ef91a4505050565b60606000611b1c83610d94565b905060008167ffffffffffffffff811115611b3957611b39612808565b604051908082528060200260200182016040528015611b62578160200160208202803683370190505b5090508115611562576000805b83811015611bf8576000828152600260205260409020546001600160a01b031615158015611bb65750856001600160a01b0316611bab83610a89565b6001600160a01b0316145b15611be657818382611bc781612bec565b935081518110611bd957611bd9612ba9565b6020026020010181815250505b81611bf081612bec565b925050611b6f565b50509392505050565b6000818152600a6020526040812060020154819081908190611c259086603e61219b565b9050600581600081518110611c3c57611c3c612ba9565b6020026020010151611c4e9190612cac565b611c59906001612c94565b935060005b603c811015611deb576000602a83611c77846001612c94565b81518110611c8757611c87612ba9565b6020026020010151611c999190612cac565b611ca4906001612c94565b905060005b6018811015611dd6576000601885611cc2846002612c94565b81518110611cd257611cd2612ba9565b6020026020010151611ce49190612cac565b611cef906001612c94565b60ff8085166000908152600960209081526040808320848616845290915290205491925016611d2757919550909350611e4e92505050565b611d32600184612d59565b9250602b8360ff161015611d755760ff8084166000908152600960209081526040808320858516845290915290205416611d7557919550909350611e4e92505050565b611d80600182612d59565b905060198160ff161015611dc35760ff8084166000908152600960209081526040808320858516845290915290205416611dc357919550909350611e4e92505050565b5080611dce81612bec565b915050611ca9565b50508080611de390612bec565b915050611c5e565b5060ff831615801590611e00575060ff821615155b611e4c5760405162461bcd60e51b815260206004820152601860248201527f4e6f2072616e646f6d20646174612067656e6572617465640000000000000000604482015260640161082c565b505b9193909250565b600680546001600160a01b038381166001600160a01b0319831681179093556040519116919082907f8be0079c531659141344cd1fd0a4f28419497f9722a3daafe3b4186f6b6457e090600090a35050565b816001600160a01b0316836001600160a01b03161415611f095760405162461bcd60e51b815260206004820152601960248201527f4552433732313a20617070726f766520746f2063616c6c657200000000000000604482015260640161082c565b6001600160a01b03838116600081815260056020908152604080832094871680845294825291829020805460ff191686151590811790915591519182527f17307eab39ab6107e8899845ad3d59bd9653f200f220920489ca2b5937696c31910160405180910390a3505050565b610d908282604051806020016040528060008152506122a2565b611f9b848484611968565b611fa7848484846122d5565b61147b5760405162461bcd60e51b815260040161082c90612d7e565b606081611fe75750506040805180820190915260018152600360fc1b602082015290565b8160005b81156120115780611ffb81612bec565b915061200a9050600a83612c80565b9150611feb565b60008167ffffffffffffffff81111561202c5761202c612808565b6040519080825280601f01601f191660200182016040528015612056576020820181803683370190505b5090505b84156119605761206b600183612bd5565b9150612078600a86612cac565b612083906030612c94565b60f81b81838151811061209857612098612ba9565b60200101906001600160f81b031916908160001a9053506120ba600a86612c80565b945061205a565b6000818152600a6020526040902060030154610100900460ff16156121285760405162461bcd60e51b815260206004820152601b60248201527f43616e2774207472616e73666572207374616b656420746f6b656e0000000000604482015260640161082c565b6001600160a01b03831615610962576000818152600a602052604090206003015460ff166001146109625760405162461bcd60e51b815260206004820152601860248201527f546f6b656e2073686f756c642062652072657665616c65640000000000000000604482015260640161082c565b606060006121aa600186612bd5565b406121b6600387612bd5565b406121c2600588612bd5565b406121ce600889612bd5565b406121da600f8a612bd5565b40896121e7816001612c94565b406121f38c6005612c94565b406121ff8d6008612c94565b408c61220c8f600f612c94565b408f600a61221a9190612c94565b60408051602081019d909d528c019a909a5260608b019890985260808a019690965260a089019490945260c088019290925260e0870152610100860152610120850152610140840152610160830152406101808201526101a0016040516020818303038152906040528051906020012060001c905061229981846123d3565b95945050505050565b6122ac8383612481565b6122b960008484846122d5565b6109625760405162461bcd60e51b815260040161082c90612d7e565b60006001600160a01b0384163b156123c857604051630a85bd0160e11b81526001600160a01b0385169063150b7a0290612319903390899088908890600401612dd0565b6020604051808303816000875af1925050508015612354575060408051601f3d908101601f1916820190925261235191810190612e0d565b60015b6123ae573d808015612382576040519150601f19603f3d011682016040523d82523d6000602084013e612387565b606091505b5080516123a65760405162461bcd60e51b815260040161082c90612d7e565b805181602001fd5b6001600160e01b031916630a85bd0160e11b149050611960565b506001949350505050565b60608167ffffffffffffffff8111156123ee576123ee612808565b604051908082528060200260200182016040528015612417578160200160208202803683370190505b50905060005b82811015610f095760408051602081018690529081018290526060016040516020818303038152906040528051906020012060001c82828151811061246457612464612ba9565b60209081029190910101528061247981612bec565b91505061241d565b6001600160a01b0382166124d75760405162461bcd60e51b815260206004820181905260248201527f4552433732313a206d696e7420746f20746865207a65726f2061646472657373604482015260640161082c565b6000818152600260205260409020546001600160a01b03161561253c5760405162461bcd60e51b815260206004820152601c60248201527f4552433732313a20746f6b656e20616c7265616479206d696e74656400000000604482015260640161082c565b612548600083836120c1565b6001600160a01b0382166000908152600360205260408120805460019290612571908490612c94565b909155505060008181526002602052604080822080546001600160a01b0319166001600160a01b03861690811790915590518392907fddf252ad1be2c89b69c2b068fc378daa952ba7f163c4a11628f55a4df523b3ef908290a45050565b6040805161014081018252600080825260208201819052918101829052606081018290526080810182905260a0810182905260c0810182905260e08101829052610100810182905261012081019190915290565b6001600160e01b03198116811461182057600080fd5b60006020828403121561264b57600080fd5b813561156281612623565b60005b83811015612671578181015183820152602001612659565b8381111561147b5750506000910152565b6000815180845261269a816020860160208601612656565b601f01601f19169290920160200192915050565b6020815260006115626020830184612682565b6000602082840312156126d357600080fd5b5035919050565b80356001600160a01b03811681146126f157600080fd5b919050565b6000806040838503121561270957600080fd5b612712836126da565b946020939093013593505050565b803560ff811681146126f157600080fd5b60008060006060848603121561274657600080fd5b8335925061275660208501612720565b915061276460408501612720565b90509250925092565b60008060006060848603121561278257600080fd5b61278b846126da565b9250612799602085016126da565b9150604084013590509250925092565b6000602082840312156127bb57600080fd5b611562826126da565b6020808252825182820181905260009190848201906040850190845b818110156127fc578351835292840192918401916001016127e0565b50909695505050505050565b634e487b7160e01b600052604160045260246000fd5b604051601f8201601f1916810167ffffffffffffffff8111828210171561284757612847612808565b604052919050565b6000602080838503121561286257600080fd5b823567ffffffffffffffff8082111561287a57600080fd5b818501915085601f83011261288e57600080fd5b8135818111156128a0576128a0612808565b8060051b91506128b184830161281e565b81815291830184019184810190888411156128cb57600080fd5b938501935b838510156128e9578435825293850193908501906128d0565b98975050505050505050565b805160ff1682526020810151612910602084018260ff169052565b5060408101516040830152606081015160608301526080810151612939608084018260ff169052565b5060a081015161294e60a084018260ff169052565b5060c081015161296360c084018260ff169052565b5060e081015161297860e084018260ff169052565b506101008181015160ff169083015261012090810151910152565b6020808252825182820181905260009190848201906040850190845b818110156127fc576129c28385516128f5565b9284019261014092909201916001016129af565b801515811461182057600080fd5b600080604083850312156129f757600080fd5b612a00836126da565b91506020830135612a10816129d6565b809150509250929050565b60008060008060808587031215612a3157600080fd5b612a3a856126da565b93506020612a498187016126da565b935060408601359250606086013567ffffffffffffffff80821115612a6d57600080fd5b818801915088601f830112612a8157600080fd5b813581811115612a9357612a93612808565b612aa5601f8201601f1916850161281e565b91508082528984828501011115612abb57600080fd5b808484018584013760008482840101525080935050505092959194509250565b610140810161071f82846128f5565b60008060408385031215612afd57600080fd5b612b06836126da565b9150612b14602084016126da565b90509250929050565b600181811c90821680612b3157607f821691505b60208210811415612b5257634e487b7160e01b600052602260045260246000fd5b50919050565b60208082526031908201527f4552433732313a207472616e736665722063616c6c6572206973206e6f74206f6040820152701ddb995c881b9bdc88185c1c1c9bdd9959607a1b606082015260800190565b634e487b7160e01b600052603260045260246000fd5b634e487b7160e01b600052601160045260246000fd5b600082821015612be757612be7612bbf565b500390565b6000600019821415612c0057612c00612bbf565b5060010190565b6020808252818101527f4f776e61626c653a2063616c6c6572206973206e6f7420746865206f776e6572604082015260600190565b60008060408385031215612c4f57600080fd5b8251612c5a816129d6565b6020939093015192949293505050565b634e487b7160e01b600052601260045260246000fd5b600082612c8f57612c8f612c6a565b500490565b60008219821115612ca757612ca7612bbf565b500190565b600082612cbb57612cbb612c6a565b500690565b6000816000190483118215151615612cda57612cda612bbf565b500290565b8281526040810160038310612d0457634e487b7160e01b600052602160045260246000fd5b8260208301529392505050565b60008351612d23818460208801612656565b835190830190612d37818360208801612656565b01949350505050565b600060208284031215612d5257600080fd5b5051919050565b600060ff821660ff84168060ff03821115612d7657612d76612bbf565b019392505050565b60208082526032908201527f4552433732313a207472616e7366657220746f206e6f6e20455243373231526560408201527131b2b4bb32b91034b6b83632b6b2b73a32b960711b606082015260800190565b6001600160a01b0385811682528416602082015260408101839052608060608201819052600090612e0390830184612682565b9695505050505050565b600060208284031215612e1f57600080fd5b81516115628161262356fea2646970667358221220f97bbf0cdf6287b4009e856ccca6166222bc726eb10f5757b0711b5f6d3adaf264736f6c634300080c0033",
  "linkReferences": {},
  "deployedLinkReferences": {}
}