{
  "_format": "hh-sol-artifact-1",
  "contractName": "FlappyAVAX",
  "sourceName": "contracts/FlappyAVAX.sol",
  "abi": [
    {
      "inputs": [
        {
          "internalType": "address",
          "name": "_router",
          "type": "address"
        },
        {
          "internalType": "address",
          "name": "_bbone",
          "type": "address"
        },
        {
          "internalType": "address",
          "name": "_mainSigner",
          "type": "address"
        },
        {
          "internalType": "address",
          "name": "_pairBboneAvax",
          "type": "address"
        }
      ],
      "stateMutability": "nonpayable",
      "type": "constructor"
    },
    {
      "anonymous": false,
      "inputs": [
        {
          "indexed": true,
          "internalType": "address",
          "name": "owner",
          "type": "address"
        },
        {
          "indexed": true,
          "internalType": "address",
          "name": "approved",
          "type": "address"
        },
        {
          "indexed": true,
          "internalType": "uint256",
          "name": "tokenId",
          "type": "uint256"
        }
      ],
      "name": "Approval",
      "type": "event"
    },
    {
      "anonymous": false,
      "inputs": [
        {
          "indexed": true,
          "internalType": "address",
          "name": "owner",
          "type": "address"
        },
        {
          "indexed": true,
          "internalType": "address",
          "name": "operator",
          "type": "address"
        },
        {
          "indexed": false,
          "internalType": "bool",
          "name": "approved",
          "type": "bool"
        }
      ],
      "name": "ApprovalForAll",
      "type": "event"
    },
    {
      "anonymous": false,
      "inputs": [
        {
          "indexed": false,
          "internalType": "address",
          "name": "player",
          "type": "address"
        },
        {
          "indexed": false,
          "internalType": "uint256",
          "name": "matchId",
          "type": "uint256"
        },
        {
          "indexed": false,
          "internalType": "uint256",
          "name": "tokenId",
          "type": "uint256"
        }
      ],
      "name": "NewAddressInMatch",
      "type": "event"
    },
    {
      "anonymous": false,
      "inputs": [
        {
          "indexed": false,
          "internalType": "uint256",
          "name": "matchId",
          "type": "uint256"
        },
        {
          "indexed": false,
          "internalType": "uint256",
          "name": "slot",
          "type": "uint256"
        },
        {
          "indexed": false,
          "internalType": "uint256",
          "name": "timestamp",
          "type": "uint256"
        },
        {
          "indexed": false,
          "internalType": "uint256",
          "name": "duration",
          "type": "uint256"
        },
        {
          "indexed": false,
          "internalType": "uint256",
          "name": "maxPlayers",
          "type": "uint256"
        }
      ],
      "name": "NewMatch",
      "type": "event"
    },
    {
      "anonymous": false,
      "inputs": [
        {
          "indexed": false,
          "internalType": "uint256",
          "name": "mintId",
          "type": "uint256"
        },
        {
          "indexed": false,
          "internalType": "uint256",
          "name": "timestamp",
          "type": "uint256"
        }
      ],
      "name": "NewMint",
      "type": "event"
    },
    {
      "anonymous": false,
      "inputs": [
        {
          "indexed": false,
          "internalType": "address",
          "name": "player",
          "type": "address"
        },
        {
          "indexed": false,
          "internalType": "uint256[]",
          "name": "matchIds",
          "type": "uint256[]"
        },
        {
          "indexed": false,
          "internalType": "uint256",
          "name": "reward",
          "type": "uint256"
        }
      ],
      "name": "RewardClaimed",
      "type": "event"
    },
    {
      "anonymous": false,
      "inputs": [
        {
          "indexed": true,
          "internalType": "address",
          "name": "from",
          "type": "address"
        },
        {
          "indexed": true,
          "internalType": "address",
          "name": "to",
          "type": "address"
        },
        {
          "indexed": true,
          "internalType": "uint256",
          "name": "tokenId",
          "type": "uint256"
        }
      ],
      "name": "Transfer",
      "type": "event"
    },
    {
      "inputs": [
        {
          "internalType": "string",
          "name": "_region",
          "type": "string"
        }
      ],
      "name": "activeMatchsCount",
      "outputs": [
        {
          "internalType": "uint256",
          "name": "count",
          "type": "uint256"
        }
      ],
      "stateMutability": "view",
      "type": "function"
    },
    {
      "inputs": [
        {
          "internalType": "address",
          "name": "to",
          "type": "address"
        },
        {
          "internalType": "uint256",
          "name": "tokenId",
          "type": "uint256"
        }
      ],
      "name": "approve",
      "outputs": [],
      "stateMutability": "nonpayable",
      "type": "function"
    },
    {
      "inputs": [
        {
          "internalType": "address",
          "name": "owner",
          "type": "address"
        }
      ],
      "name": "balanceOf",
      "outputs": [
        {
          "internalType": "uint256",
          "name": "",
          "type": "uint256"
        }
      ],
      "stateMutability": "view",
      "type": "function"
    },
    {
      "inputs": [],
      "name": "baseSupply",
      "outputs": [
        {
          "internalType": "uint256",
          "name": "",
          "type": "uint256"
        }
      ],
      "stateMutability": "view",
      "type": "function"
    },
    {
      "inputs": [],
      "name": "bbone",
      "outputs": [
        {
          "internalType": "contract IBBone",
          "name": "",
          "type": "address"
        }
      ],
      "stateMutability": "view",
      "type": "function"
    },
    {
      "inputs": [
        {
          "internalType": "uint256[]",
          "name": "_matchIds",
          "type": "uint256[]"
        },
        {
          "internalType": "uint256[]",
          "name": "_ranks",
          "type": "uint256[]"
        },
        {
          "internalType": "bytes32",
          "name": "r",
          "type": "bytes32"
        },
        {
          "internalType": "bytes32",
          "name": "s",
          "type": "bytes32"
        },
        {
          "internalType": "uint8",
          "name": "v",
          "type": "uint8"
        }
      ],
      "name": "claimReward",
      "outputs": [],
      "stateMutability": "nonpayable",
      "type": "function"
    },
    {
      "inputs": [
        {
          "internalType": "address",
          "name": "",
          "type": "address"
        }
      ],
      "name": "currentMatchForAddress",
      "outputs": [
        {
          "internalType": "uint256",
          "name": "",
          "type": "uint256"
        }
      ],
      "stateMutability": "view",
      "type": "function"
    },
    {
      "inputs": [
        {
          "internalType": "uint256",
          "name": "tokenId",
          "type": "uint256"
        }
      ],
      "name": "getApproved",
      "outputs": [
        {
          "internalType": "address",
          "name": "",
          "type": "address"
        }
      ],
      "stateMutability": "view",
      "type": "function"
    },
    {
      "inputs": [
        {
          "internalType": "uint256",
          "name": "_tokenId",
          "type": "uint256"
        }
      ],
      "name": "getTokenInfo",
      "outputs": [
        {
          "components": [
            {
              "internalType": "uint8",
              "name": "lvl",
              "type": "uint8"
            },
            {
              "internalType": "uint8",
              "name": "exp",
              "type": "uint8"
            },
            {
              "internalType": "uint8",
              "name": "revealed",
              "type": "uint8"
            },
            {
              "internalType": "uint256",
              "name": "skin",
              "type": "uint256"
            },
            {
              "internalType": "uint256",
              "name": "face",
              "type": "uint256"
            },
            {
              "internalType": "uint256",
              "name": "rarity",
              "type": "uint256"
            },
            {
              "internalType": "uint256",
              "name": "id",
              "type": "uint256"
            },
            {
              "internalType": "uint256",
              "name": "timestampMint",
              "type": "uint256"
            },
            {
              "internalType": "uint256",
              "name": "timestampStake",
              "type": "uint256"
            },
            {
              "internalType": "uint256",
              "name": "pendingReward",
              "type": "uint256"
            }
          ],
          "internalType": "struct FlappyAVAX.NftEntityExtended",
          "name": "",
          "type": "tuple"
        }
      ],
      "stateMutability": "view",
      "type": "function"
    },
    {
      "inputs": [
        {
          "internalType": "address",
          "name": "owner",
          "type": "address"
        },
        {
          "internalType": "address",
          "name": "operator",
          "type": "address"
        }
      ],
      "name": "isApprovedForAll",
      "outputs": [
        {
          "internalType": "bool",
          "name": "",
          "type": "bool"
        }
      ],
      "stateMutability": "view",
      "type": "function"
    },
    {
      "inputs": [],
      "name": "joeRouter",
      "outputs": [
        {
          "internalType": "contract IJoeRouter02",
          "name": "",
          "type": "address"
        }
      ],
      "stateMutability": "view",
      "type": "function"
    },
    {
      "inputs": [
        {
          "internalType": "uint256",
          "name": "_tokenId",
          "type": "uint256"
        },
        {
          "internalType": "string",
          "name": "region",
          "type": "string"
        }
      ],
      "name": "joinMatch",
      "outputs": [],
      "stateMutability": "nonpayable",
      "type": "function"
    },
    {
      "inputs": [
        {
          "internalType": "address",
          "name": "",
          "type": "address"
        }
      ],
      "name": "lastMatchIdClaimedForAccount",
      "outputs": [
        {
          "internalType": "uint256",
          "name": "",
          "type": "uint256"
        }
      ],
      "stateMutability": "view",
      "type": "function"
    },
    {
      "inputs": [],
      "name": "mainSigner",
      "outputs": [
        {
          "internalType": "address",
          "name": "",
          "type": "address"
        }
      ],
      "stateMutability": "view",
      "type": "function"
    },
    {
      "inputs": [
        {
          "internalType": "address",
          "name": "_address",
          "type": "address"
        }
      ],
      "name": "matchForAddress",
      "outputs": [
        {
          "internalType": "uint256",
          "name": "matchId",
          "type": "uint256"
        },
        {
          "internalType": "bool",
          "name": "finished",
          "type": "bool"
        },
        {
          "internalType": "uint256",
          "name": "timestamp",
          "type": "uint256"
        },
        {
          "internalType": "uint256",
          "name": "duration",
          "type": "uint256"
        },
        {
          "internalType": "bool",
          "name": "inMatch",
          "type": "bool"
        }
      ],
      "stateMutability": "view",
      "type": "function"
    },
    {
      "inputs": [],
      "name": "matchIdCounter",
      "outputs": [
        {
          "internalType": "uint256",
          "name": "",
          "type": "uint256"
        }
      ],
      "stateMutability": "view",
      "type": "function"
    },
    {
      "inputs": [
        {
          "internalType": "string",
          "name": "",
          "type": "string"
        },
        {
          "internalType": "uint256",
          "name": "",
          "type": "uint256"
        }
      ],
      "name": "matchSlots",
      "outputs": [
        {
          "internalType": "uint256",
          "name": "",
          "type": "uint256"
        }
      ],
      "stateMutability": "view",
      "type": "function"
    },
    {
      "inputs": [
        {
          "internalType": "uint256",
          "name": "",
          "type": "uint256"
        }
      ],
      "name": "matchs",
      "outputs": [
        {
          "internalType": "bool",
          "name": "started",
          "type": "bool"
        },
        {
          "internalType": "bool",
          "name": "finished",
          "type": "bool"
        },
        {
          "internalType": "uint256",
          "name": "timestamp",
          "type": "uint256"
        },
        {
          "internalType": "uint256",
          "name": "duration",
          "type": "uint256"
        },
        {
          "internalType": "uint256",
          "name": "maxPlayers",
          "type": "uint256"
        },
        {
          "internalType": "uint256",
          "name": "slot",
          "type": "uint256"
        }
      ],
      "stateMutability": "view",
      "type": "function"
    },
    {
      "inputs": [],
      "name": "matchsPerRegionServer",
      "outputs": [
        {
          "internalType": "uint256",
          "name": "",
          "type": "uint256"
        }
      ],
      "stateMutability": "view",
      "type": "function"
    },
    {
      "inputs": [],
      "name": "maxPlayersPerMatch",
      "outputs": [
        {
          "internalType": "uint256",
          "name": "",
          "type": "uint256"
        }
      ],
      "stateMutability": "view",
      "type": "function"
    },
    {
      "inputs": [],
      "name": "maxStakingTokensPerAccount",
      "outputs": [
        {
          "internalType": "uint256",
          "name": "",
          "type": "uint256"
        }
      ],
      "stateMutability": "view",
      "type": "function"
    },
    {
      "inputs": [
        {
          "internalType": "address",
          "name": "_for",
          "type": "address"
        },
        {
          "internalType": "uint256",
          "name": "_quantity",
          "type": "uint256"
        }
      ],
      "name": "mintWithAvax",
      "outputs": [],
      "stateMutability": "payable",
      "type": "function"
    },
    {
      "inputs": [],
      "name": "name",
      "outputs": [
        {
          "internalType": "string",
          "name": "",
          "type": "string"
        }
      ],
      "stateMutability": "view",
      "type": "function"
    },
    {
      "inputs": [
        {
          "internalType": "uint256",
          "name": "tokenId",
          "type": "uint256"
        }
      ],
      "name": "ownerOf",
      "outputs": [
        {
          "internalType": "address",
          "name": "",
          "type": "address"
        }
      ],
      "stateMutability": "view",
      "type": "function"
    },
    {
      "inputs": [],
      "name": "pairBboneAvax",
      "outputs": [
        {
          "internalType": "contract IJoePair",
          "name": "",
          "type": "address"
        }
      ],
      "stateMutability": "view",
      "type": "function"
    },
    {
      "inputs": [],
      "name": "rewardPerMinute",
      "outputs": [
        {
          "internalType": "uint256",
          "name": "",
          "type": "uint256"
        }
      ],
      "stateMutability": "view",
      "type": "function"
    },
    {
      "inputs": [
        {
          "internalType": "address",
          "name": "from",
          "type": "address"
        },
        {
          "internalType": "address",
          "name": "to",
          "type": "address"
        },
        {
          "internalType": "uint256",
          "name": "tokenId",
          "type": "uint256"
        }
      ],
      "name": "safeTransferFrom",
      "outputs": [],
      "stateMutability": "nonpayable",
      "type": "function"
    },
    {
      "inputs": [
        {
          "internalType": "address",
          "name": "from",
          "type": "address"
        },
        {
          "internalType": "address",
          "name": "to",
          "type": "address"
        },
        {
          "internalType": "uint256",
          "name": "tokenId",
          "type": "uint256"
        },
        {
          "internalType": "bytes",
          "name": "_data",
          "type": "bytes"
        }
      ],
      "name": "safeTransferFrom",
      "outputs": [],
      "stateMutability": "nonpayable",
      "type": "function"
    },
    {
      "inputs": [
        {
          "internalType": "string",
          "name": "",
          "type": "string"
        }
      ],
      "name": "serverRegions",
      "outputs": [
        {
          "internalType": "bool",
          "name": "",
          "type": "bool"
        }
      ],
      "stateMutability": "view",
      "type": "function"
    },
    {
      "inputs": [
        {
          "internalType": "address",
          "name": "operator",
          "type": "address"
        },
        {
          "internalType": "bool",
          "name": "approved",
          "type": "bool"
        }
      ],
      "name": "setApprovalForAll",
      "outputs": [],
      "stateMutability": "nonpayable",
      "type": "function"
    },
    {
      "inputs": [
        {
          "internalType": "uint256",
          "name": "_matchDuration",
          "type": "uint256"
        }
      ],
      "name": "setMatchDuration",
      "outputs": [],
      "stateMutability": "nonpayable",
      "type": "function"
    },
    {
      "inputs": [
        {
          "internalType": "uint256",
          "name": "_matchsPerRegionServer",
          "type": "uint256"
        }
      ],
      "name": "setMatchsPerRegion",
      "outputs": [],
      "stateMutability": "nonpayable",
      "type": "function"
    },
    {
      "inputs": [
        {
          "internalType": "uint256",
          "name": "_maxPlayersPerMatch",
          "type": "uint256"
        }
      ],
      "name": "setMaxPlayersPerMatch",
      "outputs": [],
      "stateMutability": "nonpayable",
      "type": "function"
    },
    {
      "inputs": [
        {
          "internalType": "string",
          "name": "_name",
          "type": "string"
        },
        {
          "internalType": "bool",
          "name": "status",
          "type": "bool"
        }
      ],
      "name": "setServerRegion",
      "outputs": [],
      "stateMutability": "nonpayable",
      "type": "function"
    },
    {
      "inputs": [
        {
          "internalType": "uint256[]",
          "name": "_tokenIds",
          "type": "uint256[]"
        }
      ],
      "name": "stake",
      "outputs": [],
      "stateMutability": "nonpayable",
      "type": "function"
    },
    {
      "inputs": [
        {
          "internalType": "address",
          "name": "_account",
          "type": "address"
        }
      ],
      "name": "stakedTokensOf",
      "outputs": [
        {
          "internalType": "uint256[]",
          "name": "tokenIds",
          "type": "uint256[]"
        }
      ],
      "stateMutability": "view",
      "type": "function"
    },
    {
      "inputs": [
        {
          "internalType": "address",
          "name": "_account",
          "type": "address"
        }
      ],
      "name": "stakedTokensWithInfoOf",
      "outputs": [
        {
          "components": [
            {
              "internalType": "uint8",
              "name": "lvl",
              "type": "uint8"
            },
            {
              "internalType": "uint8",
              "name": "exp",
              "type": "uint8"
            },
            {
              "internalType": "uint8",
              "name": "revealed",
              "type": "uint8"
            },
            {
              "internalType": "uint256",
              "name": "skin",
              "type": "uint256"
            },
            {
              "internalType": "uint256",
              "name": "face",
              "type": "uint256"
            },
            {
              "internalType": "uint256",
              "name": "rarity",
              "type": "uint256"
            },
            {
              "internalType": "uint256",
              "name": "id",
              "type": "uint256"
            },
            {
              "internalType": "uint256",
              "name": "timestampMint",
              "type": "uint256"
            },
            {
              "internalType": "uint256",
              "name": "timestampStake",
              "type": "uint256"
            },
            {
              "internalType": "uint256",
              "name": "pendingReward",
              "type": "uint256"
            }
          ],
          "internalType": "struct FlappyAVAX.NftEntityExtended[]",
          "name": "",
          "type": "tuple[]"
        }
      ],
      "stateMutability": "view",
      "type": "function"
    },
    {
      "inputs": [
        {
          "internalType": "address",
          "name": "",
          "type": "address"
        }
      ],
      "name": "stakingCountForAddress",
      "outputs": [
        {
          "internalType": "uint256",
          "name": "",
          "type": "uint256"
        }
      ],
      "stateMutability": "view",
      "type": "function"
    },
    {
      "inputs": [
        {
          "internalType": "bytes4",
          "name": "interfaceId",
          "type": "bytes4"
        }
      ],
      "name": "supportsInterface",
      "outputs": [
        {
          "internalType": "bool",
          "name": "",
          "type": "bool"
        }
      ],
      "stateMutability": "view",
      "type": "function"
    },
    {
      "inputs": [],
      "name": "symbol",
      "outputs": [
        {
          "internalType": "string",
          "name": "",
          "type": "string"
        }
      ],
      "stateMutability": "view",
      "type": "function"
    },
    {
      "inputs": [
        {
          "internalType": "uint256",
          "name": "tokenId",
          "type": "uint256"
        }
      ],
      "name": "tokenURI",
      "outputs": [
        {
          "internalType": "string",
          "name": "",
          "type": "string"
        }
      ],
      "stateMutability": "view",
      "type": "function"
    },
    {
      "inputs": [
        {
          "internalType": "address",
          "name": "_account",
          "type": "address"
        }
      ],
      "name": "tokensOf",
      "outputs": [
        {
          "internalType": "uint256[]",
          "name": "tokenIds",
          "type": "uint256[]"
        }
      ],
      "stateMutability": "view",
      "type": "function"
    },
    {
      "inputs": [
        {
          "internalType": "address",
          "name": "_account",
          "type": "address"
        }
      ],
      "name": "tokensWithInfoOf",
      "outputs": [
        {
          "components": [
            {
              "internalType": "uint8",
              "name": "lvl",
              "type": "uint8"
            },
            {
              "internalType": "uint8",
              "name": "exp",
              "type": "uint8"
            },
            {
              "internalType": "uint8",
              "name": "revealed",
              "type": "uint8"
            },
            {
              "internalType": "uint256",
              "name": "skin",
              "type": "uint256"
            },
            {
              "internalType": "uint256",
              "name": "face",
              "type": "uint256"
            },
            {
              "internalType": "uint256",
              "name": "rarity",
              "type": "uint256"
            },
            {
              "internalType": "uint256",
              "name": "id",
              "type": "uint256"
            },
            {
              "internalType": "uint256",
              "name": "timestampMint",
              "type": "uint256"
            },
            {
              "internalType": "uint256",
              "name": "timestampStake",
              "type": "uint256"
            },
            {
              "internalType": "uint256",
              "name": "pendingReward",
              "type": "uint256"
            }
          ],
          "internalType": "struct FlappyAVAX.NftEntityExtended[]",
          "name": "",
          "type": "tuple[]"
        }
      ],
      "stateMutability": "view",
      "type": "function"
    },
    {
      "inputs": [],
      "name": "totalRewardPerMatch",
      "outputs": [
        {
          "internalType": "uint256",
          "name": "",
          "type": "uint256"
        }
      ],
      "stateMutability": "view",
      "type": "function"
    },
    {
      "inputs": [
        {
          "internalType": "address",
          "name": "from",
          "type": "address"
        },
        {
          "internalType": "address",
          "name": "to",
          "type": "address"
        },
        {
          "internalType": "uint256",
          "name": "tokenId",
          "type": "uint256"
        }
      ],
      "name": "transferFrom",
      "outputs": [],
      "stateMutability": "nonpayable",
      "type": "function"
    },
    {
      "inputs": [
        {
          "internalType": "uint256[]",
          "name": "_portionRewardPerRank",
          "type": "uint256[]"
        }
      ],
      "name": "updateRewards",
      "outputs": [],
      "stateMutability": "nonpayable",
      "type": "function"
    },
    {
      "inputs": [
        {
          "internalType": "uint256[]",
          "name": "_tokenIds",
          "type": "uint256[]"
        },
        {
          "internalType": "bool",
          "name": "_unstake",
          "type": "bool"
        }
      ],
      "name": "withdraw",
      "outputs": [],
      "stateMutability": "nonpayable",
      "type": "function"
    }
  ],
  "bytecode": "0x60e06040526001600655670de0b6b3a7640000600855600a600955610258600b556064600c556002600d55610151600f553480156200003d57600080fd5b50604051620054c5380380620054c58339810160408190526200006091620003cf565b604080518082018252600a8082526908cd8c2e0e0f282ac82b60b31b602080840182815285518087019096529285528401528151919291620000a5916000916200030c565b508051620000bb9060019060208401906200030c565b5050506001600160a01b03848116608081905290841660c081905260405163095ea7b360e01b8152600481019290925260001960248301529063095ea7b3906044016020604051808303816000875af11580156200011d573d6000803e3d6000fd5b505050506040513d601f19601f820116820180604052508101906200014391906200042c565b50601080546001600160a01b0319166001600160a01b039384161790551660a052505060408051614e4160f01b8152600e60028201529051908190036022019020805460ff1916600117905560136020526108987f8fa6efc3be94b5b348b21fea823fe8d100408cee9b7f90524494500445d8ff6c556105147f4155c2f711f2cdd34f8262ab8fb9b7020a700fe7b6948222152f7670d1fdf34d556102bc7f0b9d2c0c271bb30544eb78c59bdaebdae2728e5f65814c07768a0abe90ed1923556101f47f0d2a6872ef858a7f8ead18dc4f3f2e8d35c853d47e2816cbb9cdd49202554e0c5561012c7f01413ff7a3b1d5b6c016c061d48e2c7014700c777a29fcd068fff04265813d5d5560fa7ff4b2859895858d6aa26d656e4999d552f6a869b74c43bba7d2a941c4d22c35595560c87f709d0e3cf89777a1e1f9c99632e4494f29b0327befd0df15e277a12d948257955560647f8ba6fb577925b0796671c737df59b8aaae861b630513fb12823699e3e0e3ee605560327f7b49122965436243734b7a552847e7503db682b4cbd4d2fd428feb216e8bcdf855600960005260197f76aa7d3cd4f559a3c98822aa7e1c37143eb9f80ceff73a5023a8fc3d6d44af615562000494565b8280546200031a9062000457565b90600052602060002090601f0160209004810192826200033e576000855562000389565b82601f106200035957805160ff191683800117855562000389565b8280016001018555821562000389579182015b82811115620003895782518255916020019190600101906200036c565b50620003979291506200039b565b5090565b5b808211156200039757600081556001016200039c565b80516001600160a01b0381168114620003ca57600080fd5b919050565b60008060008060808587031215620003e657600080fd5b620003f185620003b2565b93506200040160208601620003b2565b92506200041160408601620003b2565b91506200042160608601620003b2565b905092959194509250565b6000602082840312156200043f57600080fd5b815180151581146200045057600080fd5b9392505050565b600181811c908216806200046c57607f821691505b602082108114156200048e57634e487b7160e01b600052602260045260246000fd5b50919050565b60805160a05160c051614fd0620004f56000396000818161057e01528181610f750152818161222a01528181612bf80152612d5f0152600081816106fb0152612c1e01526000818161065001528181612b720152612e010152614fd06000f3fe6080604052600436106102875760003560e01c80635a3f26721161015a578063a22cb465116100c1578063c87b56dd1161007a578063c87b56dd146108ef578063dade62021461090f578063e985e9c51461092f578063ed0d37f11461094f578063f7cd08c11461096f578063ff9bb4091461098f57600080fd5b8063a22cb4651461082b578063ab08d4fc1461084b578063b6847f2f1461086b578063b88d4fde1461087e578063bbcacf031461089e578063be8b4e15146108b457600080fd5b8063860f504811610113578063860f50481461077d5780638744cac0146107935780638a09f036146107b35780638c7a63ae146107d357806395d89b41146108005780639c1635601461081557600080fd5b80635a3f2672146106725780635f9862831461069f578063608925de146106e95780636352211e1461071d57806370a082311461073d5780637f6838ca1461075d57600080fd5b806323b872dd116101fe578063476b6d92116101b7578063476b6d921461056c5780634c176a52146105a05780634f1e353f146105e85780634fdc2fb41461060857806359d04f1f1461061e57806359f571e81461063e57600080fd5b806323b872dd146104925780632401e4e6146104b257806328dd99d0146104d2578063366864c1146104ff57806342842e0e1461052c578063474fa01f1461054c57600080fd5b8063081812fc11610250578063081812fc1461033f578063095ea7b3146103775780630d83ed4b146103975780630fbf0a93146103c4578063147c610e146103e457806317c4ecfb1461041157600080fd5b80629bee371461028c57806301ffc9a7146102b55780630200c069146102e557806304d25d361461030757806306fdde031461031d575b600080fd5b34801561029857600080fd5b506102a260095481565b6040519081526020015b60405180910390f35b3480156102c157600080fd5b506102d56102d03660046143d5565b6109a5565b60405190151581526020016102ac565b3480156102f157600080fd5b5061030561030036600461443d565b6109f7565b005b34801561031357600080fd5b506102a260085481565b34801561032957600080fd5b50610332611027565b6040516102ac9190614531565b34801561034b57600080fd5b5061035f61035a366004614544565b6110b9565b6040516001600160a01b0390911681526020016102ac565b34801561038357600080fd5b50610305610392366004614572565b61114e565b3480156103a357600080fd5b506102a26103b236600461459e565b60176020526000908152604090205481565b3480156103d057600080fd5b506103056103df3660046145bb565b611264565b3480156103f057600080fd5b506102a26103ff36600461459e565b60126020526000908152604090205481565b34801561041d57600080fd5b5061046361042c366004614544565b6015602052600090815260409020805460018201546002830154600384015460049094015460ff8085169561010090950416939086565b6040805196151587529415156020870152938501929092526060840152608083015260a082015260c0016102ac565b34801561049e57600080fd5b506103056104ad3660046145fc565b6115aa565b3480156104be57600080fd5b506103056104cd366004614693565b6115db565b3480156104de57600080fd5b506102a26104ed36600461459e565b60166020526000908152604090205481565b34801561050b57600080fd5b5061051f61051a36600461459e565b611613565b6040516102ac9190614765565b34801561053857600080fd5b506103056105473660046145fc565b611632565b34801561055857600080fd5b50610305610567366004614544565b61164d565b34801561057857600080fd5b5061035f7f000000000000000000000000000000000000000000000000000000000000000081565b3480156105ac57600080fd5b506102a26105bb366004614871565b81516020818401810180516014825292820194820194909420919093529091526000908152604090205481565b3480156105f457600080fd5b506102a26106033660046148b5565b61167f565b34801561061457600080fd5b506102a2600a5481565b34801561062a57600080fd5b50610305610639366004614544565b611707565b34801561064a57600080fd5b5061035f7f000000000000000000000000000000000000000000000000000000000000000081565b34801561067e57600080fd5b5061069261068d36600461459e565b61175d565b6040516102ac91906148ea565b3480156106ab57600080fd5b506106bf6106ba36600461459e565b611768565b6040805195865293151560208601529284019190915260608301521515608082015260a0016102ac565b3480156106f557600080fd5b5061035f7f000000000000000000000000000000000000000000000000000000000000000081565b34801561072957600080fd5b5061035f610738366004614544565b6117dc565b34801561074957600080fd5b506102a261075836600461459e565b611853565b34801561076957600080fd5b506103056107783660046145bb565b6118da565b34801561078957600080fd5b506102a260075481565b34801561079f57600080fd5b506103056107ae366004614922565b611ded565b3480156107bf57600080fd5b506103056107ce3660046149d9565b612298565b3480156107df57600080fd5b506107f36107ee366004614544565b6127bd565b6040516102ac9190614a24565b34801561080c57600080fd5b506103326128c2565b34801561082157600080fd5b506102a2600d5481565b34801561083757600080fd5b50610305610846366004614a33565b6128d1565b34801561085757600080fd5b5061069261086636600461459e565b6128e0565b610305610879366004614572565b6128eb565b34801561088a57600080fd5b50610305610899366004614a68565b612e86565b3480156108aa57600080fd5b506102a2600f5481565b3480156108c057600080fd5b506102d56108cf366004614ae7565b8051602081830181018051600e8252928201919093012091525460ff1681565b3480156108fb57600080fd5b5061033261090a366004614544565b612ebe565b34801561091b57600080fd5b5060105461035f906001600160a01b031681565b34801561093b57600080fd5b506102d561094a366004614b1b565b612fa5565b34801561095b57600080fd5b5061051f61096a36600461459e565b612fd3565b34801561097b57600080fd5b5061030561098a366004614544565b612fe0565b34801561099b57600080fd5b506102a2600c5481565b60006001600160e01b031982166380ac58cd60e01b14806109d657506001600160e01b03198216635b5e139f60e01b145b806109f157506301ffc9a760e01b6001600160e01b03198316145b92915050565b333b15610a1f5760405162461bcd60e51b8152600401610a1690614b54565b60405180910390fd5b600654600114610a415760405162461bcd60e51b8152600401610a1690614b76565b60026006558515801590610a5457508315155b610a925760405162461bcd60e51b815260206004820152600f60248201526e125b9d985b1a59081c995c5d595cdd608a1b6044820152606401610a16565b858414610ad35760405162461bcd60e51b815260206004820152600f60248201526e125b9d985b1a59081c995c5d595cdd608a1b6044820152606401610a16565b6000878787873330604051602001610af096959493929190614bd0565b604051602081830303815290604052805190602001209050600081604051602001610b4791907f19457468657265756d205369676e6564204d6573736167653a0a3332000000008152601c810191909152603c0190565b60408051808303601f1901815282825280516020918201206010546000855291840180845281905260ff87169284019290925260608301889052608083018790529092506001600160a01b03169060019060a0016020604051602081039080840390855afa158015610bbd573d6000803e3d6000fd5b505050602060405103516001600160a01b031614610c0f5760405162461bcd60e51b815260206004820152600f60248201526e57726f6e67207369676e617475726560881b6044820152606401610a16565b6000805b89811015610f58576000898983818110610c2f57610c2f614c1e565b90506020020135905060008c8c84818110610c4c57610c4c614c1e565b90506020020135905060008111610c985760405162461bcd60e51b815260206004820152601060248201526f13585d18da081a59081a5b9d985b1a5960821b6044820152606401610a16565b600082118015610ca85750606582105b610ce35760405162461bcd60e51b815260206004820152600c60248201526b14985b9ac81a5b9d985b1a5960a21b6044820152606401610a16565b600081815260156020526040902060010154610d375760405162461bcd60e51b815260206004820152601360248201527213585d18da081a5cdb89dd081cdd185c9d1959606a1b6044820152606401610a16565b60008181526015602052604090206001810154600290910154610d5a9190613012565b15610d9f5760405162461bcd60e51b815260206004820152601560248201527413585d18da081a5cc81b9bdd08199a5b9a5cda1959605a1b6044820152606401610a16565b600081815260156020908152604080832033845260060190915290205460ff16610e025760405162461bcd60e51b8152602060048201526014602482015273082c8c8e4cae6e640dcdee840d2dc40dac2e8c6d60631b6044820152606401610a16565b6000818152601560209081526040808320338452600601909152902054610100900460ff1615610e745760405162461bcd60e51b815260206004820181905260248201527f4163636f756e7420616e64206d617463682072657761726420636c61696d65646044820152606401610a16565b600081815260156020908152604080832085845260070190915290205415610ede5760405162461bcd60e51b815260206004820152601c60248201527f52616e6b2072657761726420686173206265656e20636c61696d6564000000006044820152606401610a16565b6000610ee983613027565b60008381526015602090815260408083208784526007019091529020600190559050610f158186614c4a565b6000928352601560209081526040808520338652600601909152909220805461ff0019166101001781556002810191909155600190810192909255925001610c13565b506040516340c10f1960e01b8152336004820152602481018290527f00000000000000000000000000000000000000000000000000000000000000006001600160a01b0316906340c10f1990604401600060405180830381600087803b158015610fc157600080fd5b505af1158015610fd5573d6000803e3d6000fd5b505050507fde44805992b70ab499033e37a0bb5830acec04de9ed6d99e81d48e67cf454bad338b8b8460405161100e9493929190614c62565b60405180910390a1505060016006555050505050505050565b60606000805461103690614c98565b80601f016020809104026020016040519081016040528092919081815260200182805461106290614c98565b80156110af5780601f10611084576101008083540402835291602001916110af565b820191906000526020600020905b81548152906001019060200180831161109257829003601f168201915b5050505050905090565b6000818152600260205260408120546001600160a01b03166111325760405162461bcd60e51b815260206004820152602c60248201527f4552433732313a20617070726f76656420717565727920666f72206e6f6e657860448201526b34b9ba32b73a103a37b5b2b760a11b6064820152608401610a16565b506000908152600460205260409020546001600160a01b031690565b6000611159826117dc565b9050806001600160a01b0316836001600160a01b031614156111c75760405162461bcd60e51b815260206004820152602160248201527f4552433732313a20617070726f76616c20746f2063757272656e74206f776e656044820152603960f91b6064820152608401610a16565b336001600160a01b03821614806111e357506111e38133612fa5565b6112555760405162461bcd60e51b815260206004820152603860248201527f4552433732313a20617070726f76652063616c6c6572206973206e6f74206f7760448201527f6e6572206e6f7220617070726f76656420666f7220616c6c00000000000000006064820152608401610a16565b61125f83836131ed565b505050565b333b156112835760405162461bcd60e51b8152600401610a1690614b54565b6006546001146112a55760405162461bcd60e51b8152600401610a1690614b76565b6002600655806112b433611853565b10156112f75760405162461bcd60e51b81526020600482015260126024820152714e6f7420656e6f7567682062616c616e636560701b6044820152606401610a16565b60095433600090815260126020526040902054611315908390614c4a565b11156113635760405162461bcd60e51b815260206004820152601d60248201527f4d617820746f6b656e73207374616b656420666f72206163636f756e740000006044820152606401610a16565b60005b818110156115a05761138f83838381811061138357611383614c1e565b905060200201356117dc565b6001600160a01b0316336001600160a01b0316146113e65760405162461bcd60e51b815260206004820152601460248201527329b2b73232b91036bab9ba1031329037bbb732b960611b6044820152606401610a16565b601160008484848181106113fc576113fc614c1e565b90506020020135815260200190815260200160002060000160029054906101000a900460ff16156114685760405162461bcd60e51b8152602060048201526016602482015275151bdad95b8818dd5c9c995b9d1b1e481cdd185ad95960521b6044820152606401610a16565b61148983838381811061147d5761147d614c1e565b9050602002013561325b565b6114d05760405162461bcd60e51b8152602060048201526018602482015277151bdad95b881cda1bdd5b19081899481c995d99585b195960421b6044820152606401610a16565b6000601160008585858181106114e8576114e8614c1e565b90506020020135815260200190815260200160002060020181905550426011600085858581811061151b5761151b614c1e565b9050602002013581526020019081526020016000206004018190555060016011600085858581811061154f5761154f614c1e565b6020908102929092013583525081810192909252604090810160009081208054941515620100000262ff00001990951694909417909355338352601290915290208054600190810190915501611366565b5050600160065550565b6115b43382613282565b6115d05760405162461bcd60e51b8152600401610a1690614cd3565b61125f838383613351565b80600e84846040516115ee929190614d24565b908152604051908190036020019020805491151560ff19909216919091179055505050565b60606000611620836134f8565b905061162b8161364d565b9392505050565b61125f83838360405180602001604052806000815250612e86565b60008111801561165e57506103e881105b61167a5760405162461bcd60e51b8152600401610a1690614d34565b600d55565b6000805b600d54811015611700576000601485856040516116a1929190614d24565b908152604080516020928190038301902060008581529252902054905080158015906116eb5750600081815260156020526040902060018101546002909101546116eb9190613012565b156116f7578260010192505b50600101611683565b5092915050565b600a8111801561171957506202a30081105b6117585760405162461bcd60e51b815260206004820152601060248201526f24b73b30b634b210323ab930ba34b7b760811b6044820152606401610a16565b600b55565b60606109f182613704565b6001600160a01b0381166000908152601660205260408120549080808084156117d35750600084815260156020526040902060018181015460029092015490916117b191613012565b6000868152601560205260409020600181015460029091015491159550935091505b91939590929450565b6000818152600260205260408120546001600160a01b0316806109f15760405162461bcd60e51b815260206004820152602960248201527f4552433732313a206f776e657220717565727920666f72206e6f6e657869737460448201526832b73a103a37b5b2b760b91b6064820152608401610a16565b60006001600160a01b0382166118be5760405162461bcd60e51b815260206004820152602a60248201527f4552433732313a2062616c616e636520717565727920666f7220746865207a65604482015269726f206164647265737360b01b6064820152608401610a16565b506001600160a01b031660009081526003602052604090205490565b600a811461192a5760405162461bcd60e51b815260206004820152601c60248201527f4c656e677468206f662061727261792073686f756c64206265203130000000006044820152606401610a16565b60008282600981811061193f5761193f614c1e565b90506020020135600a6119529190614d5e565b8383600881811061196557611965614c1e565b90506020020135600a6119789190614d5e565b8484600781811061198b5761198b614c1e565b90506020020135600a61199e9190614d5e565b858560068181106119b1576119b1614c1e565b90506020020135600a6119c49190614d5e565b868660058181106119d7576119d7614c1e565b9050602002013560056119ea9190614d5e565b878760048181106119fd576119fd614c1e565b9050602002013588886003818110611a1757611a17614c1e565b9050602002013589896002818110611a3157611a31614c1e565b905060200201358a8a6001818110611a4b57611a4b614c1e565b905060200201358b8b6000818110611a6557611a65614c1e565b90506020020135611a769190614c4a565b611a809190614c4a565b611a8a9190614c4a565b611a949190614c4a565b611a9e9190614c4a565b611aa89190614c4a565b611ab29190614c4a565b611abc9190614c4a565b611ac69190614c4a565b90508061271014611b195760405162461bcd60e51b815260206004820152601e60248201527f53756d206f6620726577617264732073686f756c6420626520313030303000006044820152606401610a16565b82826000818110611b2c57611b2c614c1e565b60008052601360209081520291909101357f8fa6efc3be94b5b348b21fea823fe8d100408cee9b7f90524494500445d8ff6c555082826001818110611b7357611b73614c1e565b6001600052601360209081520291909101357f4155c2f711f2cdd34f8262ab8fb9b7020a700fe7b6948222152f7670d1fdf34d555082826002818110611bbb57611bbb614c1e565b6002600052601360209081520291909101357f0b9d2c0c271bb30544eb78c59bdaebdae2728e5f65814c07768a0abe90ed1923555082826003818110611c0357611c03614c1e565b6003600052601360209081520291909101357f0d2a6872ef858a7f8ead18dc4f3f2e8d35c853d47e2816cbb9cdd49202554e0c555082826004818110611c4b57611c4b614c1e565b6004600052601360209081520291909101357f01413ff7a3b1d5b6c016c061d48e2c7014700c777a29fcd068fff04265813d5d555082826005818110611c9357611c93614c1e565b6005600052601360209081520291909101357ff4b2859895858d6aa26d656e4999d552f6a869b74c43bba7d2a941c4d22c3559555082826006818110611cdb57611cdb614c1e565b6006600052601360209081520291909101357f709d0e3cf89777a1e1f9c99632e4494f29b0327befd0df15e277a12d94825795555082826007818110611d2357611d23614c1e565b6007600052601360209081520291909101357f8ba6fb577925b0796671c737df59b8aaae861b630513fb12823699e3e0e3ee60555082826008818110611d6b57611d6b614c1e565b6008600052601360209081520291909101357f7b49122965436243734b7a552847e7503db682b4cbd4d2fd428feb216e8bcdf8555082826009818110611db357611db3614c1e565b6009600052601360209081520291909101357f76aa7d3cd4f559a3c98822aa7e1c37143eb9f80ceff73a5023a8fc3d6d44af615550505050565b333b15611e0c5760405162461bcd60e51b8152600401610a1690614b54565b600654600114611e2e5760405162461bcd60e51b8152600401610a1690614b76565b60026006556000805b835181101561220d57600060116000868481518110611e5857611e58614c1e565b602090810291909101810151825281810192909252604090810160002081516101008082018452825460ff80821684529181048216958301959095526201000090940490931615159183018290526001810154606084015260028101546080840152600381015460a0840152600481015460c08401526005015460e0830152909150611f195760405162461bcd60e51b815260206004820152601060248201526f151bdad95b881b9bdd081cdd185ad95960821b6044820152606401610a16565b603f8160c0015142611f2b9190614d7d565b1015611f795760405162461bcd60e51b815260206004820181905260248201527f4e65656420363320736563207374616b656420636c61696d2f756e7374616b656044820152606401610a16565b611f9b858381518110611f8e57611f8e614c1e565b60200260200101516137f0565b611fa59084614c4a565b9250600080611fcc878581518110611fbf57611fbf614c1e565b6020026020010151613950565b91509150851561213a5760808301511561205a57608083018051600090815260156020526040808220600101549251825290206002015461200d9190613012565b1561205a5760405162461bcd60e51b815260206004820152601c60248201527f546f6b656e20696e206d617463682063616e277420756e7374616b65000000006044820152606401610a16565b60006011600089878151811061207257612072614c1e565b6020026020010151815260200190815260200160002060000160026101000a81548160ff0219169083151502179055506000601160008987815181106120ba576120ba614c1e565b602002602001015181526020019081526020016000206002018190555042632e593c006120e79190614c4a565b601160008987815181106120fd576120fd614c1e565b602090810291909101810151825281810192909252604090810160009081206004019390935533835260129091529020805460001901905561216f565b426011600089878151811061215157612151614c1e565b60200260200101518152602001908152602001600020600401819055505b816011600089878151811061218657612186614c1e565b6020026020010151815260200190815260200160002060000160006101000a81548160ff021916908360ff16021790555080601160008987815181106121ce576121ce614c1e565b6020026020010151815260200190815260200160002060000160016101000a81548160ff021916908360ff160217905550836001019350505050611e37565b506040516340c10f1960e01b8152336004820152602481018290527f00000000000000000000000000000000000000000000000000000000000000006001600160a01b0316906340c10f1990604401600060405180830381600087803b15801561227657600080fd5b505af115801561228a573d6000803e3d6000fd5b505060016006555050505050565b333b156122b75760405162461bcd60e51b8152600401610a1690614b54565b6006546001146122d95760405162461bcd60e51b8152600401610a1690614b76565b6002600655604051600e906122f19084908490614d24565b9081526040519081900360200190205460ff166123415760405162461bcd60e51b815260206004820152600e60248201526d24b73b30b634b2103932b3b4b7b760911b6044820152606401610a16565b8261235e5760405162461bcd60e51b8152600401610a1690614d94565b8261237b5760405162461bcd60e51b8152600401610a1690614d94565b33612385846117dc565b6001600160a01b0316146123db5760405162461bcd60e51b815260206004820152601b60248201527f546f6b656e206e6f74206f776e65642066726f6d2073656e64657200000000006044820152606401610a16565b60008381526011602090815260409182902082516101008082018552825460ff80821684529181048216948301949094526201000090930490921615159282018390526001810154606083015260028101546080830152600381015460a0830152600481015460c08301526005015460e0820152906124955760405162461bcd60e51b8152602060048201526016602482015275151bdad95b881cda1bdd5b19081899481cdd185ad95960521b6044820152606401610a16565b6080810151156125105760808101805160009081526015602052604080822060010154925182529020600201546124cc9190613012565b156125105760405162461bcd60e51b8152602060048201526014602482015273086eae4e4cadce8d8f240d2dc40c240dac2e8c6d60631b6044820152606401610a16565b33600090815260166020526040902054801561259157600081815260156020526040902060018101546002909101546125499190613012565b1561258d5760405162461bcd60e51b8152602060048201526014602482015273086eae4e4cadce8d8f240d2dc40c240dac2e8c6d60631b6044820152606401610a16565b5060005b61259b8484613a06565b9050806125df5760405162461bcd60e51b81526020600482015260126024820152714e6f206d6174636820617661696c61626c6560701b6044820152606401610a16565b80601160008781526020019081526020016000206002018190555060156000828152602001908152602001600020600501339080600181540180825580915050600190039060005260206000200160009091909190916101000a8154816001600160a01b0302191690836001600160a01b031602179055506040518060c00160405280600115158152602001600015158152602001600081526020016000815260200142815260200186815250601560008381526020019081526020016000206006016000336001600160a01b03166001600160a01b0316815260200190815260200160002060008201518160000160006101000a81548160ff02191690831515021790555060208201518160000160016101000a81548160ff02191690831515021790555060408201518160010155606082015181600201556080820151816003015560a082015181600401559050508060166000336001600160a01b03166001600160a01b03168152602001908152602001600020819055507f2d15cdeceb400aef1ceda76fb5e684ad33b5877ff819da3f41e4b90f9704a50b3382876040516127a9939291906001600160a01b039390931683526020830191909152604082015260600190565b60405180910390a150506001600655505050565b6127c5614360565b6000806127d184613950565b604080516101408101825260ff808516825283166020808301919091526000828401819052606083018190526080830181905260a0830181905260c083018a90528981526011808352938120600381015460e08501528a82529390915260049092015461010082015261012081019190915291935091506128518561325b565b156128ba57600080600061286488613bb5565b6001604080890191909152606088018390526080880182905260a0880184905260008c815260116020522054929550909350915062010000900460ff16156128b6576128af886137f0565b6101208501525b5050505b949350505050565b60606001805461103690614c98565b6128dc338383613c89565b5050565b60606109f1826134f8565b60065460011461290d5760405162461bcd60e51b8152600401610a1690614b76565b6002600655333b156129315760405162461bcd60e51b8152600401610a1690614b54565b8061294e5760405162461bcd60e51b8152600401610a1690614d34565b603281111561299f5760405162461bcd60e51b815260206004820152601f60248201527f496e76616c6964207175616e746974792c206d6178206d696e7420702f7478006044820152606401610a16565b612710816007546129b09190614c4a565b11156129f45760405162461bcd60e51b8152602060048201526013602482015272496e73756666696369656e7420737570706c7960681b6044820152606401610a16565b612a0681670de0b6b3a7640000614d5e565b3414612a545760405162461bcd60e51b815260206004820152601d60248201527f496e636f727265637420616d6f756e74206f6620415641582073656e740000006044820152606401610a16565b60005b81811015612b6d5760078054906000612a6f83614dbe565b909155505060075460408051610100808201835260018083526020808401828152600085870181815260608701898152608088018381524260a08a0190815260c08a018581524360e08c019081528d875260119098529a90942098518954955193511515620100000262ff00001960ff958616909a0261ffff19909716919094161794909417969096161786559351928501929092559051600284015590516003830155915160048201559051600590910155612b2c8482613d58565b604080518281524260208201527ff9d43470bb9ff77b3dfc3ab28eeebc545ae9c37fc3187148201077df2aeca761910160405180910390a150600101612a57565b5060007f00000000000000000000000000000000000000000000000000000000000000006001600160a01b03166373b295c26040518163ffffffff1660e01b8152600401602060405180830381865afa158015612bce573d6000803e3d6000fd5b505050506040513d601f19601f82011682018060405250810190612bf29190614dd9565b905060007f000000000000000000000000000000000000000000000000000000000000000090506000807f00000000000000000000000000000000000000000000000000000000000000006001600160a01b0316630902f1ac6040518163ffffffff1660e01b8152600401606060405180830381865afa158015612c7a573d6000803e3d6000fd5b505050506040513d601f19601f82011682018060405250810190612c9e9190614e0d565b506001600160701b031691506001600160701b031691506000836001600160a01b0316856001600160a01b031610612cd65783612cd8565b845b9050600080826001600160a01b0316876001600160a01b031614612cfd578385612d00565b84845b915091506000826000148015612d14575081155b15612d2b57612d24346064614d5e565b9050612d43565b82612d368334614d5e565b612d409190614e73565b90505b6040516340c10f1960e01b8152306004820152602481018290527f00000000000000000000000000000000000000000000000000000000000000006001600160a01b0316906340c10f1990604401600060405180830381600087803b158015612dab57600080fd5b505af1158015612dbf573d6000803e3d6000fd5b5050604051637c8d9fb960e11b81526001600160a01b038a811660048301526024820185905260006044830181905260648301523060848301524260a48301527f000000000000000000000000000000000000000000000000000000000000000016925063f91b3f729150349060c40160606040518083038185885af1158015612e4d573d6000803e3d6000fd5b50505050506040513d601f19601f82011682018060405250810190612e729190614e87565b505060016006555050505050505050505050565b612e903383613282565b612eac5760405162461bcd60e51b8152600401610a1690614cd3565b612eb884848484613d72565b50505050565b6000818152600260205260409020546060906001600160a01b0316612f3d5760405162461bcd60e51b815260206004820152602f60248201527f4552433732314d657461646174613a2055524920717565727920666f72206e6f60448201526e3732bc34b9ba32b73a103a37b5b2b760891b6064820152608401610a16565b6000612f5460408051602081019091526000815290565b90506000815111612f74576040518060200160405280600081525061162b565b80612f7e84613da5565b604051602001612f8f929190614eb5565b6040516020818303038152906040529392505050565b6001600160a01b03918216600090815260056020908152604080832093909416825291909152205460ff1690565b6060600061162083613704565b600081118015612ff157506105dc81105b61300d5760405162461bcd60e51b8152600401610a1690614d34565b600c55565b60008161301f8442614d7d565b109392505050565b6000806001831015801561303c575060058311155b156130665760136000613050600186614d7d565b81526020019081526020016000205490506131cf565b600683101580156130785750600a8311155b156130af5750600560005260136020527ff4b2859895858d6aa26d656e4999d552f6a869b74c43bba7d2a941c4d22c3559546131cf565b600b83101580156130c1575060148311155b156130f85750600660005260136020527f709d0e3cf89777a1e1f9c99632e4494f29b0327befd0df15e277a12d94825795546131cf565b6015831015801561310a5750601e8311155b156131415750600760005260136020527f8ba6fb577925b0796671c737df59b8aaae861b630513fb12823699e3e0e3ee60546131cf565b601f8310158015613153575060288311155b1561318a5750600860005260136020527f7b49122965436243734b7a552847e7503db682b4cbd4d2fd428feb216e8bcdf8546131cf565b6029831015801561319c575060328311155b156131cf5750600960005260136020527f76aa7d3cd4f559a3c98822aa7e1c37143eb9f80ceff73a5023a8fc3d6d44af61545b80600f546131dd9190614d5e565b61162b90655af3107a4000614d5e565b600081815260046020526040902080546001600160a01b0319166001600160a01b0384169081179091558190613222826117dc565b6001600160a01b03167f8c5be1e5ebec7d5bd14f71427d1e84f3dd0314c0f7b2291e5b200ac8c7c3b92560405160405180910390a45050565b600081815260116020526040812060030154605a9061327a9042614d7d565b101592915050565b6000818152600260205260408120546001600160a01b03166132fb5760405162461bcd60e51b815260206004820152602c60248201527f4552433732313a206f70657261746f7220717565727920666f72206e6f6e657860448201526b34b9ba32b73a103a37b5b2b760a11b6064820152608401610a16565b6000613306836117dc565b9050806001600160a01b0316846001600160a01b031614806133415750836001600160a01b0316613336846110b9565b6001600160a01b0316145b806128ba57506128ba8185612fa5565b826001600160a01b0316613364826117dc565b6001600160a01b0316146133c85760405162461bcd60e51b815260206004820152602560248201527f4552433732313a207472616e736665722066726f6d20696e636f72726563742060448201526437bbb732b960d91b6064820152608401610a16565b6001600160a01b03821661342a5760405162461bcd60e51b8152602060048201526024808201527f4552433732313a207472616e7366657220746f20746865207a65726f206164646044820152637265737360e01b6064820152608401610a16565b613435838383613ea2565b6134406000826131ed565b6001600160a01b0383166000908152600360205260408120805460019290613469908490614d7d565b90915550506001600160a01b0382166000908152600360205260408120805460019290613497908490614c4a565b909155505060008181526002602052604080822080546001600160a01b0319166001600160a01b0386811691821790925591518493918716917fddf252ad1be2c89b69c2b068fc378daa952ba7f163c4a11628f55a4df523b3ef91a4505050565b6060600061350583613704565b90506000805b8251811015613565576011600084838151811061352a5761352a614c1e565b6020026020010151815260200190815260200160002060000160029054906101000a900460ff161561355d578160010191505b60010161350b565b506000816001600160401b03811115613580576135806147b4565b6040519080825280602002602001820160405280156135a9578160200160208202803683370190505b5090506000805b845181101561364257601160008683815181106135cf576135cf614c1e565b6020026020010151815260200190815260200160002060000160029054906101000a900460ff161561363a5784818151811061360d5761360d614c1e565b602002602001015183838151811061362757613627614c1e565b6020026020010181815250508160010191505b6001016135b0565b509095945050505050565b6060600082516001600160401b0381111561366a5761366a6147b4565b6040519080825280602002602001820160405280156136a357816020015b613690614360565b8152602001906001900390816136885790505b50905060005b8351811015611700576136d48482815181106136c7576136c7614c1e565b60200260200101516127bd565b8282815181106136e6576136e6614c1e565b602002602001018190525080806136fc90614dbe565b9150506136a9565b6060600061371183611853565b90506000816001600160401b0381111561372d5761372d6147b4565b604051908082528060200260200182016040528015613756578160200160208202803683370190505b5090506000805b838110156137e6576000828152600260205260409020546001600160a01b0316151580156137a45750856001600160a01b0316613799836117dc565b6001600160a01b0316145b156137d4578183826137b581614dbe565b9350815181106137c7576137c7614c1e565b6020026020010181815250505b816137de81614dbe565b92505061375d565b5090949350505050565b60008161380f5760405162461bcd60e51b8152600401610a1690614d94565b6138188261325b565b6138575760405162461bcd60e51b815260206004820152601060248201526f151bdad95b881d5b9c995d99585b195960821b6044820152606401610a16565b60008281526011602052604090205462010000900460ff166138ae5760405162461bcd60e51b815260206004820152601060248201526f151bdad95b881b9bdd081cdd185ad95960821b6044820152606401610a16565b6000828152601160205260408120600401546138ca9042614d7d565b905060006138d784613950565b50905060006138e7603c84614e73565b6008546138f49190614d5e565b9050600060648360ff16106139205761390e606483614e73565b613919906064614d5e565b905061393c565b60ff831661392f606484614e73565b6139399190614d5e565b90505b6139468282614c4a565b9695505050505050565b60008181526011602052604090205460ff808216916101008104821691620100009091041615613a015760008381526011602052604081206004015460ff8316906103609061399f9042614d7d565b6139a99190614e73565b6139b39190614c4a565b905060006139c2606483614ee4565b9050600060ff85166139d5606485614e73565b6139df9190614c4a565b9050606481106139f65760649450606493506139fd565b8094508193505b5050505b915091565b6000808080805b600d54811015613ac157600060148888604051613a2b929190614d24565b90815260408051602092819003830190206000858152925290205490508015801590613a75575060008181526015602052604090206001810154600290910154613a759190613012565b15613aab57600081815260156020526040902060038101546005909101541015613aa0579450613ac1565b846001019450613ab8565b82613ab857819350600192505b50600101613a0d565b50808015613acd575083155b8015613ada5750600d5483105b15613bac57600a8054600101908190556040519094508490601490613b029089908990614d24565b9081526040805191829003602090810183206000878152908252828120949094558784526015815292819020805461ffff19166001908117825542908201819055600b80546002840155600c8054600385015560048401899055905490548a865295850188905292840152606083019190915260808201929092527f6d8553337c68f22df50c1a8f50319dca0bfbccbddd72e2a9fa87937271eff69b9060a00160405180910390a1505b50505092915050565b600081815260116020526040812060050154819081908190613be390613bdc906002614c4a565b6003613f66565b9050600581600281518110613bfa57613bfa614c1e565b6020026020010151613c0c9190614ee4565b613c17906001614c4a565b602a82600081518110613c2c57613c2c614c1e565b6020026020010151613c3e9190614ee4565b613c49906001614c4a565b601883600181518110613c5e57613c5e614c1e565b6020026020010151613c709190614ee4565b613c7b906001614c4a565b935093509350509193909250565b816001600160a01b0316836001600160a01b03161415613ceb5760405162461bcd60e51b815260206004820152601960248201527f4552433732313a20617070726f766520746f2063616c6c6572000000000000006044820152606401610a16565b6001600160a01b03838116600081815260056020908152604080832094871680845294825291829020805460ff191686151590811790915591519182527f17307eab39ab6107e8899845ad3d59bd9653f200f220920489ca2b5937696c31910160405180910390a3505050565b6128dc828260405180602001604052806000815250614034565b613d7d848484613351565b613d8984848484614067565b612eb85760405162461bcd60e51b8152600401610a1690614ef8565b606081613dc95750506040805180820190915260018152600360fc1b602082015290565b8160005b8115613df35780613ddd81614dbe565b9150613dec9050600a83614e73565b9150613dcd565b6000816001600160401b03811115613e0d57613e0d6147b4565b6040519080825280601f01601f191660200182016040528015613e37576020820181803683370190505b5090505b84156128ba57613e4c600183614d7d565b9150613e59600a86614ee4565b613e64906030614c4a565b60f81b818381518110613e7957613e79614c1e565b60200101906001600160f81b031916908160001a905350613e9b600a86614e73565b9450613e3b565b60008181526011602052604090205462010000900460ff1615613f075760405162461bcd60e51b815260206004820152601b60248201527f43616e2774207472616e73666572207374616b656420746f6b656e00000000006044820152606401610a16565b6001600160a01b0383161561125f57613f1f8161325b565b61125f5760405162461bcd60e51b8152602060048201526018602482015277151bdad95b881cda1bdd5b19081899481c995d99585b195960421b6044820152606401610a16565b60606000613f75600185614d7d565b40613f81600386614d7d565b40613f8d600587614d7d565b40613f99600888614d7d565b40613fa5600f89614d7d565b4088613fb2600a82614d7d565b40613fbe60098c614d7d565b40613fca600c8d614d7d565b60408051602081019a909a528901979097526060880195909552608087019390935260a086019190915260c085015260e084015261010083015240610120820152610140016040516020818303038152906040528051906020012060001c90506128ba8184614165565b61403e8383614212565b61404b6000848484614067565b61125f5760405162461bcd60e51b8152600401610a1690614ef8565b60006001600160a01b0384163b1561415a57604051630a85bd0160e11b81526001600160a01b0385169063150b7a02906140ab903390899088908890600401614f4a565b6020604051808303816000875af19250505080156140e6575060408051601f3d908101601f191682019092526140e391810190614f7d565b60015b614140573d808015614114576040519150601f19603f3d011682016040523d82523d6000602084013e614119565b606091505b5080516141385760405162461bcd60e51b8152600401610a1690614ef8565b805181602001fd5b6001600160e01b031916630a85bd0160e11b1490506128ba565b506001949350505050565b6060816001600160401b0381111561417f5761417f6147b4565b6040519080825280602002602001820160405280156141a8578160200160208202803683370190505b50905060005b828110156117005760408051602081018690529081018290526060016040516020818303038152906040528051906020012060001c8282815181106141f5576141f5614c1e565b60209081029190910101528061420a81614dbe565b9150506141ae565b6001600160a01b0382166142685760405162461bcd60e51b815260206004820181905260248201527f4552433732313a206d696e7420746f20746865207a65726f20616464726573736044820152606401610a16565b6000818152600260205260409020546001600160a01b0316156142cd5760405162461bcd60e51b815260206004820152601c60248201527f4552433732313a20746f6b656e20616c7265616479206d696e746564000000006044820152606401610a16565b6142d960008383613ea2565b6001600160a01b0382166000908152600360205260408120805460019290614302908490614c4a565b909155505060008181526002602052604080822080546001600160a01b0319166001600160a01b03861690811790915590518392907fddf252ad1be2c89b69c2b068fc378daa952ba7f163c4a11628f55a4df523b3ef908290a45050565b604051806101400160405280600060ff168152602001600060ff168152602001600060ff168152602001600081526020016000815260200160008152602001600081526020016000815260200160008152602001600081525090565b6001600160e01b0319811681146143d257600080fd5b50565b6000602082840312156143e757600080fd5b813561162b816143bc565b60008083601f84011261440457600080fd5b5081356001600160401b0381111561441b57600080fd5b6020830191508360208260051b850101111561443657600080fd5b9250929050565b600080600080600080600060a0888a03121561445857600080fd5b87356001600160401b038082111561446f57600080fd5b61447b8b838c016143f2565b909950975060208a013591508082111561449457600080fd5b506144a18a828b016143f2565b9096509450506040880135925060608801359150608088013560ff811681146144c957600080fd5b8091505092959891949750929550565b60005b838110156144f45781810151838201526020016144dc565b83811115612eb85750506000910152565b6000815180845261451d8160208601602086016144d9565b601f01601f19169290920160200192915050565b60208152600061162b6020830184614505565b60006020828403121561455657600080fd5b5035919050565b6001600160a01b03811681146143d257600080fd5b6000806040838503121561458557600080fd5b82356145908161455d565b946020939093013593505050565b6000602082840312156145b057600080fd5b813561162b8161455d565b600080602083850312156145ce57600080fd5b82356001600160401b038111156145e457600080fd5b6145f0858286016143f2565b90969095509350505050565b60008060006060848603121561461157600080fd5b833561461c8161455d565b9250602084013561462c8161455d565b929592945050506040919091013590565b60008083601f84011261464f57600080fd5b5081356001600160401b0381111561466657600080fd5b60208301915083602082850101111561443657600080fd5b8035801515811461468e57600080fd5b919050565b6000806000604084860312156146a857600080fd5b83356001600160401b038111156146be57600080fd5b6146ca8682870161463d565b90945092506146dd90506020850161467e565b90509250925092565b805160ff1682526020810151614701602084018260ff169052565b506040810151614716604084018260ff169052565b50606081015160608301526080810151608083015260a081015160a083015260c081015160c083015260e081015160e08301526101008082015181840152506101208082015181840152505050565b6020808252825182820181905260009190848201906040850190845b818110156147a8576147948385516146e6565b928401926101409290920191600101614781565b50909695505050505050565b634e487b7160e01b600052604160045260246000fd5b604051601f8201601f191681016001600160401b03811182821017156147f2576147f26147b4565b604052919050565b60006001600160401b03831115614813576148136147b4565b614826601f8401601f19166020016147ca565b905082815283838301111561483a57600080fd5b828260208301376000602084830101529392505050565b600082601f83011261486257600080fd5b61162b838335602085016147fa565b6000806040838503121561488457600080fd5b82356001600160401b0381111561489a57600080fd5b6148a685828601614851565b95602094909401359450505050565b600080602083850312156148c857600080fd5b82356001600160401b038111156148de57600080fd5b6145f08582860161463d565b6020808252825182820181905260009190848201906040850190845b818110156147a857835183529284019291840191600101614906565b6000806040838503121561493557600080fd5b82356001600160401b038082111561494c57600080fd5b818501915085601f83011261496057600080fd5b8135602082821115614974576149746147b4565b8160051b92506149858184016147ca565b828152928401810192818101908985111561499f57600080fd5b948201945b848610156149bd578535825294820194908201906149a4565b96506149cc905087820161467e565b9450505050509250929050565b6000806000604084860312156149ee57600080fd5b8335925060208401356001600160401b03811115614a0b57600080fd5b614a178682870161463d565b9497909650939450505050565b61014081016109f182846146e6565b60008060408385031215614a4657600080fd5b8235614a518161455d565b9150614a5f6020840161467e565b90509250929050565b60008060008060808587031215614a7e57600080fd5b8435614a898161455d565b93506020850135614a998161455d565b92506040850135915060608501356001600160401b03811115614abb57600080fd5b8501601f81018713614acc57600080fd5b614adb878235602084016147fa565b91505092959194509250565b600060208284031215614af957600080fd5b81356001600160401b03811115614b0f57600080fd5b6128ba84828501614851565b60008060408385031215614b2e57600080fd5b8235614b398161455d565b91506020830135614b498161455d565b809150509250929050565b6020808252600890820152674f6e6c7920454f4160c01b604082015260600190565b6020808252600a90820152695245454e5452414e435960b01b604082015260600190565b81835260006001600160fb1b03831115614bb357600080fd5b8260051b8083602087013760009401602001938452509192915050565b608081526000614be460808301888a614b9a565b8281036020840152614bf7818789614b9a565b6001600160a01b039586166040850152939094166060909201919091525095945050505050565b634e487b7160e01b600052603260045260246000fd5b634e487b7160e01b600052601160045260246000fd5b60008219821115614c5d57614c5d614c34565b500190565b6001600160a01b0385168152606060208201819052600090614c879083018587614b9a565b905082604083015295945050505050565b600181811c90821680614cac57607f821691505b60208210811415614ccd57634e487b7160e01b600052602260045260246000fd5b50919050565b60208082526031908201527f4552433732313a207472616e736665722063616c6c6572206973206e6f74206f6040820152701ddb995c881b9bdc88185c1c1c9bdd9959607a1b606082015260800190565b8183823760009101908152919050565b60208082526010908201526f496e76616c6964207175616e7469747960801b604082015260600190565b6000816000190483118215151615614d7857614d78614c34565b500290565b600082821015614d8f57614d8f614c34565b500390565b60208082526010908201526f125b9d985b1a59081d1bdad95b881a5960821b604082015260600190565b6000600019821415614dd257614dd2614c34565b5060010190565b600060208284031215614deb57600080fd5b815161162b8161455d565b80516001600160701b038116811461468e57600080fd5b600080600060608486031215614e2257600080fd5b614e2b84614df6565b9250614e3960208501614df6565b9150604084015163ffffffff81168114614e5257600080fd5b809150509250925092565b634e487b7160e01b600052601260045260246000fd5b600082614e8257614e82614e5d565b500490565b600080600060608486031215614e9c57600080fd5b8351925060208401519150604084015190509250925092565b60008351614ec78184602088016144d9565b835190830190614edb8183602088016144d9565b01949350505050565b600082614ef357614ef3614e5d565b500690565b60208082526032908201527f4552433732313a207472616e7366657220746f206e6f6e20455243373231526560408201527131b2b4bb32b91034b6b83632b6b2b73a32b960711b606082015260800190565b6001600160a01b038581168252841660208201526040810183905260806060820181905260009061394690830184614505565b600060208284031215614f8f57600080fd5b815161162b816143bc56fea2646970667358221220147cb34ed7d0ebf842a5c1844e38c53654dbb5ac2e5b9259e0651b1b3029b13864736f6c634300080c0033",
  "linkReferences": {},
  "deployedLinkReferences": {}
}