{
  "_format": "hh-sol-artifact-1",
  "contractName": "MatchManager",
  "sourceName": "contracts/MatchManager.sol",
  "abi": [
    {
      "inputs": [
        {
          "internalType": "address",
          "name": "_mainSigner",
          "type": "address"
        },
        {
          "internalType": "address",
          "name": "_bbone",
          "type": "address"
        },
        {
          "internalType": "address",
          "name": "_flappyAvax",
          "type": "address"
        }
      ],
      "stateMutability": "nonpayable",
      "type": "constructor"
    },
    {
      "anonymous": false,
      "inputs": [
        {
          "indexed": false,
          "internalType": "uint256",
          "name": "matchDuration",
          "type": "uint256"
        }
      ],
      "name": "MatchDurationUpdated",
      "type": "event"
    },
    {
      "anonymous": false,
      "inputs": [
        {
          "indexed": false,
          "internalType": "uint256",
          "name": "maxPlayersPerMatch",
          "type": "uint256"
        }
      ],
      "name": "MaxPlayersPerMatchUpdated",
      "type": "event"
    },
    {
      "anonymous": false,
      "inputs": [
        {
          "indexed": false,
          "internalType": "address",
          "name": "player",
          "type": "address"
        },
        {
          "indexed": false,
          "internalType": "uint256",
          "name": "matchId",
          "type": "uint256"
        },
        {
          "indexed": false,
          "internalType": "uint256",
          "name": "tokenId",
          "type": "uint256"
        }
      ],
      "name": "NewAddressInMatch",
      "type": "event"
    },
    {
      "anonymous": false,
      "inputs": [
        {
          "indexed": false,
          "internalType": "uint256",
          "name": "matchId",
          "type": "uint256"
        },
        {
          "indexed": false,
          "internalType": "uint256",
          "name": "slot",
          "type": "uint256"
        },
        {
          "indexed": false,
          "internalType": "uint256",
          "name": "timestamp",
          "type": "uint256"
        },
        {
          "indexed": false,
          "internalType": "uint256",
          "name": "duration",
          "type": "uint256"
        },
        {
          "indexed": false,
          "internalType": "uint256",
          "name": "maxPlayers",
          "type": "uint256"
        },
        {
          "indexed": false,
          "internalType": "uint256[]",
          "name": "rewards",
          "type": "uint256[]"
        },
        {
          "indexed": false,
          "internalType": "uint256",
          "name": "totalRewardPerMatch",
          "type": "uint256"
        }
      ],
      "name": "NewMatch",
      "type": "event"
    },
    {
      "anonymous": false,
      "inputs": [
        {
          "indexed": true,
          "internalType": "address",
          "name": "previousOwner",
          "type": "address"
        },
        {
          "indexed": true,
          "internalType": "address",
          "name": "newOwner",
          "type": "address"
        }
      ],
      "name": "OwnershipTransferred",
      "type": "event"
    },
    {
      "anonymous": false,
      "inputs": [
        {
          "indexed": false,
          "internalType": "uint256[]",
          "name": "portionRewardPerRank",
          "type": "uint256[]"
        }
      ],
      "name": "PortionRewardPerRankUpdated",
      "type": "event"
    },
    {
      "anonymous": false,
      "inputs": [
        {
          "indexed": false,
          "internalType": "address",
          "name": "player",
          "type": "address"
        },
        {
          "indexed": false,
          "internalType": "uint256[]",
          "name": "matchIds",
          "type": "uint256[]"
        },
        {
          "indexed": false,
          "internalType": "uint256",
          "name": "reward",
          "type": "uint256"
        }
      ],
      "name": "RewardClaimed",
      "type": "event"
    },
    {
      "anonymous": false,
      "inputs": [
        {
          "indexed": false,
          "internalType": "address",
          "name": "matchDuration",
          "type": "address"
        }
      ],
      "name": "StakingManagerUpdated",
      "type": "event"
    },
    {
      "inputs": [
        {
          "internalType": "string",
          "name": "_region",
          "type": "string"
        }
      ],
      "name": "activeMatchsCount",
      "outputs": [
        {
          "internalType": "uint256",
          "name": "count",
          "type": "uint256"
        }
      ],
      "stateMutability": "view",
      "type": "function"
    },
    {
      "inputs": [],
      "name": "allowedNftContract",
      "outputs": [
        {
          "internalType": "contract IBobtailNFT",
          "name": "",
          "type": "address"
        }
      ],
      "stateMutability": "view",
      "type": "function"
    },
    {
      "inputs": [],
      "name": "bbone",
      "outputs": [
        {
          "internalType": "contract IBBone",
          "name": "",
          "type": "address"
        }
      ],
      "stateMutability": "view",
      "type": "function"
    },
    {
      "inputs": [
        {
          "internalType": "uint256",
          "name": "_rank",
          "type": "uint256"
        },
        {
          "internalType": "uint256",
          "name": "_matchId",
          "type": "uint256"
        }
      ],
      "name": "calculateReward",
      "outputs": [
        {
          "internalType": "uint256",
          "name": "",
          "type": "uint256"
        }
      ],
      "stateMutability": "view",
      "type": "function"
    },
    {
      "inputs": [
        {
          "internalType": "uint256[]",
          "name": "_matchIds",
          "type": "uint256[]"
        },
        {
          "internalType": "uint256[]",
          "name": "_ranks",
          "type": "uint256[]"
        },
        {
          "internalType": "bytes32",
          "name": "r",
          "type": "bytes32"
        },
        {
          "internalType": "bytes32",
          "name": "s",
          "type": "bytes32"
        },
        {
          "internalType": "uint8",
          "name": "v",
          "type": "uint8"
        }
      ],
      "name": "claimReward",
      "outputs": [],
      "stateMutability": "nonpayable",
      "type": "function"
    },
    {
      "inputs": [
        {
          "internalType": "address",
          "name": "",
          "type": "address"
        }
      ],
      "name": "currentMatchForAddress",
      "outputs": [
        {
          "internalType": "uint256",
          "name": "",
          "type": "uint256"
        }
      ],
      "stateMutability": "view",
      "type": "function"
    },
    {
      "inputs": [
        {
          "internalType": "uint256",
          "name": "",
          "type": "uint256"
        }
      ],
      "name": "currentMatchForToken",
      "outputs": [
        {
          "internalType": "uint256",
          "name": "",
          "type": "uint256"
        }
      ],
      "stateMutability": "view",
      "type": "function"
    },
    {
      "inputs": [
        {
          "internalType": "uint256",
          "name": "_tokenId",
          "type": "uint256"
        },
        {
          "internalType": "string",
          "name": "region",
          "type": "string"
        }
      ],
      "name": "joinMatch",
      "outputs": [],
      "stateMutability": "nonpayable",
      "type": "function"
    },
    {
      "inputs": [
        {
          "internalType": "address",
          "name": "",
          "type": "address"
        }
      ],
      "name": "lastMatchIdClaimedForAccount",
      "outputs": [
        {
          "internalType": "uint256",
          "name": "",
          "type": "uint256"
        }
      ],
      "stateMutability": "view",
      "type": "function"
    },
    {
      "inputs": [],
      "name": "mainSigner",
      "outputs": [
        {
          "internalType": "address",
          "name": "",
          "type": "address"
        }
      ],
      "stateMutability": "view",
      "type": "function"
    },
    {
      "inputs": [],
      "name": "matchCountPerRegion",
      "outputs": [
        {
          "internalType": "uint256",
          "name": "",
          "type": "uint256"
        }
      ],
      "stateMutability": "view",
      "type": "function"
    },
    {
      "inputs": [],
      "name": "matchDuration",
      "outputs": [
        {
          "internalType": "uint256",
          "name": "",
          "type": "uint256"
        }
      ],
      "stateMutability": "view",
      "type": "function"
    },
    {
      "inputs": [
        {
          "internalType": "address",
          "name": "_address",
          "type": "address"
        }
      ],
      "name": "matchForAddress",
      "outputs": [
        {
          "internalType": "uint256",
          "name": "matchId",
          "type": "uint256"
        },
        {
          "internalType": "bool",
          "name": "finished",
          "type": "bool"
        },
        {
          "internalType": "uint256",
          "name": "timestamp",
          "type": "uint256"
        },
        {
          "internalType": "uint256",
          "name": "duration",
          "type": "uint256"
        },
        {
          "internalType": "bool",
          "name": "inMatch",
          "type": "bool"
        }
      ],
      "stateMutability": "view",
      "type": "function"
    },
    {
      "inputs": [],
      "name": "matchIdCounter",
      "outputs": [
        {
          "internalType": "uint256",
          "name": "",
          "type": "uint256"
        }
      ],
      "stateMutability": "view",
      "type": "function"
    },
    {
      "inputs": [
        {
          "internalType": "uint256",
          "name": "",
          "type": "uint256"
        }
      ],
      "name": "matchs",
      "outputs": [
        {
          "internalType": "bool",
          "name": "started",
          "type": "bool"
        },
        {
          "internalType": "bool",
          "name": "finished",
          "type": "bool"
        },
        {
          "internalType": "uint256",
          "name": "timestamp",
          "type": "uint256"
        },
        {
          "internalType": "uint256",
          "name": "duration",
          "type": "uint256"
        },
        {
          "internalType": "uint256",
          "name": "maxPlayers",
          "type": "uint256"
        },
        {
          "internalType": "uint256",
          "name": "slot",
          "type": "uint256"
        },
        {
          "internalType": "uint256",
          "name": "totalRewardPerMatch",
          "type": "uint256"
        }
      ],
      "stateMutability": "view",
      "type": "function"
    },
    {
      "inputs": [],
      "name": "maxPlayersPerMatch",
      "outputs": [
        {
          "internalType": "uint256",
          "name": "",
          "type": "uint256"
        }
      ],
      "stateMutability": "view",
      "type": "function"
    },
    {
      "inputs": [],
      "name": "owner",
      "outputs": [
        {
          "internalType": "address",
          "name": "",
          "type": "address"
        }
      ],
      "stateMutability": "view",
      "type": "function"
    },
    {
      "inputs": [],
      "name": "renounceOwnership",
      "outputs": [],
      "stateMutability": "nonpayable",
      "type": "function"
    },
    {
      "inputs": [
        {
          "internalType": "string",
          "name": "",
          "type": "string"
        }
      ],
      "name": "serverRegions",
      "outputs": [
        {
          "internalType": "bool",
          "name": "",
          "type": "bool"
        }
      ],
      "stateMutability": "view",
      "type": "function"
    },
    {
      "inputs": [
        {
          "internalType": "uint256",
          "name": "_matchDuration",
          "type": "uint256"
        }
      ],
      "name": "setMatchDuration",
      "outputs": [],
      "stateMutability": "nonpayable",
      "type": "function"
    },
    {
      "inputs": [
        {
          "internalType": "uint256",
          "name": "_matchCountPerRegion",
          "type": "uint256"
        }
      ],
      "name": "setMatchsPerRegion",
      "outputs": [],
      "stateMutability": "nonpayable",
      "type": "function"
    },
    {
      "inputs": [
        {
          "internalType": "uint256",
          "name": "_maxPlayersPerMatch",
          "type": "uint256"
        }
      ],
      "name": "setMaxPlayersPerMatch",
      "outputs": [],
      "stateMutability": "nonpayable",
      "type": "function"
    },
    {
      "inputs": [
        {
          "internalType": "uint256[]",
          "name": "_portionRewardPerRank",
          "type": "uint256[]"
        }
      ],
      "name": "setPortionRewardPerRank",
      "outputs": [],
      "stateMutability": "nonpayable",
      "type": "function"
    },
    {
      "inputs": [
        {
          "internalType": "string",
          "name": "_name",
          "type": "string"
        },
        {
          "internalType": "bool",
          "name": "status",
          "type": "bool"
        }
      ],
      "name": "setServerRegion",
      "outputs": [],
      "stateMutability": "nonpayable",
      "type": "function"
    },
    {
      "inputs": [
        {
          "internalType": "address",
          "name": "_stakingManager",
          "type": "address"
        }
      ],
      "name": "setStakingManager",
      "outputs": [],
      "stateMutability": "nonpayable",
      "type": "function"
    },
    {
      "inputs": [],
      "name": "stakingManager",
      "outputs": [
        {
          "internalType": "contract IBobtailStaking",
          "name": "",
          "type": "address"
        }
      ],
      "stateMutability": "view",
      "type": "function"
    },
    {
      "inputs": [
        {
          "internalType": "uint256",
          "name": "_tokenId",
          "type": "uint256"
        }
      ],
      "name": "tokenInMatch",
      "outputs": [
        {
          "internalType": "bool",
          "name": "",
          "type": "bool"
        }
      ],
      "stateMutability": "view",
      "type": "function"
    },
    {
      "inputs": [],
      "name": "totalRewardPerMatch",
      "outputs": [
        {
          "internalType": "uint256",
          "name": "",
          "type": "uint256"
        }
      ],
      "stateMutability": "view",
      "type": "function"
    },
    {
      "inputs": [
        {
          "internalType": "address",
          "name": "newOwner",
          "type": "address"
        }
      ],
      "name": "transferOwnership",
      "outputs": [],
      "stateMutability": "nonpayable",
      "type": "function"
    }
  ],
  "bytecode": "0x6001600055610151600355600a60c08181526102206040529060e0610140803683375050815162000038926005925060200190620002bd565b50603c600655606460075560026008553480156200005557600080fd5b50604051620029b7380380620029b7833981016040819052620000789162000341565b62000083336200026b565b600480546001600160a01b0319166001600160a01b038581169190911790915560408051614e4160f01b8152600960028201529051908190036022019020805460ff19166001179055828116608052811660a052600580546108989190600090620000f257620000f26200038b565b906000526020600020018190555061051460056001815481106200011a576200011a6200038b565b90600052602060002001819055506102bc60056002815481106200014257620001426200038b565b90600052602060002001819055506101f460056003815481106200016a576200016a6200038b565b906000526020600020018190555061012c60056004815481106200019257620001926200038b565b906000526020600020018190555060fa60058081548110620001b857620001b86200038b565b906000526020600020018190555060c86005600681548110620001df57620001df6200038b565b9060005260206000200181905550606460056007815481106200020657620002066200038b565b9060005260206000200181905550603260056008815481106200022d576200022d6200038b565b9060005260206000200181905550601960056009815481106200025457620002546200038b565b9060005260206000200181905550505050620003a1565b600180546001600160a01b038381166001600160a01b0319831681179093556040519116919082907f8be0079c531659141344cd1fd0a4f28419497f9722a3daafe3b4186f6b6457e090600090a35050565b828054828255906000526020600020908101928215620002fb579160200282015b82811115620002fb578251825591602001919060010190620002de565b50620003099291506200030d565b5090565b5b808211156200030957600081556001016200030e565b80516001600160a01b03811681146200033c57600080fd5b919050565b6000806000606084860312156200035757600080fd5b620003628462000324565b9250620003726020850162000324565b9150620003826040850162000324565b90509250925092565b634e487b7160e01b600052603260045260246000fd5b60805160a0516125e2620003d5600039600081816104aa01526116e30152600081816103420152610c5701526125e26000f3fe608060405234801561001057600080fd5b50600436106101cf5760003560e01c80635f98628311610104578063bb626fde116100a2578063e6c4070e11610071578063e6c4070e146104a5578063f2fde38b146104cc578063f7cd08c1146104df578063ff9bb409146104f257600080fd5b8063bb626fde1461043b578063bbcacf031461045b578063be8b4e1514610464578063dade62021461049257600080fd5b8063885a5021116100de578063885a5021146103e15780638a09f036146104045780638da5cb5b14610417578063b00bba6a1461042857600080fd5b80635f986283146103935780636d5e8f28146103d0578063715018a6146103d957600080fd5b806328dd99d011610171578063476b6d921161014b578063476b6d921461033d5780634f1e353f146103645780634fdc2fb41461037757806359d04f1f1461038057600080fd5b806328dd99d0146102f757806337bc01e114610317578063474fa01f1461032a57600080fd5b806313ed0846116101ad57806313ed08461461022557806317c4ecfb1461023857806322828cc2146102b95780632401e4e6146102e457600080fd5b80630200c069146101d45780630d83ed4b146101e95780630e649a0b1461021c575b600080fd5b6101e76101e2366004612017565b6104fb565b005b6102096101f73660046120c9565b600f6020526000908152604090205481565b6040519081526020015b60405180910390f35b61020960065481565b6102096102333660046120e6565b610d0a565b610282610246366004612108565b600c6020526000908152604090208054600182015460028301546003840154600485015460079095015460ff8086169661010090960416949087565b6040805197151588529515156020880152948601939093526060850191909152608084015260a083015260c082015260e001610213565b6002546102cc906001600160a01b031681565b6040516001600160a01b039091168152602001610213565b6101e76102f2366004612171565b610eb2565b6102096103053660046120c9565b600d6020526000908152604090205481565b6101e76103253660046121c8565b610eea565b6101e7610338366004612108565b611354565b6102cc7f000000000000000000000000000000000000000000000000000000000000000081565b61020961037236600461220a565b6113a9565b610209600b5481565b6101e761038e366004612108565b611417565b6103a66103a13660046120c9565b6114ce565b6040805195865293151560208601529284019190915260608301521515608082015260a001610213565b61020960085481565b6101e7611528565b6103f46103ef366004612108565b61155e565b6040519015158152602001610213565b6101e7610412366004612240565b61158c565b6001546001600160a01b03166102cc565b6101e76104363660046120c9565b611b49565b610209610449366004612108565b600e6020526000908152604090205481565b61020960035481565b6103f46104723660046122a2565b805160208183018101805160098252928201919093012091525460ff1681565b6004546102cc906001600160a01b031681565b6102cc7f000000000000000000000000000000000000000000000000000000000000000081565b6101e76104da3660046120c9565b611bc1565b6101e76104ed366004612108565b611c5c565b61020960075481565b60005460011461053f5760405162461bcd60e51b815260206004820152600a6024820152695245454e5452414e435960b01b60448201526064015b60405180910390fd5b6002600055851580159061055257508315155b6105905760405162461bcd60e51b815260206004820152600f60248201526e125b9d985b1a59081c995c5d595cdd608a1b6044820152606401610536565b8584146105d15760405162461bcd60e51b815260206004820152600f60248201526e125b9d985b1a59081c995c5d595cdd608a1b6044820152606401610536565b60008787878733306040516020016105ee96959493929190612389565b60405160208183030381529060405280519060200120905060008160405160200161064591907f19457468657265756d205369676e6564204d6573736167653a0a3332000000008152601c810191909152603c0190565b60408051808303601f1901815282825280516020918201206004546000855291840180845281905260ff87169284019290925260608301889052608083018790529092506001600160a01b03169060019060a0016020604051602081039080840390855afa1580156106bb573d6000803e3d6000fd5b505050602060405103516001600160a01b03161461070d5760405162461bcd60e51b815260206004820152600f60248201526e57726f6e67207369676e617475726560881b6044820152606401610536565b6000805b89811015610c345760008b8b8381811061072d5761072d6123d7565b90506020020135116107745760405162461bcd60e51b815260206004820152601060248201526f13585d18da081a59081a5b9d985b1a5960821b6044820152606401610536565b6000898983818110610788576107886123d7565b905060200201351180156107b4575060658989838181106107ab576107ab6123d7565b90506020020135105b6107ef5760405162461bcd60e51b815260206004820152600c60248201526b14985b9ac81a5b9d985b1a5960a21b6044820152606401610536565b600c60008c8c84818110610805576108056123d7565b90506020020135815260200190815260200160002060010154600014156108645760405162461bcd60e51b815260206004820152601360248201527213585d18da081a5cdb89dd081cdd185c9d1959606a1b6044820152606401610536565b6108858b8b83818110610879576108796123d7565b90506020020135611d0b565b156108ca5760405162461bcd60e51b815260206004820152601560248201527413585d18da081a5cc81b9bdd08199a5b9a5cda1959605a1b6044820152606401610536565b600c60008c8c848181106108e0576108e06123d7565b60209081029290920135835250818101929092526040908101600090812033825260080190925290205460ff166109505760405162461bcd60e51b8152602060048201526014602482015273082c8c8e4cae6e640dcdee840d2dc40dac2e8c6d60631b6044820152606401610536565b600c60008c8c84818110610966576109666123d7565b602090810292909201358352508181019290925260409081016000908120338252600801909252902054610100900460ff16156109e55760405162461bcd60e51b815260206004820181905260248201527f4163636f756e7420616e64206d617463682072657761726420636c61696d65646044820152606401610536565b600c60008c8c848181106109fb576109fb6123d7565b90506020020135815260200190815260200160002060090160008a8a84818110610a2757610a276123d7565b90506020020135815260200190815260200160002054600014610a8c5760405162461bcd60e51b815260206004820152601c60248201527f52616e6b2072657761726420686173206265656e20636c61696d6564000000006044820152606401610536565b6000610ac88a8a84818110610aa357610aa36123d7565b905060200201358d8d85818110610abc57610abc6123d7565b90506020020135610d0a565b90506001600c60008e8e86818110610ae257610ae26123d7565b602090810292909201358352508181019290925260409081016000908120338252600801909252812080549215156101000261ff001990931692909217909155600190600c908e8e86818110610b3a57610b3a6123d7565b90506020020135815260200190815260200160002060090160008c8c86818110610b6657610b666123d7565b9050602002013581526020019081526020016000208190555080600c60008e8e86818110610b9657610b966123d7565b602090810292909201358352508181019290925260409081016000908120338252600801909252902060020155898983818110610bd557610bd56123d7565b90506020020135600c60008e8e86818110610bf257610bf26123d7565b602090810292909201358352508181019290925260409081016000908120338252600801909252902060010155610c298184612403565b925050600101610711565b508015610cf957604051634a0a0e4b60e01b8152336004820152602481018290527f00000000000000000000000000000000000000000000000000000000000000006001600160a01b031690634a0a0e4b90604401600060405180830381600087803b158015610ca357600080fd5b505af1158015610cb7573d6000803e3d6000fd5b505050507fde44805992b70ab499033e37a0bb5830acec04de9ed6d99e81d48e67cf454bad338b8b84604051610cf0949392919061241b565b60405180910390a15b505060016000555050505050505050565b6000818152600c60209081526040808320600601805482518185028101850190935280835284938493929190830182828015610d6557602002820191906000526020600020905b815481526020019060010190808311610d51575b5050505050905060018510158015610d7e575060058511155b15610dae5780610d8f600187612451565b81518110610d9f57610d9f6123d7565b60200260200101519150610e8b565b60068510158015610dc05750600a8511155b15610dd85780600581518110610d9f57610d9f6123d7565b600b8510158015610dea575060148511155b15610e025780600681518110610d9f57610d9f6123d7565b60158510158015610e145750601e8511155b15610e2c5780600781518110610d9f57610d9f6123d7565b601f8510158015610e3e575060288511155b15610e565780600881518110610d9f57610d9f6123d7565b60298510158015610e68575060328511155b15610e8b5780600981518110610e8057610e806123d7565b602002602001015191505b81600354610e999190612468565b610ea990655af3107a4000612468565b95945050505050565b8060098484604051610ec5929190612487565b908152604051908190036020019020805491151560ff19909216919091179055505050565b6001546001600160a01b03163314610f145760405162461bcd60e51b815260040161053690612497565b600a8114610f645760405162461bcd60e51b815260206004820152601c60248201527f4c656e677468206f662061727261792073686f756c64206265203130000000006044820152606401610536565b600082826009818110610f7957610f796123d7565b90506020020135600a610f8c9190612468565b83836008818110610f9f57610f9f6123d7565b90506020020135600a610fb29190612468565b84846007818110610fc557610fc56123d7565b90506020020135600a610fd89190612468565b85856006818110610feb57610feb6123d7565b90506020020135600a610ffe9190612468565b86866005818110611011576110116123d7565b9050602002013560056110249190612468565b87876004818110611037576110376123d7565b9050602002013588886003818110611051576110516123d7565b905060200201358989600281811061106b5761106b6123d7565b905060200201358a8a6001818110611085576110856123d7565b905060200201358b8b600081811061109f5761109f6123d7565b905060200201356110b09190612403565b6110ba9190612403565b6110c49190612403565b6110ce9190612403565b6110d89190612403565b6110e29190612403565b6110ec9190612403565b6110f69190612403565b6111009190612403565b905080612710146111535760405162461bcd60e51b815260206004820152601e60248201527f53756d206f6620726577617264732073686f756c6420626520313030303000006044820152606401610536565b61138983836000818110611169576111696123d7565b9050602002013510801561119757506113898383600181811061118e5761118e6123d7565b90506020020135105b80156111bd5750611389838360028181106111b4576111b46123d7565b90506020020135105b80156111e35750611389838360038181106111da576111da6123d7565b90506020020135105b8015611209575061138983836004818110611200576112006123d7565b90506020020135105b801561122f575061138983836005818110611226576112266123d7565b90506020020135105b801561125557506113898383600681811061124c5761124c6123d7565b90506020020135105b801561127b575061138983836007818110611272576112726123d7565b90506020020135105b80156112a1575061138983836008818110611298576112986123d7565b90506020020135105b80156112c75750611389838360098181106112be576112be6123d7565b90506020020135105b6113095760405162461bcd60e51b8152602060048201526013602482015272496e76616c69642076616c7565203c3530303160681b6044820152606401610536565b61131560058484611f2b565b507f7772810e3ad8acd693759832bb96eda9b7da2793639ace6af2f1fdc8c0afa81083836040516113479291906124cc565b60405180910390a1505050565b60008111801561136557506103e881105b6113a45760405162461bcd60e51b815260206004820152601060248201526f496e76616c6964207175616e7469747960801b6044820152606401610536565b600855565b6000805b600854811015611410576000600a85856040516113cb929190612487565b908152604080516020928190038301902060008581529252902054905080158015906113fb57506113fb81611d0b565b15611407578260010192505b506001016113ad565b5092915050565b6001546001600160a01b031633146114415760405162461bcd60e51b815260040161053690612497565b600a8111801561145357506202a30081105b6114925760405162461bcd60e51b815260206004820152601060248201526f24b73b30b634b210323ab930ba34b7b760811b6044820152606401610536565b60068190556040518181527f1c44183c85bfea551d74341d87d3e049f755be0969b861e73d0f07d30e560b26906020015b60405180910390a150565b6001600160a01b0381166000908152600d602052604081205490808080841561151f575060016114fd85611d0b565b6000868152600c60205260409020600181015460029091015491159550935091505b91939590929450565b6001546001600160a01b031633146115525760405162461bcd60e51b815260040161053690612497565b61155c6000611d35565b565b6000818152600e602052604081205480156115835761157c81611d0b565b9392505050565b50600092915050565b6000546001146115cb5760405162461bcd60e51b815260206004820152600a6024820152695245454e5452414e435960b01b6044820152606401610536565b60026000819055546001600160a01b03166116215760405162461bcd60e51b815260206004820152601660248201527514dd185ada5b99d3585b9859d95c881b9bdd081cd95d60521b6044820152606401610536565b60098282604051611633929190612487565b9081526040519081900360200190205460ff166116835760405162461bcd60e51b815260206004820152600e60248201526d24b73b30b634b2103932b3b4b7b760911b6044820152606401610536565b826116c35760405162461bcd60e51b815260206004820152601060248201526f125b9d985b1a59081d1bdad95b881a5960821b6044820152606401610536565b6040516331a9108f60e11b81526004810184905233906001600160a01b037f00000000000000000000000000000000000000000000000000000000000000001690636352211e90602401602060405180830381865afa15801561172a573d6000803e3d6000fd5b505050506040513d601f19601f8201168201806040525081019061174e91906124e8565b6001600160a01b0316146117a45760405162461bcd60e51b815260206004820152601b60248201527f546f6b656e206e6f74206f776e65642066726f6d2073656e64657200000000006044820152606401610536565b600254604051635d528fc360e11b8152600481018590526000916001600160a01b03169063baa51f86906024016040805180830381865afa1580156117ed573d6000803e3d6000fd5b505050506040513d601f19601f820116820180604052508101906118119190612505565b5090508061185a5760405162461bcd60e51b8152602060048201526016602482015275151bdad95b881cda1bdd5b19081899481cdd185ad95960521b6044820152606401610536565b6000848152600e602052604090205480156118bc5761187881611d0b565b156118bc5760405162461bcd60e51b8152602060048201526014602482015273086eae4e4cadce8d8f240d2dc40c240dac2e8c6d60631b6044820152606401610536565b336000908152600d6020526040902054801561191f576118db81611d0b565b1561191f5760405162461bcd60e51b8152602060048201526014602482015273086eae4e4cadce8d8f240d2dc40c240dac2e8c6d60631b6044820152606401610536565b6119298585611d87565b90508061196d5760405162461bcd60e51b81526020600482015260126024820152714e6f206d6174636820617661696c61626c6560701b6044820152606401610536565b80600e60008881526020019081526020016000208190555080600d6000336001600160a01b03166001600160a01b0316815260200190815260200160002081905550600c6000828152602001908152602001600020600501339080600181540180825580915050600190039060005260206000200160009091909190916101000a8154816001600160a01b0302191690836001600160a01b031602179055506040518060c00160405280600115158152602001600015158152602001600081526020016000815260200142815260200187815250600c60008381526020019081526020016000206008016000336001600160a01b03166001600160a01b0316815260200190815260200160002060008201518160000160006101000a81548160ff02191690831515021790555060208201518160000160016101000a81548160ff02191690831515021790555060408201518160010155606082015181600201556080820151816003015560a082015181600401559050507f2d15cdeceb400aef1ceda76fb5e684ad33b5877ff819da3f41e4b90f9704a50b338288604051611b34939291906001600160a01b039390931683526020830191909152604082015260600190565b60405180910390a15050600160005550505050565b6001546001600160a01b03163314611b735760405162461bcd60e51b815260040161053690612497565b600280546001600160a01b0319166001600160a01b0383169081179091556040519081527f55acc64e4a72cc89f8652df08117adc5f4c96f616ea32414ce208b82e370a2db906020016114c3565b6001546001600160a01b03163314611beb5760405162461bcd60e51b815260040161053690612497565b6001600160a01b038116611c505760405162461bcd60e51b815260206004820152602660248201527f4f776e61626c653a206e6577206f776e657220697320746865207a65726f206160448201526564647265737360d01b6064820152608401610536565b611c5981611d35565b50565b6001546001600160a01b03163314611c865760405162461bcd60e51b815260040161053690612497565b600081118015611c9757506105dd81105b611cd65760405162461bcd60e51b815260206004820152601060248201526f496e76616c6964207175616e7469747960801b6044820152606401610536565b60078190556040518181527f2bebced33ac0c8a2cc832e81eb47ac360bf921544129e8c7726a08f44d18502d906020016114c3565b6000818152600c602052604081206002810154600190910154611d2e9042612451565b1092915050565b600180546001600160a01b038381166001600160a01b0319831681179093556040519116919082907f8be0079c531659141344cd1fd0a4f28419497f9722a3daafe3b4186f6b6457e090600090a35050565b6000808080805b600854811015611e28576000600a8888604051611dac929190612487565b90815260408051602092819003830190206000858152925290205490508015801590611ddc5750611ddc81611d0b565b15611e12576000818152600c6020526040902060038101546005909101541015611e07579450611e28565b846001019450611e1f565b82611e1f57819350600192505b50600101611d8e565b50808015611e34575083155b8015611e41575060085483105b15611f2257600b8054600101908190556040519094508490600a90611e699089908990612487565b9081526040805160209281900383019020600086815290835281812093909355868352600c90915290208054600161ffff1990911681178255429082015560068054600283015560075460038301556004820184905560058054611ed09284019190611f76565b50600354600780830182905560065490546040517f5e858f9cf6fbdd08ef84779c1ff8aa98a2a9856a1b3342027b3a77fd85d922f493611f18938a9389934293600591612533565b60405180910390a1505b50505092915050565b828054828255906000526020600020908101928215611f66579160200282015b82811115611f66578235825591602001919060010190611f4b565b50611f72929150611fb6565b5090565b828054828255906000526020600020908101928215611f665760005260206000209182015b82811115611f66578254825591600101919060010190611f9b565b5b80821115611f725760008155600101611fb7565b60008083601f840112611fdd57600080fd5b50813567ffffffffffffffff811115611ff557600080fd5b6020830191508360208260051b850101111561201057600080fd5b9250929050565b600080600080600080600060a0888a03121561203257600080fd5b873567ffffffffffffffff8082111561204a57600080fd5b6120568b838c01611fcb565b909950975060208a013591508082111561206f57600080fd5b5061207c8a828b01611fcb565b9096509450506040880135925060608801359150608088013560ff811681146120a457600080fd5b8091505092959891949750929550565b6001600160a01b0381168114611c5957600080fd5b6000602082840312156120db57600080fd5b813561157c816120b4565b600080604083850312156120f957600080fd5b50508035926020909101359150565b60006020828403121561211a57600080fd5b5035919050565b60008083601f84011261213357600080fd5b50813567ffffffffffffffff81111561214b57600080fd5b60208301915083602082850101111561201057600080fd5b8015158114611c5957600080fd5b60008060006040848603121561218657600080fd5b833567ffffffffffffffff81111561219d57600080fd5b6121a986828701612121565b90945092505060208401356121bd81612163565b809150509250925092565b600080602083850312156121db57600080fd5b823567ffffffffffffffff8111156121f257600080fd5b6121fe85828601611fcb565b90969095509350505050565b6000806020838503121561221d57600080fd5b823567ffffffffffffffff81111561223457600080fd5b6121fe85828601612121565b60008060006040848603121561225557600080fd5b83359250602084013567ffffffffffffffff81111561227357600080fd5b61227f86828701612121565b9497909650939450505050565b634e487b7160e01b600052604160045260246000fd5b6000602082840312156122b457600080fd5b813567ffffffffffffffff808211156122cc57600080fd5b818401915084601f8301126122e057600080fd5b8135818111156122f2576122f261228c565b604051601f8201601f19908116603f0116810190838211818310171561231a5761231a61228c565b8160405282815287602084870101111561233357600080fd5b826020860160208301376000928101602001929092525095945050505050565b81835260006001600160fb1b0383111561236c57600080fd5b8260051b8083602087013760009401602001938452509192915050565b60808152600061239d60808301888a612353565b82810360208401526123b0818789612353565b6001600160a01b039586166040850152939094166060909201919091525095945050505050565b634e487b7160e01b600052603260045260246000fd5b634e487b7160e01b600052601160045260246000fd5b60008219821115612416576124166123ed565b500190565b6001600160a01b03851681526060602082018190526000906124409083018587612353565b905082604083015295945050505050565b600082821015612463576124636123ed565b500390565b6000816000190483118215151615612482576124826123ed565b500290565b8183823760009101908152919050565b6020808252818101527f4f776e61626c653a2063616c6c6572206973206e6f7420746865206f776e6572604082015260600190565b6020815260006124e0602083018486612353565b949350505050565b6000602082840312156124fa57600080fd5b815161157c816120b4565b6000806040838503121561251857600080fd5b825161252381612163565b6020939093015192949293505050565b600060e082018983526020898185015288604085015287606085015286608085015260e060a0850152818654808452610100860191508760005282600020935060005b8181101561259257845483526001948501949284019201612576565b50508093505050508260c08301529897505050505050505056fea264697066735822122086150ab8613e998b7e31545cf54a862780e28a0a0a972ff6976ab6e0985a94a564736f6c634300080c0033",
  "linkReferences": {},
  "deployedLinkReferences": {}
}