{
  "_format": "hh-sol-artifact-1",
  "contractName": "StakingManager",
  "sourceName": "contracts/StakingManager.sol",
  "abi": [
    {
      "inputs": [
        {
          "internalType": "address",
          "name": "_bbone",
          "type": "address"
        },
        {
          "internalType": "address",
          "name": "_flappyAvax",
          "type": "address"
        }
      ],
      "stateMutability": "nonpayable",
      "type": "constructor"
    },
    {
      "anonymous": false,
      "inputs": [
        {
          "indexed": false,
          "internalType": "address",
          "name": "matchDuration",
          "type": "address"
        }
      ],
      "name": "MatchManagerUpdated",
      "type": "event"
    },
    {
      "anonymous": false,
      "inputs": [
        {
          "indexed": false,
          "internalType": "uint256",
          "name": "maxStakingTokensPerAccount",
          "type": "uint256"
        }
      ],
      "name": "MaxStakingTokensPerAccountUpdated",
      "type": "event"
    },
    {
      "anonymous": false,
      "inputs": [
        {
          "indexed": true,
          "internalType": "address",
          "name": "previousOwner",
          "type": "address"
        },
        {
          "indexed": true,
          "internalType": "address",
          "name": "newOwner",
          "type": "address"
        }
      ],
      "name": "OwnershipTransferred",
      "type": "event"
    },
    {
      "anonymous": false,
      "inputs": [
        {
          "indexed": false,
          "internalType": "uint256",
          "name": "rewardPerMinute",
          "type": "uint256"
        }
      ],
      "name": "RewardPerMinuteUpdated",
      "type": "event"
    },
    {
      "inputs": [],
      "name": "bbone",
      "outputs": [
        {
          "internalType": "contract IBBone",
          "name": "",
          "type": "address"
        }
      ],
      "stateMutability": "view",
      "type": "function"
    },
    {
      "inputs": [],
      "name": "flappyAvax",
      "outputs": [
        {
          "internalType": "contract IBobtailNFT",
          "name": "",
          "type": "address"
        }
      ],
      "stateMutability": "view",
      "type": "function"
    },
    {
      "inputs": [
        {
          "internalType": "address",
          "name": "_address",
          "type": "address"
        }
      ],
      "name": "isAddressStaking",
      "outputs": [
        {
          "internalType": "bool",
          "name": "staked",
          "type": "bool"
        }
      ],
      "stateMutability": "view",
      "type": "function"
    },
    {
      "inputs": [
        {
          "internalType": "uint256",
          "name": "_tokenId",
          "type": "uint256"
        }
      ],
      "name": "isStaked",
      "outputs": [
        {
          "internalType": "bool",
          "name": "staked",
          "type": "bool"
        },
        {
          "internalType": "uint256",
          "name": "timestampStake",
          "type": "uint256"
        }
      ],
      "stateMutability": "view",
      "type": "function"
    },
    {
      "inputs": [],
      "name": "matchManager",
      "outputs": [
        {
          "internalType": "contract IBobtailMatchManager",
          "name": "",
          "type": "address"
        }
      ],
      "stateMutability": "view",
      "type": "function"
    },
    {
      "inputs": [],
      "name": "maxStakingTokensPerAccount",
      "outputs": [
        {
          "internalType": "uint256",
          "name": "",
          "type": "uint256"
        }
      ],
      "stateMutability": "view",
      "type": "function"
    },
    {
      "inputs": [],
      "name": "owner",
      "outputs": [
        {
          "internalType": "address",
          "name": "",
          "type": "address"
        }
      ],
      "stateMutability": "view",
      "type": "function"
    },
    {
      "inputs": [],
      "name": "renounceOwnership",
      "outputs": [],
      "stateMutability": "nonpayable",
      "type": "function"
    },
    {
      "inputs": [],
      "name": "rewardPerMinute",
      "outputs": [
        {
          "internalType": "uint256",
          "name": "",
          "type": "uint256"
        }
      ],
      "stateMutability": "view",
      "type": "function"
    },
    {
      "inputs": [
        {
          "internalType": "address",
          "name": "_matchManager",
          "type": "address"
        }
      ],
      "name": "setMatchManager",
      "outputs": [],
      "stateMutability": "nonpayable",
      "type": "function"
    },
    {
      "inputs": [
        {
          "internalType": "uint256",
          "name": "_maxStakingTokensPerAccount",
          "type": "uint256"
        }
      ],
      "name": "setMaxStakingTokensPerAccount",
      "outputs": [],
      "stateMutability": "nonpayable",
      "type": "function"
    },
    {
      "inputs": [
        {
          "internalType": "uint256",
          "name": "_rewardPerMinute",
          "type": "uint256"
        }
      ],
      "name": "setRewardPerMinute",
      "outputs": [],
      "stateMutability": "nonpayable",
      "type": "function"
    },
    {
      "inputs": [
        {
          "internalType": "uint256[]",
          "name": "_tokenIds",
          "type": "uint256[]"
        }
      ],
      "name": "stake",
      "outputs": [],
      "stateMutability": "nonpayable",
      "type": "function"
    },
    {
      "inputs": [
        {
          "internalType": "uint256",
          "name": "",
          "type": "uint256"
        }
      ],
      "name": "stakedItems",
      "outputs": [
        {
          "internalType": "bool",
          "name": "staked",
          "type": "bool"
        },
        {
          "internalType": "uint256",
          "name": "timestampStake",
          "type": "uint256"
        }
      ],
      "stateMutability": "view",
      "type": "function"
    },
    {
      "inputs": [
        {
          "internalType": "address",
          "name": "_account",
          "type": "address"
        }
      ],
      "name": "stakedTokensOf",
      "outputs": [
        {
          "internalType": "uint256[]",
          "name": "tokenIds",
          "type": "uint256[]"
        }
      ],
      "stateMutability": "view",
      "type": "function"
    },
    {
      "inputs": [
        {
          "internalType": "address",
          "name": "_account",
          "type": "address"
        }
      ],
      "name": "stakedTokensWithInfoOf",
      "outputs": [
        {
          "components": [
            {
              "internalType": "uint256",
              "name": "id",
              "type": "uint256"
            },
            {
              "internalType": "uint256",
              "name": "timestampMint",
              "type": "uint256"
            },
            {
              "internalType": "uint256",
              "name": "block",
              "type": "uint256"
            },
            {
              "internalType": "uint256",
              "name": "pendingReward",
              "type": "uint256"
            },
            {
              "internalType": "uint8",
              "name": "lvl",
              "type": "uint8"
            },
            {
              "internalType": "uint8",
              "name": "exp",
              "type": "uint8"
            },
            {
              "internalType": "uint8",
              "name": "revealed",
              "type": "uint8"
            },
            {
              "internalType": "uint8",
              "name": "staked",
              "type": "uint8"
            },
            {
              "internalType": "uint8",
              "name": "skin",
              "type": "uint8"
            },
            {
              "internalType": "uint8",
              "name": "face",
              "type": "uint8"
            },
            {
              "internalType": "uint8",
              "name": "rarity",
              "type": "uint8"
            }
          ],
          "internalType": "struct IBobtailNFT.NftEntity[]",
          "name": "",
          "type": "tuple[]"
        }
      ],
      "stateMutability": "view",
      "type": "function"
    },
    {
      "inputs": [
        {
          "internalType": "address",
          "name": "",
          "type": "address"
        }
      ],
      "name": "stakingCountForAddress",
      "outputs": [
        {
          "internalType": "uint256",
          "name": "",
          "type": "uint256"
        }
      ],
      "stateMutability": "view",
      "type": "function"
    },
    {
      "inputs": [
        {
          "internalType": "uint256",
          "name": "_tokenId",
          "type": "uint256"
        }
      ],
      "name": "stakingReward",
      "outputs": [
        {
          "internalType": "uint256",
          "name": "",
          "type": "uint256"
        }
      ],
      "stateMutability": "view",
      "type": "function"
    },
    {
      "inputs": [
        {
          "internalType": "address",
          "name": "newOwner",
          "type": "address"
        }
      ],
      "name": "transferOwnership",
      "outputs": [],
      "stateMutability": "nonpayable",
      "type": "function"
    },
    {
      "inputs": [
        {
          "internalType": "uint256[]",
          "name": "_tokenIds",
          "type": "uint256[]"
        },
        {
          "internalType": "bool",
          "name": "_unstake",
          "type": "bool"
        }
      ],
      "name": "withdrawAndOrClaim",
      "outputs": [],
      "stateMutability": "nonpayable",
      "type": "function"
    }
  ],
  "bytecode": "0x60c0604052670de0b6b3a7640000600255600a6003553480156200002257600080fd5b5060405162001c3c38038062001c3c8339810160408190526200004591620000d5565b620000503362000068565b6001600160a01b0391821660a052166080526200010d565b600080546001600160a01b038381166001600160a01b0319831681178455604051919092169283917f8be0079c531659141344cd1fd0a4f28419497f9722a3daafe3b4186f6b6457e09190a35050565b80516001600160a01b0381168114620000d057600080fd5b919050565b60008060408385031215620000e957600080fd5b620000f483620000b8565b91506200010460208401620000b8565b90509250929050565b60805160a051611aca620001726000396000818161023c0152610de901526000818161031c015281816104150152818161058c0152818161087a0152818161094001528181610d1d01528181610ebb0152818161101301526112620152611aca6000f3fe608060405234801561001057600080fd5b506004361061012b5760003560e01c8063715018a6116100ad578063baa51f8611610071578063baa51f86146102d5578063cf35b8a114610317578063dec56fc31461033e578063f2fde38b14610351578063f99a8ac41461036457600080fd5b8063715018a614610276578063897b990b1461027e5780638da5cb5b14610291578063ab08d4fc146102a2578063af3a82cb146102c257600080fd5b806323de2a71116100f457806323de2a71146101ad57806327edc2a1146101f1578063290f1d0814610204578063366864c114610217578063476b6d921461023757600080fd5b80629bee371461013057806304d25d361461014c5780630811851b146101555780630fbf0a9314610178578063147c610e1461018d575b600080fd5b61013960035481565b6040519081526020015b60405180910390f35b61013960025481565b610168610163366004611456565b610377565b6040519015158152602001610143565b61018b610186366004611473565b61038d565b005b61013961019b366004611456565b60056020526000908152604090205481565b6101da6101bb3660046114e8565b6004602052600090815260409020805460019091015460ff9091169082565b604080519215158352602083019190915201610143565b61018b6101ff3660046114e8565b610728565b61018b610212366004611456565b6107db565b61022a610225366004611456565b610853565b6040516101439190611501565b61025e7f000000000000000000000000000000000000000000000000000000000000000081565b6040516001600160a01b039091168152602001610143565b61018b6108fb565b61018b61028c366004611675565b610931565b6000546001600160a01b031661025e565b6102b56102b0366004611456565b610e52565b604051610143919061171d565b6101396102d03660046114e8565b610e63565b6101da6102e33660046114e8565b6000908152600460209081526040918290208251808401909352805460ff1615158084526001909101549290910182905291565b61025e7f000000000000000000000000000000000000000000000000000000000000000081565b61018b61034c3660046114e8565b6110f7565b61018b61035f366004611456565b6111a2565b60015461025e906001600160a01b031681565b6000806103838361123d565b5115159392505050565b60035461039b906001611777565b336000908152600560205260409020546103b6908390611777565b106104085760405162461bcd60e51b815260206004820152601d60248201527f4d617820746f6b656e73207374616b656420666f72206163636f756e7400000060448201526064015b60405180910390fd5b60005b81811015610723577f00000000000000000000000000000000000000000000000000000000000000006001600160a01b0316636352211e8484848181106104545761045461178f565b905060200201356040518263ffffffff1660e01b815260040161047991815260200190565b602060405180830381865afa158015610496573d6000803e3d6000fd5b505050506040513d601f19601f820116820180604052508101906104ba91906117a5565b6001600160a01b0316336001600160a01b0316146105115760405162461bcd60e51b815260206004820152601460248201527329b2b73232b91036bab9ba1031329037bbb732b960611b60448201526064016103ff565b600460008484848181106105275761052761178f565b602090810292909201358352508101919091526040016000205460ff161561058a5760405162461bcd60e51b8152602060048201526016602482015275151bdad95b8818dd5c9c995b9d1b1e481cdd185ad95960521b60448201526064016103ff565b7f00000000000000000000000000000000000000000000000000000000000000006001600160a01b0316635055fbc38484848181106105cb576105cb61178f565b905060200201356040518263ffffffff1660e01b81526004016105f091815260200190565b602060405180830381865afa15801561060d573d6000803e3d6000fd5b505050506040513d601f19601f8201168201806040525081019061063191906117c2565b61067d5760405162461bcd60e51b815260206004820152601860248201527f546f6b656e2073686f756c642062652072657665616c6564000000000000000060448201526064016103ff565b6001600460008585858181106106955761069561178f565b90506020020135815260200190815260200160002060000160006101000a81548160ff02191690831515021790555042600460008585858181106106db576106db61178f565b602090810292909201358352508181019290925260409081016000908120600190810194909455338152600590925290208054909101905561071c816117df565b905061040b565b505050565b6000546001600160a01b031633146107525760405162461bcd60e51b81526004016103ff906117fa565b60008111801561076357506103e881105b61079f5760405162461bcd60e51b815260206004820152600d60248201526c496e76616c69642076616c756560981b60448201526064016103ff565b60028190556040518181527f710e3e36045e364190c5afcc342a6d29f171e456dd0bfd3ac1790cc646a21658906020015b60405180910390a150565b6000546001600160a01b031633146108055760405162461bcd60e51b81526004016103ff906117fa565b600180546001600160a01b0319166001600160a01b0383169081179091556040519081527fcf6ec682a4d7b77576e2cf0c71673ef4bc1af85481dff636b4c69d7198e41930906020016107d0565b606060006108608361123d565b604051638048050360e01b81529091506001600160a01b037f000000000000000000000000000000000000000000000000000000000000000016906380480503906108af90849060040161171d565b600060405180830381865afa1580156108cc573d6000803e3d6000fd5b505050506040513d6000823e601f3d908101601f191682016040526108f49190810190611840565b9392505050565b6000546001600160a01b031633146109255760405162461bcd60e51b81526004016103ff906117fa565b61092f60006113f1565b565b6000805b8351811015610dc6577f00000000000000000000000000000000000000000000000000000000000000006001600160a01b0316636352211e85838151811061097f5761097f61178f565b60200260200101516040518263ffffffff1660e01b81526004016109a591815260200190565b602060405180830381865afa1580156109c2573d6000803e3d6000fd5b505050506040513d601f19601f820116820180604052508101906109e691906117a5565b6001600160a01b0316336001600160a01b031614610a3d5760405162461bcd60e51b815260206004820152601460248201527329b2b73232b91036bab9ba1031329037bbb732b960611b60448201526064016103ff565b600060046000868481518110610a5557610a5561178f565b60209081029190910181015182528181019290925260409081016000208151808301909252805460ff161515808352600190910154928201929092529150610ad25760405162461bcd60e51b815260206004820152601060248201526f151bdad95b881b9bdd081cdd185ad95960821b60448201526064016103ff565b603f816020015142610ae49190611983565b1015610b325760405162461bcd60e51b815260206004820181905260248201527f4e65656420363320736563207374616b656420636c61696d2f756e7374616b6560448201526064016103ff565b610b54858381518110610b4757610b4761178f565b6020026020010151610e63565b610b5e9084611777565b92508315610ce65760015485516001600160a01b039091169063885a502190879085908110610b8f57610b8f61178f565b60200260200101516040518263ffffffff1660e01b8152600401610bb591815260200190565b602060405180830381865afa158015610bd2573d6000803e3d6000fd5b505050506040513d601f19601f82011682018060405250810190610bf691906117c2565b15610c435760405162461bcd60e51b815260206004820152601c60248201527f546f6b656e20696e206d617463682063616e277420756e7374616b650000000060448201526064016103ff565b600060046000878581518110610c5b57610c5b61178f565b6020908102919091018101518252810191909152604001600020805460ff1916911515919091179055610c934264121adb7000611777565b60046000878581518110610ca957610ca961178f565b6020908102919091018101518252818101929092526040908101600090812060010193909355338352600590915290208054600019019055610d1b565b4260046000878581518110610cfd57610cfd61178f565b60200260200101518152602001908152602001600020600101819055505b7f00000000000000000000000000000000000000000000000000000000000000006001600160a01b031663c6781ce7868481518110610d5c57610d5c61178f565b60200260200101516040518263ffffffff1660e01b8152600401610d8291815260200190565b600060405180830381600087803b158015610d9c57600080fd5b505af1158015610db0573d6000803e3d6000fd5b505050505080610dbf906117df565b9050610935565b50801561072357604051637625088b60e11b8152336004820152602481018290527f00000000000000000000000000000000000000000000000000000000000000006001600160a01b03169063ec4a111690604401600060405180830381600087803b158015610e3557600080fd5b505af1158015610e49573d6000803e3d6000fd5b50505050505050565b6060610e5d8261123d565b92915050565b600081610ea55760405162461bcd60e51b815260206004820152601060248201526f125b9d985b1a59081d1bdad95b881a5960821b60448201526064016103ff565b604051635055fbc360e01b8152600481018390527f00000000000000000000000000000000000000000000000000000000000000006001600160a01b031690635055fbc390602401602060405180830381865afa158015610f0a573d6000803e3d6000fd5b505050506040513d601f19601f82011682018060405250810190610f2e91906117c2565b610f6d5760405162461bcd60e51b815260206004820152601060248201526f151bdad95b881d5b9c995d99585b195960821b60448201526064016103ff565b6000828152600460209081526040918290208251808401909352805460ff16151580845260019091015491830191909152610fdd5760405162461bcd60e51b815260206004820152601060248201526f151bdad95b881b9bdd081cdd185ad95960821b60448201526064016103ff565b6000816020015142610fef9190611983565b6040516304899f9b60e51b8152600481018690529091506000906001600160a01b037f00000000000000000000000000000000000000000000000000000000000000001690639133f360906024016040805180830381865afa158015611059573d6000803e3d6000fd5b505050506040513d601f19601f8201168201806040525081019061107d919061199a565b509050600061108d603c846119cd565b60025461109a91906119ef565b9050600060648360ff16106110c6576110b46064836119cd565b6110bf9060646119ef565b90506110e2565b60ff83166110d56064846119cd565b6110df91906119ef565b90505b6110ec8282611777565b979650505050505050565b6000546001600160a01b031633146111215760405162461bcd60e51b81526004016103ff906117fa565b6000811180156111315750603281105b61116d5760405162461bcd60e51b815260206004820152600d60248201526c496e76616c69642076616c756560981b60448201526064016103ff565b60038190556040518181527fc00d43384ab9c03d916a5bc5edb1619ff67c6ed3de95b59cb7c013aeab2f1b48906020016107d0565b6000546001600160a01b031633146111cc5760405162461bcd60e51b81526004016103ff906117fa565b6001600160a01b0381166112315760405162461bcd60e51b815260206004820152602660248201527f4f776e61626c653a206e6577206f776e657220697320746865207a65726f206160448201526564647265737360d01b60648201526084016103ff565b61123a816113f1565b50565b604051632d1f933960e11b81526001600160a01b0382811660048301526060916000917f00000000000000000000000000000000000000000000000000000000000000001690635a3f267290602401600060405180830381865afa1580156112a9573d6000803e3d6000fd5b505050506040513d6000823e601f3d908101601f191682016040526112d19190810190611a0e565b6001600160a01b03841660009081526005602052604090205490915080156113da5760008167ffffffffffffffff81111561130e5761130e6115c2565b604051908082528060200260200182016040528015611337578160200160208202803683370190505b5090506000805b84518110156113cf576004600086838151811061135d5761135d61178f565b60209081029190910181015182528101919091526040016000205460ff16156113bf578481815181106113925761139261178f565b60200260200101518383815181106113ac576113ac61178f565b6020026020010181815250508160010191505b6113c8816117df565b905061133e565b509095945050505050565b505060408051600081526020810190915292915050565b600080546001600160a01b038381166001600160a01b0319831681178455604051919092169283917f8be0079c531659141344cd1fd0a4f28419497f9722a3daafe3b4186f6b6457e09190a35050565b6001600160a01b038116811461123a57600080fd5b60006020828403121561146857600080fd5b81356108f481611441565b6000806020838503121561148657600080fd5b823567ffffffffffffffff8082111561149e57600080fd5b818501915085601f8301126114b257600080fd5b8135818111156114c157600080fd5b8660208260051b85010111156114d657600080fd5b60209290920196919550909350505050565b6000602082840312156114fa57600080fd5b5035919050565b602080825282518282018190526000919060409081850190868401855b828110156115b557815180518552868101518786015285810151868601526060808201519086015260808082015160ff9081169187019190915260a08083015182169087015260c08083015182169087015260e0808301518216908701526101008083015182169087015261012080830151821690870152610140918201511690850152610160909301929085019060010161151e565b5091979650505050505050565b634e487b7160e01b600052604160045260246000fd5b604051610160810167ffffffffffffffff811182821017156115fc576115fc6115c2565b60405290565b604051601f8201601f1916810167ffffffffffffffff8111828210171561162b5761162b6115c2565b604052919050565b600067ffffffffffffffff82111561164d5761164d6115c2565b5060051b60200190565b801515811461123a57600080fd5b803561167081611657565b919050565b6000806040838503121561168857600080fd5b823567ffffffffffffffff81111561169f57600080fd5b8301601f810185136116b057600080fd5b803560206116c56116c083611633565b611602565b82815260059290921b830181019181810190888411156116e457600080fd5b938201935b83851015611702578435825293820193908201906116e9565b95506117119050868201611665565b93505050509250929050565b6020808252825182820181905260009190848201906040850190845b8181101561175557835183529284019291840191600101611739565b50909695505050505050565b634e487b7160e01b600052601160045260246000fd5b6000821982111561178a5761178a611761565b500190565b634e487b7160e01b600052603260045260246000fd5b6000602082840312156117b757600080fd5b81516108f481611441565b6000602082840312156117d457600080fd5b81516108f481611657565b60006000198214156117f3576117f3611761565b5060010190565b6020808252818101527f4f776e61626c653a2063616c6c6572206973206e6f7420746865206f776e6572604082015260600190565b805160ff8116811461167057600080fd5b6000602080838503121561185357600080fd5b825167ffffffffffffffff81111561186a57600080fd5b8301601f8101851361187b57600080fd5b80516118896116c082611633565b81815261016091820283018401918482019190888411156118a957600080fd5b938501935b838510156119775780858a0312156118c65760008081fd5b6118ce6115d8565b855181528686015187820152604080870151908201526060808701519082015260806118fb81880161182f565b9082015260a061190c87820161182f565b9082015260c061191d87820161182f565b9082015260e061192e87820161182f565b9082015261010061194087820161182f565b9082015261012061195287820161182f565b9082015261014061196487820161182f565b90820152835293840193918501916118ae565b50979650505050505050565b60008282101561199557611995611761565b500390565b600080604083850312156119ad57600080fd5b6119b68361182f565b91506119c46020840161182f565b90509250929050565b6000826119ea57634e487b7160e01b600052601260045260246000fd5b500490565b6000816000190483118215151615611a0957611a09611761565b500290565b60006020808385031215611a2157600080fd5b825167ffffffffffffffff811115611a3857600080fd5b8301601f81018513611a4957600080fd5b8051611a576116c082611633565b81815260059190911b82018301908381019087831115611a7657600080fd5b928401925b828410156110ec57835182529284019290840190611a7b56fea264697066735822122095fc3ad05a2a6b5381fb0b08357bbebdf41f2f7a04d207c1d6c57c63551b25f164736f6c634300080c0033",
  "linkReferences": {},
  "deployedLinkReferences": {}
}