{
  "_format": "hh-sol-artifact-1",
  "contractName": "Staking",
  "sourceName": "contracts/Staking.sol",
  "abi": [
    {
      "inputs": [
        {
          "internalType": "address",
          "name": "_bbone",
          "type": "address"
        },
        {
          "internalType": "address",
          "name": "_nftContract",
          "type": "address"
        }
      ],
      "stateMutability": "nonpayable",
      "type": "constructor"
    },
    {
      "anonymous": false,
      "inputs": [
        {
          "indexed": false,
          "internalType": "address",
          "name": "matchDuration",
          "type": "address"
        }
      ],
      "name": "MatchManagerUpdated",
      "type": "event"
    },
    {
      "anonymous": false,
      "inputs": [
        {
          "indexed": false,
          "internalType": "uint256",
          "name": "maxStakingTokensPerAccount",
          "type": "uint256"
        }
      ],
      "name": "MaxStakingTokensPerAccountUpdated",
      "type": "event"
    },
    {
      "anonymous": false,
      "inputs": [
        {
          "indexed": true,
          "internalType": "address",
          "name": "previousOwner",
          "type": "address"
        },
        {
          "indexed": true,
          "internalType": "address",
          "name": "newOwner",
          "type": "address"
        }
      ],
      "name": "OwnershipTransferred",
      "type": "event"
    },
    {
      "anonymous": false,
      "inputs": [
        {
          "indexed": false,
          "internalType": "uint256",
          "name": "rewardPerMinute",
          "type": "uint256"
        }
      ],
      "name": "RewardPerMinuteUpdated",
      "type": "event"
    },
    {
      "inputs": [],
      "name": "allowedNftContract",
      "outputs": [
        {
          "internalType": "contract IBobtailNFT",
          "name": "",
          "type": "address"
        }
      ],
      "stateMutability": "view",
      "type": "function"
    },
    {
      "inputs": [],
      "name": "bbone",
      "outputs": [
        {
          "internalType": "contract IBBone",
          "name": "",
          "type": "address"
        }
      ],
      "stateMutability": "view",
      "type": "function"
    },
    {
      "inputs": [
        {
          "internalType": "address",
          "name": "_account",
          "type": "address"
        }
      ],
      "name": "isAccountStaking",
      "outputs": [
        {
          "internalType": "bool",
          "name": "staked",
          "type": "bool"
        }
      ],
      "stateMutability": "view",
      "type": "function"
    },
    {
      "inputs": [
        {
          "internalType": "uint256",
          "name": "_tokenId",
          "type": "uint256"
        }
      ],
      "name": "isStaked",
      "outputs": [
        {
          "internalType": "bool",
          "name": "staked",
          "type": "bool"
        },
        {
          "internalType": "uint256",
          "name": "timestampStake",
          "type": "uint256"
        }
      ],
      "stateMutability": "view",
      "type": "function"
    },
    {
      "inputs": [],
      "name": "matchManager",
      "outputs": [
        {
          "internalType": "contract IBobtailMatchManager",
          "name": "",
          "type": "address"
        }
      ],
      "stateMutability": "view",
      "type": "function"
    },
    {
      "inputs": [],
      "name": "maxStakingTokensPerAccount",
      "outputs": [
        {
          "internalType": "uint256",
          "name": "",
          "type": "uint256"
        }
      ],
      "stateMutability": "view",
      "type": "function"
    },
    {
      "inputs": [],
      "name": "owner",
      "outputs": [
        {
          "internalType": "address",
          "name": "",
          "type": "address"
        }
      ],
      "stateMutability": "view",
      "type": "function"
    },
    {
      "inputs": [],
      "name": "renounceOwnership",
      "outputs": [],
      "stateMutability": "nonpayable",
      "type": "function"
    },
    {
      "inputs": [],
      "name": "rewardPerMinute",
      "outputs": [
        {
          "internalType": "uint256",
          "name": "",
          "type": "uint256"
        }
      ],
      "stateMutability": "view",
      "type": "function"
    },
    {
      "inputs": [
        {
          "internalType": "address",
          "name": "_matchManager",
          "type": "address"
        }
      ],
      "name": "setMatchManager",
      "outputs": [],
      "stateMutability": "nonpayable",
      "type": "function"
    },
    {
      "inputs": [
        {
          "internalType": "uint256",
          "name": "_maxStakingTokensPerAccount",
          "type": "uint256"
        }
      ],
      "name": "setMaxStakingTokensPerAccount",
      "outputs": [],
      "stateMutability": "nonpayable",
      "type": "function"
    },
    {
      "inputs": [
        {
          "internalType": "uint256",
          "name": "_rewardPerMinute",
          "type": "uint256"
        }
      ],
      "name": "setRewardPerMinute",
      "outputs": [],
      "stateMutability": "nonpayable",
      "type": "function"
    },
    {
      "inputs": [
        {
          "internalType": "uint256[]",
          "name": "_tokenIds",
          "type": "uint256[]"
        }
      ],
      "name": "stake",
      "outputs": [],
      "stateMutability": "nonpayable",
      "type": "function"
    },
    {
      "inputs": [
        {
          "internalType": "uint256",
          "name": "",
          "type": "uint256"
        }
      ],
      "name": "stakedItems",
      "outputs": [
        {
          "internalType": "bool",
          "name": "staked",
          "type": "bool"
        },
        {
          "internalType": "uint256",
          "name": "timestampStake",
          "type": "uint256"
        }
      ],
      "stateMutability": "view",
      "type": "function"
    },
    {
      "inputs": [
        {
          "internalType": "address",
          "name": "_account",
          "type": "address"
        }
      ],
      "name": "stakedTokensOf",
      "outputs": [
        {
          "internalType": "uint256[]",
          "name": "tokenIds",
          "type": "uint256[]"
        }
      ],
      "stateMutability": "view",
      "type": "function"
    },
    {
      "inputs": [
        {
          "internalType": "address",
          "name": "_account",
          "type": "address"
        }
      ],
      "name": "stakedTokensWithInfoOf",
      "outputs": [
        {
          "components": [
            {
              "internalType": "uint8",
              "name": "lvl",
              "type": "uint8"
            },
            {
              "internalType": "uint8",
              "name": "exp",
              "type": "uint8"
            },
            {
              "internalType": "uint8",
              "name": "revealed",
              "type": "uint8"
            },
            {
              "internalType": "uint256",
              "name": "skin",
              "type": "uint256"
            },
            {
              "internalType": "uint256",
              "name": "face",
              "type": "uint256"
            },
            {
              "internalType": "uint256",
              "name": "rarity",
              "type": "uint256"
            },
            {
              "internalType": "uint256",
              "name": "id",
              "type": "uint256"
            },
            {
              "internalType": "uint256",
              "name": "timestampMint",
              "type": "uint256"
            },
            {
              "internalType": "uint256",
              "name": "pendingReward",
              "type": "uint256"
            }
          ],
          "internalType": "struct IBobtailNFT.NftEntityExtended[]",
          "name": "",
          "type": "tuple[]"
        }
      ],
      "stateMutability": "view",
      "type": "function"
    },
    {
      "inputs": [
        {
          "internalType": "address",
          "name": "",
          "type": "address"
        }
      ],
      "name": "stakingCountForAddress",
      "outputs": [
        {
          "internalType": "uint256",
          "name": "",
          "type": "uint256"
        }
      ],
      "stateMutability": "view",
      "type": "function"
    },
    {
      "inputs": [
        {
          "internalType": "uint256",
          "name": "_tokenId",
          "type": "uint256"
        }
      ],
      "name": "stakingReward",
      "outputs": [
        {
          "internalType": "uint256",
          "name": "",
          "type": "uint256"
        }
      ],
      "stateMutability": "view",
      "type": "function"
    },
    {
      "inputs": [
        {
          "internalType": "address",
          "name": "newOwner",
          "type": "address"
        }
      ],
      "name": "transferOwnership",
      "outputs": [],
      "stateMutability": "nonpayable",
      "type": "function"
    },
    {
      "inputs": [
        {
          "internalType": "uint256[]",
          "name": "_tokenIds",
          "type": "uint256[]"
        },
        {
          "internalType": "bool",
          "name": "_unstake",
          "type": "bool"
        }
      ],
      "name": "withdraw",
      "outputs": [],
      "stateMutability": "nonpayable",
      "type": "function"
    }
  ],
  "bytecode": "0x60c06040526001600055670de0b6b3a7640000600355600a6004553480156200002757600080fd5b5060405162001d8338038062001d838339810160408190526200004a91620000dc565b62000055336200006d565b6001600160a01b0391821660a0521660805262000114565b600180546001600160a01b038381166001600160a01b0319831681179093556040519116919082907f8be0079c531659141344cd1fd0a4f28419497f9722a3daafe3b4186f6b6457e090600090a35050565b80516001600160a01b0381168114620000d757600080fd5b919050565b60008060408385031215620000f057600080fd5b620000fb83620000bf565b91506200010b60208401620000bf565b90509250929050565b60805160a051611c0362000180600039600081816102190152610f8801526000818161031901528181610467015281816105de015281816108c501528181610a1f01528181610c4401528181610eaa0152818161105f015281816111b701526114060152611c036000f3fe608060405234801561001057600080fd5b506004361061012b5760003560e01c8063715018a6116100ad578063baa51f8611610071578063baa51f86146102d5578063dec56fc314610301578063e6c4070e14610314578063f2fde38b1461033b578063f99a8ac41461034e57600080fd5b8063715018a6146102765780638744cac01461027e5780638da5cb5b14610291578063ab08d4fc146102a2578063af3a82cb146102c257600080fd5b806327edc2a1116100f457806327edc2a1146101ce578063290f1d08146101e1578063366864c1146101f4578063476b6d92146102145780634d59213e1461025357600080fd5b80629bee371461013057806304d25d361461014c5780630fbf0a9314610155578063147c610e1461016a57806323de2a711461018a575b600080fd5b61013960045481565b6040519081526020015b60405180910390f35b61013960035481565b6101686101633660046115df565b610361565b005b610139610178366004611669565b60066020526000908152604090205481565b6101b7610198366004611686565b6005602052600090815260409020805460019091015460ff9091169082565b604080519215158352602083019190915201610143565b6101686101dc366004611686565b610774565b6101686101ef366004611669565b610826565b610207610202366004611669565b61089e565b604051610143919061169f565b61023b7f000000000000000000000000000000000000000000000000000000000000000081565b6040516001600160a01b039091168152602001610143565b610266610261366004611669565b610946565b6040519015158152602001610143565b61016861095c565b61016861028c3660046117fb565b610992565b6001546001600160a01b031661023b565b6102b56102b0366004611669565b610ff6565b60405161014391906118a3565b6101396102d0366004611686565b611007565b6101b76102e3366004611686565b6000908152600560205260409020805460019091015460ff90911691565b61016861030f366004611686565b61129b565b61023b7f000000000000000000000000000000000000000000000000000000000000000081565b610168610349366004611669565b611346565b60025461023b906001600160a01b031681565b333b156103a05760405162461bcd60e51b81526020600482015260086024820152674f6e6c7920454f4160c01b60448201526064015b60405180910390fd5b6000546001146103df5760405162461bcd60e51b815260206004820152600a6024820152695245454e5452414e435960b01b6044820152606401610397565b60026000556004546103f29060016118fd565b3360009081526006602052604090205461040d9083906118fd565b1061045a5760405162461bcd60e51b815260206004820152601d60248201527f4d617820746f6b656e73207374616b656420666f72206163636f756e740000006044820152606401610397565b60005b8181101561076a577f00000000000000000000000000000000000000000000000000000000000000006001600160a01b0316636352211e8484848181106104a6576104a6611915565b905060200201356040518263ffffffff1660e01b81526004016104cb91815260200190565b602060405180830381865afa1580156104e8573d6000803e3d6000fd5b505050506040513d601f19601f8201168201806040525081019061050c919061192b565b6001600160a01b0316336001600160a01b0316146105635760405162461bcd60e51b815260206004820152601460248201527329b2b73232b91036bab9ba1031329037bbb732b960611b6044820152606401610397565b6005600084848481811061057957610579611915565b602090810292909201358352508101919091526040016000205460ff16156105dc5760405162461bcd60e51b8152602060048201526016602482015275151bdad95b8818dd5c9c995b9d1b1e481cdd185ad95960521b6044820152606401610397565b7f00000000000000000000000000000000000000000000000000000000000000006001600160a01b0316635055fbc384848481811061061d5761061d611915565b905060200201356040518263ffffffff1660e01b815260040161064291815260200190565b602060405180830381865afa15801561065f573d6000803e3d6000fd5b505050506040513d601f19601f820116820180604052508101906106839190611948565b6106cf5760405162461bcd60e51b815260206004820152601860248201527f546f6b656e2073686f756c642062652072657665616c656400000000000000006044820152606401610397565b6001600560008585858181106106e7576106e7611915565b90506020020135815260200190815260200160002060000160006101000a81548160ff021916908315150217905550426005600085858581811061072d5761072d611915565b602090810292909201358352508181019290925260409081016000908120600190810194909455338152600690925290208054820190550161045d565b5050600160005550565b6001546001600160a01b0316331461079e5760405162461bcd60e51b815260040161039790611965565b6000811180156107ae5750606481105b6107ea5760405162461bcd60e51b815260206004820152600d60248201526c496e76616c69642076616c756560981b6044820152606401610397565b60038190556040518181527f710e3e36045e364190c5afcc342a6d29f171e456dd0bfd3ac1790cc646a21658906020015b60405180910390a150565b6001546001600160a01b031633146108505760405162461bcd60e51b815260040161039790611965565b600280546001600160a01b0319166001600160a01b0383169081179091556040519081527fcf6ec682a4d7b77576e2cf0c71673ef4bc1af85481dff636b4c69d7198e419309060200161081b565b606060006108ab836113e1565b604051638048050360e01b81529091506001600160a01b037f000000000000000000000000000000000000000000000000000000000000000016906380480503906108fa9084906004016118a3565b600060405180830381865afa158015610917573d6000803e3d6000fd5b505050506040513d6000823e601f3d908101601f1916820160405261093f91908101906119ab565b9392505050565b600080610952836113e1565b5115159392505050565b6001546001600160a01b031633146109865760405162461bcd60e51b815260040161039790611965565b610990600061158d565b565b333b156109cc5760405162461bcd60e51b81526020600482015260086024820152674f6e6c7920454f4160c01b6044820152606401610397565b600054600114610a0b5760405162461bcd60e51b815260206004820152600a6024820152695245454e5452414e435960b01b6044820152606401610397565b60026000908155805b8351811015610f65577f00000000000000000000000000000000000000000000000000000000000000006001600160a01b0316636352211e858381518110610a5e57610a5e611915565b60200260200101516040518263ffffffff1660e01b8152600401610a8491815260200190565b602060405180830381865afa158015610aa1573d6000803e3d6000fd5b505050506040513d601f19601f82011682018060405250810190610ac5919061192b565b6001600160a01b0316336001600160a01b031614610b1c5760405162461bcd60e51b815260206004820152601460248201527329b2b73232b91036bab9ba1031329037bbb732b960611b6044820152606401610397565b600060056000868481518110610b3457610b34611915565b60209081029190910181015182528181019290925260409081016000208151808301909252805460ff161515808352600190910154928201929092529150610bb15760405162461bcd60e51b815260206004820152601060248201526f151bdad95b881b9bdd081cdd185ad95960821b6044820152606401610397565b603f816020015142610bc39190611abc565b1015610c115760405162461bcd60e51b815260206004820181905260248201527f4e65656420363320736563207374616b656420636c61696d2f756e7374616b656044820152606401610397565b610c33858381518110610c2657610c26611915565b6020026020010151611007565b610c3d90846118fd565b92506000807f00000000000000000000000000000000000000000000000000000000000000006001600160a01b0316639133f360888681518110610c8357610c83611915565b60200260200101516040518263ffffffff1660e01b8152600401610ca991815260200190565b6040805180830381865afa158015610cc5573d6000803e3d6000fd5b505050506040513d601f19601f82011682018060405250810190610ce99190611ad3565b915091508515610e735760025487516001600160a01b039091169063885a502190899087908110610d1c57610d1c611915565b60200260200101516040518263ffffffff1660e01b8152600401610d4291815260200190565b602060405180830381865afa158015610d5f573d6000803e3d6000fd5b505050506040513d601f19601f82011682018060405250810190610d839190611948565b15610dd05760405162461bcd60e51b815260206004820152601c60248201527f546f6b656e20696e206d617463682063616e277420756e7374616b65000000006044820152606401610397565b600060056000898781518110610de857610de8611915565b6020908102919091018101518252810191909152604001600020805460ff1916911515919091179055610e204264121adb70006118fd565b60056000898781518110610e3657610e36611915565b6020908102919091018101518252818101929092526040908101600090812060010193909355338352600690915290208054600019019055610ea8565b4260056000898781518110610e8a57610e8a611915565b60200260200101518152602001908152602001600020600101819055505b7f00000000000000000000000000000000000000000000000000000000000000006001600160a01b0316630de613c7888681518110610ee957610ee9611915565b602002602001015184846040518463ffffffff1660e01b8152600401610f259392919092835260ff918216602084015216604082015260600190565b600060405180830381600087803b158015610f3f57600080fd5b505af1158015610f53573d6000803e3d6000fd5b50505050836001019350505050610a14565b50801561076a57604051637625088b60e11b8152336004820152602481018290527f00000000000000000000000000000000000000000000000000000000000000006001600160a01b03169063ec4a111690604401600060405180830381600087803b158015610fd457600080fd5b505af1158015610fe8573d6000803e3d6000fd5b505050505050600160005550565b6060611001826113e1565b92915050565b6000816110495760405162461bcd60e51b815260206004820152601060248201526f125b9d985b1a59081d1bdad95b881a5960821b6044820152606401610397565b604051635055fbc360e01b8152600481018390527f00000000000000000000000000000000000000000000000000000000000000006001600160a01b031690635055fbc390602401602060405180830381865afa1580156110ae573d6000803e3d6000fd5b505050506040513d601f19601f820116820180604052508101906110d29190611948565b6111115760405162461bcd60e51b815260206004820152601060248201526f151bdad95b881d5b9c995d99585b195960821b6044820152606401610397565b6000828152600560209081526040918290208251808401909352805460ff161515808452600190910154918301919091526111815760405162461bcd60e51b815260206004820152601060248201526f151bdad95b881b9bdd081cdd185ad95960821b6044820152606401610397565b60008160200151426111939190611abc565b6040516304899f9b60e51b8152600481018690529091506000906001600160a01b037f00000000000000000000000000000000000000000000000000000000000000001690639133f360906024016040805180830381865afa1580156111fd573d6000803e3d6000fd5b505050506040513d601f19601f820116820180604052508101906112219190611ad3565b5090506000611231603c84611b06565b60035461123e9190611b28565b9050600060648360ff161061126a57611258606483611b06565b611263906064611b28565b9050611286565b60ff8316611279606484611b06565b6112839190611b28565b90505b61129082826118fd565b979650505050505050565b6001546001600160a01b031633146112c55760405162461bcd60e51b815260040161039790611965565b6000811180156112d55750603281105b6113115760405162461bcd60e51b815260206004820152600d60248201526c496e76616c69642076616c756560981b6044820152606401610397565b60048190556040518181527fc00d43384ab9c03d916a5bc5edb1619ff67c6ed3de95b59cb7c013aeab2f1b489060200161081b565b6001546001600160a01b031633146113705760405162461bcd60e51b815260040161039790611965565b6001600160a01b0381166113d55760405162461bcd60e51b815260206004820152602660248201527f4f776e61626c653a206e6577206f776e657220697320746865207a65726f206160448201526564647265737360d01b6064820152608401610397565b6113de8161158d565b50565b604051632d1f933960e11b81526001600160a01b0382811660048301526060916000917f00000000000000000000000000000000000000000000000000000000000000001690635a3f267290602401600060405180830381865afa15801561144d573d6000803e3d6000fd5b505050506040513d6000823e601f3d908101601f191682016040526114759190810190611b47565b6001600160a01b03841660009081526006602052604090205490915080156115765760008167ffffffffffffffff8111156114b2576114b2611748565b6040519080825280602002602001820160405280156114db578160200160208202803683370190505b5090506000805b845181101561156b576005600086838151811061150157611501611915565b60209081029190910181015182528101919091526040016000205460ff16156115635784818151811061153657611536611915565b602002602001015183838151811061155057611550611915565b6020026020010181815250508160010191505b6001016114e2565b509095945050505050565b505060408051600081526020810190915292915050565b600180546001600160a01b038381166001600160a01b0319831681179093556040519116919082907f8be0079c531659141344cd1fd0a4f28419497f9722a3daafe3b4186f6b6457e090600090a35050565b600080602083850312156115f257600080fd5b823567ffffffffffffffff8082111561160a57600080fd5b818501915085601f83011261161e57600080fd5b81358181111561162d57600080fd5b8660208260051b850101111561164257600080fd5b60209290920196919550909350505050565b6001600160a01b03811681146113de57600080fd5b60006020828403121561167b57600080fd5b813561093f81611654565b60006020828403121561169857600080fd5b5035919050565b602080825282518282018190526000919060409081850190868401855b8281101561173b578151805160ff9081168652878201511687860152858101516116ea8787018260ff169052565b50606081810151908601526080808201519086015260a0808201519086015260c0808201519086015260e08082015190860152610100908101519085015261012090930192908501906001016116bc565b5091979650505050505050565b634e487b7160e01b600052604160045260246000fd5b604051610120810167ffffffffffffffff8111828210171561178257611782611748565b60405290565b604051601f8201601f1916810167ffffffffffffffff811182821017156117b1576117b1611748565b604052919050565b600067ffffffffffffffff8211156117d3576117d3611748565b5060051b60200190565b80151581146113de57600080fd5b80356117f6816117dd565b919050565b6000806040838503121561180e57600080fd5b823567ffffffffffffffff81111561182557600080fd5b8301601f8101851361183657600080fd5b8035602061184b611846836117b9565b611788565b82815260059290921b8301810191818101908884111561186a57600080fd5b938201935b838510156118885784358252938201939082019061186f565b955061189790508682016117eb565b93505050509250929050565b6020808252825182820181905260009190848201906040850190845b818110156118db578351835292840192918401916001016118bf565b50909695505050505050565b634e487b7160e01b600052601160045260246000fd5b60008219821115611910576119106118e7565b500190565b634e487b7160e01b600052603260045260246000fd5b60006020828403121561193d57600080fd5b815161093f81611654565b60006020828403121561195a57600080fd5b815161093f816117dd565b6020808252818101527f4f776e61626c653a2063616c6c6572206973206e6f7420746865206f776e6572604082015260600190565b805160ff811681146117f657600080fd5b600060208083850312156119be57600080fd5b825167ffffffffffffffff8111156119d557600080fd5b8301601f810185136119e657600080fd5b80516119f4611846826117b9565b8181526101209182028301840191848201919088841115611a1457600080fd5b938501935b83851015611ab05780858a031215611a315760008081fd5b611a3961175e565b611a428661199a565b8152611a4f87870161199a565b878201526040611a6081880161199a565b90820152606086810151908201526080808701519082015260a0808701519082015260c0808701519082015260e08087015190820152610100808701519082015283529384019391850191611a19565b50979650505050505050565b600082821015611ace57611ace6118e7565b500390565b60008060408385031215611ae657600080fd5b611aef8361199a565b9150611afd6020840161199a565b90509250929050565b600082611b2357634e487b7160e01b600052601260045260246000fd5b500490565b6000816000190483118215151615611b4257611b426118e7565b500290565b60006020808385031215611b5a57600080fd5b825167ffffffffffffffff811115611b7157600080fd5b8301601f81018513611b8257600080fd5b8051611b90611846826117b9565b81815260059190911b82018301908381019087831115611baf57600080fd5b928401925b8284101561129057835182529284019290840190611bb456fea264697066735822122029ce46ddb76dd9ee0f1fbb44fe052ea9c9630e5e5aaebf816b1dac8e012987bf64736f6c634300080c0033",
  "linkReferences": {},
  "deployedLinkReferences": {}
}